{
  "contractName": "standardNFT_DB",
  "abi": [
    {
      "anonymous": false,
      "inputs": [
        {
          "indexed": false,
          "internalType": "address",
          "name": "previousAdmin",
          "type": "address"
        },
        {
          "indexed": false,
          "internalType": "address",
          "name": "newAdmin",
          "type": "address"
        }
      ],
      "name": "AdminChanged",
      "type": "event"
    },
    {
      "anonymous": false,
      "inputs": [
        {
          "indexed": true,
          "internalType": "address",
          "name": "account",
          "type": "address"
        },
        {
          "indexed": true,
          "internalType": "address",
          "name": "operator",
          "type": "address"
        },
        {
          "indexed": false,
          "internalType": "bool",
          "name": "approved",
          "type": "bool"
        }
      ],
      "name": "ApprovalForAll",
      "type": "event"
    },
    {
      "anonymous": false,
      "inputs": [
        {
          "indexed": true,
          "internalType": "address",
          "name": "beacon",
          "type": "address"
        }
      ],
      "name": "BeaconUpgraded",
      "type": "event"
    },
    {
      "anonymous": false,
      "inputs": [
        {
          "indexed": false,
          "internalType": "uint8",
          "name": "version",
          "type": "uint8"
        }
      ],
      "name": "Initialized",
      "type": "event"
    },
    {
      "anonymous": false,
      "inputs": [
        {
          "indexed": false,
          "internalType": "address",
          "name": "account",
          "type": "address"
        }
      ],
      "name": "Paused",
      "type": "event"
    },
    {
      "anonymous": false,
      "inputs": [
        {
          "indexed": true,
          "internalType": "bytes32",
          "name": "role",
          "type": "bytes32"
        },
        {
          "indexed": true,
          "internalType": "bytes32",
          "name": "previousAdminRole",
          "type": "bytes32"
        },
        {
          "indexed": true,
          "internalType": "bytes32",
          "name": "newAdminRole",
          "type": "bytes32"
        }
      ],
      "name": "RoleAdminChanged",
      "type": "event"
    },
    {
      "anonymous": false,
      "inputs": [
        {
          "indexed": true,
          "internalType": "bytes32",
          "name": "role",
          "type": "bytes32"
        },
        {
          "indexed": true,
          "internalType": "address",
          "name": "account",
          "type": "address"
        },
        {
          "indexed": true,
          "internalType": "address",
          "name": "sender",
          "type": "address"
        }
      ],
      "name": "RoleGranted",
      "type": "event"
    },
    {
      "anonymous": false,
      "inputs": [
        {
          "indexed": true,
          "internalType": "bytes32",
          "name": "role",
          "type": "bytes32"
        },
        {
          "indexed": true,
          "internalType": "address",
          "name": "account",
          "type": "address"
        },
        {
          "indexed": true,
          "internalType": "address",
          "name": "sender",
          "type": "address"
        }
      ],
      "name": "RoleRevoked",
      "type": "event"
    },
    {
      "anonymous": false,
      "inputs": [
        {
          "indexed": true,
          "internalType": "address",
          "name": "operator",
          "type": "address"
        },
        {
          "indexed": true,
          "internalType": "address",
          "name": "from",
          "type": "address"
        },
        {
          "indexed": true,
          "internalType": "address",
          "name": "to",
          "type": "address"
        },
        {
          "indexed": false,
          "internalType": "uint256[]",
          "name": "ids",
          "type": "uint256[]"
        },
        {
          "indexed": false,
          "internalType": "uint256[]",
          "name": "values",
          "type": "uint256[]"
        }
      ],
      "name": "TransferBatch",
      "type": "event"
    },
    {
      "anonymous": false,
      "inputs": [
        {
          "indexed": true,
          "internalType": "address",
          "name": "operator",
          "type": "address"
        },
        {
          "indexed": true,
          "internalType": "address",
          "name": "from",
          "type": "address"
        },
        {
          "indexed": true,
          "internalType": "address",
          "name": "to",
          "type": "address"
        },
        {
          "indexed": false,
          "internalType": "uint256",
          "name": "id",
          "type": "uint256"
        },
        {
          "indexed": false,
          "internalType": "uint256",
          "name": "value",
          "type": "uint256"
        }
      ],
      "name": "TransferSingle",
      "type": "event"
    },
    {
      "anonymous": false,
      "inputs": [
        {
          "indexed": false,
          "internalType": "string",
          "name": "value",
          "type": "string"
        },
        {
          "indexed": true,
          "internalType": "uint256",
          "name": "id",
          "type": "uint256"
        }
      ],
      "name": "URI",
      "type": "event"
    },
    {
      "anonymous": false,
      "inputs": [
        {
          "indexed": false,
          "internalType": "address",
          "name": "account",
          "type": "address"
        }
      ],
      "name": "Unpaused",
      "type": "event"
    },
    {
      "anonymous": false,
      "inputs": [
        {
          "indexed": true,
          "internalType": "address",
          "name": "implementation",
          "type": "address"
        }
      ],
      "name": "Upgraded",
      "type": "event"
    },
    {
      "inputs": [],
      "name": "ADMIN_ROLE",
      "outputs": [
        {
          "internalType": "bytes32",
          "name": "",
          "type": "bytes32"
        }
      ],
      "stateMutability": "view",
      "type": "function",
      "constant": true
    },
    {
      "inputs": [],
      "name": "DEFAULT_ADMIN_ROLE",
      "outputs": [
        {
          "internalType": "bytes32",
          "name": "",
          "type": "bytes32"
        }
      ],
      "stateMutability": "view",
      "type": "function",
      "constant": true
    },
    {
      "inputs": [
        {
          "internalType": "address",
          "name": "account",
          "type": "address"
        },
        {
          "internalType": "uint256",
          "name": "id",
          "type": "uint256"
        }
      ],
      "name": "balanceOf",
      "outputs": [
        {
          "internalType": "uint256",
          "name": "",
          "type": "uint256"
        }
      ],
      "stateMutability": "view",
      "type": "function",
      "constant": true
    },
    {
      "inputs": [
        {
          "internalType": "address[]",
          "name": "accounts",
          "type": "address[]"
        },
        {
          "internalType": "uint256[]",
          "name": "ids",
          "type": "uint256[]"
        }
      ],
      "name": "balanceOfBatch",
      "outputs": [
        {
          "internalType": "uint256[]",
          "name": "",
          "type": "uint256[]"
        }
      ],
      "stateMutability": "view",
      "type": "function",
      "constant": true
    },
    {
      "inputs": [
        {
          "internalType": "bytes32",
          "name": "role",
          "type": "bytes32"
        }
      ],
      "name": "getRoleAdmin",
      "outputs": [
        {
          "internalType": "bytes32",
          "name": "",
          "type": "bytes32"
        }
      ],
      "stateMutability": "view",
      "type": "function",
      "constant": true
    },
    {
      "inputs": [
        {
          "internalType": "bytes32",
          "name": "role",
          "type": "bytes32"
        },
        {
          "internalType": "uint256",
          "name": "index",
          "type": "uint256"
        }
      ],
      "name": "getRoleMember",
      "outputs": [
        {
          "internalType": "address",
          "name": "",
          "type": "address"
        }
      ],
      "stateMutability": "view",
      "type": "function",
      "constant": true
    },
    {
      "inputs": [
        {
          "internalType": "bytes32",
          "name": "role",
          "type": "bytes32"
        }
      ],
      "name": "getRoleMemberCount",
      "outputs": [
        {
          "internalType": "uint256",
          "name": "",
          "type": "uint256"
        }
      ],
      "stateMutability": "view",
      "type": "function",
      "constant": true
    },
    {
      "inputs": [
        {
          "internalType": "bytes32",
          "name": "role",
          "type": "bytes32"
        },
        {
          "internalType": "address",
          "name": "account",
          "type": "address"
        }
      ],
      "name": "grantRole",
      "outputs": [],
      "stateMutability": "nonpayable",
      "type": "function"
    },
    {
      "inputs": [
        {
          "internalType": "bytes32",
          "name": "role",
          "type": "bytes32"
        },
        {
          "internalType": "address",
          "name": "account",
          "type": "address"
        }
      ],
      "name": "hasRole",
      "outputs": [
        {
          "internalType": "bool",
          "name": "",
          "type": "bool"
        }
      ],
      "stateMutability": "view",
      "type": "function",
      "constant": true
    },
    {
      "inputs": [
        {
          "internalType": "address",
          "name": "account",
          "type": "address"
        },
        {
          "internalType": "address",
          "name": "operator",
          "type": "address"
        }
      ],
      "name": "isApprovedForAll",
      "outputs": [
        {
          "internalType": "bool",
          "name": "",
          "type": "bool"
        }
      ],
      "stateMutability": "view",
      "type": "function",
      "constant": true
    },
    {
      "inputs": [],
      "name": "name",
      "outputs": [
        {
          "internalType": "string",
          "name": "",
          "type": "string"
        }
      ],
      "stateMutability": "view",
      "type": "function",
      "constant": true
    },
    {
      "inputs": [],
      "name": "paused",
      "outputs": [
        {
          "internalType": "bool",
          "name": "",
          "type": "bool"
        }
      ],
      "stateMutability": "view",
      "type": "function",
      "constant": true
    },
    {
      "inputs": [],
      "name": "proxiableUUID",
      "outputs": [
        {
          "internalType": "bytes32",
          "name": "",
          "type": "bytes32"
        }
      ],
      "stateMutability": "view",
      "type": "function",
      "constant": true
    },
    {
      "inputs": [
        {
          "internalType": "bytes32",
          "name": "role",
          "type": "bytes32"
        },
        {
          "internalType": "address",
          "name": "account",
          "type": "address"
        }
      ],
      "name": "renounceRole",
      "outputs": [],
      "stateMutability": "nonpayable",
      "type": "function"
    },
    {
      "inputs": [
        {
          "internalType": "bytes32",
          "name": "role",
          "type": "bytes32"
        },
        {
          "internalType": "address",
          "name": "account",
          "type": "address"
        }
      ],
      "name": "revokeRole",
      "outputs": [],
      "stateMutability": "nonpayable",
      "type": "function"
    },
    {
      "inputs": [
        {
          "internalType": "address",
          "name": "from",
          "type": "address"
        },
        {
          "internalType": "address",
          "name": "to",
          "type": "address"
        },
        {
          "internalType": "uint256[]",
          "name": "ids",
          "type": "uint256[]"
        },
        {
          "internalType": "uint256[]",
          "name": "amounts",
          "type": "uint256[]"
        },
        {
          "internalType": "bytes",
          "name": "data",
          "type": "bytes"
        }
      ],
      "name": "safeBatchTransferFrom",
      "outputs": [],
      "stateMutability": "nonpayable",
      "type": "function"
    },
    {
      "inputs": [
        {
          "internalType": "address",
          "name": "from",
          "type": "address"
        },
        {
          "internalType": "address",
          "name": "to",
          "type": "address"
        },
        {
          "internalType": "uint256",
          "name": "id",
          "type": "uint256"
        },
        {
          "internalType": "uint256",
          "name": "amount",
          "type": "uint256"
        },
        {
          "internalType": "bytes",
          "name": "data",
          "type": "bytes"
        }
      ],
      "name": "safeTransferFrom",
      "outputs": [],
      "stateMutability": "nonpayable",
      "type": "function"
    },
    {
      "inputs": [
        {
          "internalType": "address",
          "name": "operator",
          "type": "address"
        },
        {
          "internalType": "bool",
          "name": "approved",
          "type": "bool"
        }
      ],
      "name": "setApprovalForAll",
      "outputs": [],
      "stateMutability": "nonpayable",
      "type": "function"
    },
    {
      "inputs": [
        {
          "internalType": "address",
          "name": "newImplementation",
          "type": "address"
        }
      ],
      "name": "upgradeTo",
      "outputs": [],
      "stateMutability": "nonpayable",
      "type": "function"
    },
    {
      "inputs": [
        {
          "internalType": "address",
          "name": "newImplementation",
          "type": "address"
        },
        {
          "internalType": "bytes",
          "name": "data",
          "type": "bytes"
        }
      ],
      "name": "upgradeToAndCall",
      "outputs": [],
      "stateMutability": "payable",
      "type": "function",
      "payable": true
    },
    {
      "inputs": [
        {
          "internalType": "string",
          "name": "contract_uri",
          "type": "string"
        },
        {
          "internalType": "address[]",
          "name": "admins",
          "type": "address[]"
        },
        {
          "internalType": "string",
          "name": "contract_name",
          "type": "string"
        }
      ],
      "name": "initialize",
      "outputs": [],
      "stateMutability": "nonpayable",
      "type": "function"
    },
    {
      "inputs": [
        {
          "internalType": "uint256",
          "name": "tokenId",
          "type": "uint256"
        }
      ],
      "name": "uri",
      "outputs": [
        {
          "internalType": "string",
          "name": "",
          "type": "string"
        }
      ],
      "stateMutability": "view",
      "type": "function",
      "constant": true
    },
    {
      "inputs": [],
      "name": "contractURI",
      "outputs": [
        {
          "internalType": "string",
          "name": "",
          "type": "string"
        }
      ],
      "stateMutability": "view",
      "type": "function",
      "constant": true
    },
    {
      "inputs": [
        {
          "internalType": "address",
          "name": "to",
          "type": "address"
        },
        {
          "internalType": "uint256",
          "name": "tokenId",
          "type": "uint256"
        },
        {
          "internalType": "uint256",
          "name": "amount",
          "type": "uint256"
        },
        {
          "internalType": "string",
          "name": "contract_uri",
          "type": "string"
        },
        {
          "internalType": "bool",
          "name": "burnable",
          "type": "bool"
        },
        {
          "internalType": "bool",
          "name": "nonMutable",
          "type": "bool"
        }
      ],
      "name": "mintToken",
      "outputs": [],
      "stateMutability": "nonpayable",
      "type": "function"
    },
    {
      "inputs": [
        {
          "internalType": "address",
          "name": "contract_address",
          "type": "address"
        },
        {
          "internalType": "uint256",
          "name": "tokenId",
          "type": "uint256"
        },
        {
          "internalType": "uint256",
          "name": "amount",
          "type": "uint256"
        }
      ],
      "name": "burnToken",
      "outputs": [],
      "stateMutability": "nonpayable",
      "type": "function"
    },
    {
      "inputs": [
        {
          "internalType": "string",
          "name": "role",
          "type": "string"
        }
      ],
      "name": "getCurrentPrivilegedAccounts",
      "outputs": [
        {
          "internalType": "address[]",
          "name": "",
          "type": "address[]"
        }
      ],
      "stateMutability": "view",
      "type": "function",
      "constant": true
    },
    {
      "inputs": [
        {
          "internalType": "uint256",
          "name": "tokenId",
          "type": "uint256"
        }
      ],
      "name": "exists",
      "outputs": [
        {
          "internalType": "bool",
          "name": "",
          "type": "bool"
        }
      ],
      "stateMutability": "view",
      "type": "function",
      "constant": true
    },
    {
      "inputs": [
        {
          "internalType": "uint256",
          "name": "tokenId",
          "type": "uint256"
        },
        {
          "internalType": "string",
          "name": "token_uri",
          "type": "string"
        }
      ],
      "name": "setTokenUri",
      "outputs": [],
      "stateMutability": "nonpayable",
      "type": "function"
    },
    {
      "inputs": [
        {
          "internalType": "address",
          "name": "who",
          "type": "address"
        }
      ],
      "name": "getTokenMappings",
      "outputs": [
        {
          "internalType": "uint256[]",
          "name": "",
          "type": "uint256[]"
        }
      ],
      "stateMutability": "view",
      "type": "function",
      "constant": true
    },
    {
      "inputs": [],
      "name": "pause",
      "outputs": [],
      "stateMutability": "nonpayable",
      "type": "function"
    },
    {
      "inputs": [],
      "name": "unpause",
      "outputs": [],
      "stateMutability": "nonpayable",
      "type": "function"
    },
    {
      "inputs": [
        {
          "internalType": "bytes4",
          "name": "interfaceId",
          "type": "bytes4"
        }
      ],
      "name": "supportsInterface",
      "outputs": [
        {
          "internalType": "bool",
          "name": "",
          "type": "bool"
        }
      ],
      "stateMutability": "view",
      "type": "function",
      "constant": true
    },
    {
      "inputs": [
        {
          "internalType": "string",
          "name": "a",
          "type": "string"
        },
        {
          "internalType": "string",
          "name": "b",
          "type": "string"
        }
      ],
      "name": "compareStrings",
      "outputs": [
        {
          "internalType": "bool",
          "name": "",
          "type": "bool"
        }
      ],
      "stateMutability": "pure",
      "type": "function",
      "constant": true
    }
  ],
  "bytecode": "0x60a0604052306080523480156012575f80fd5b506080516137cf6100475f395f8181610978015281816109b801528181610b8e01528181610bce0152610c8e01526137cf5ff3fe6080604052600436106101e5575f3560e01c80635f92c3a811610108578063a217fddf1161009d578063d547741f1161006d578063d547741f14610576578063e8a3d48514610595578063e985e9c5146105a9578063ed8c5938146105f0578063f242432a1461060f575f80fd5b8063a217fddf14610506578063a22cb46514610519578063bed34bba14610538578063ca15c87314610557575f80fd5b80639010d07c116100d85780639010d07c1461047257806391d14854146104a9578063989bc8af146104c85780639b889733146104e7575f80fd5b80635f92c3a8146103f357806375b238fc146104125780638456cb59146104325780638948dc4514610446575f80fd5b80633659cfe61161017e5780634f558e791161014e5780634f558e791461038a57806352d1902d146103a957806357f7789e146103bd5780635c975abb146103dc575f80fd5b80633659cfe6146103185780633f4ba83a146103375780634e1273f41461034b5780634f1ef28614610377575f80fd5b8063248a9ca3116101b9578063248a9ca31461028a5780632eb2c2d6146102b95780632f2ff15d146102da57806336568abe146102f9575f80fd5b8062fdd58e146101e957806301ffc9a71461021b57806306fdde031461024a5780630e89341c1461026b575b5f80fd5b3480156101f4575f80fd5b50610208610203366004612a19565b61062e565b6040519081526020015b60405180910390f35b348015610226575f80fd5b5061023a610235366004612a56565b6106c7565b6040519015158152602001610212565b348015610255575f80fd5b5061025e6106eb565b6040516102129190612a9f565b348015610276575f80fd5b5061025e610285366004612ab1565b610778565b348015610295575f80fd5b506102086102a4366004612ab1565b5f90815261012d602052604090206001015490565b3480156102c4575f80fd5b506102d86102d3366004612c0c565b61087a565b005b3480156102e5575f80fd5b506102d86102f4366004612cae565b6108c6565b348015610304575f80fd5b506102d8610313366004612cae565b6108f0565b348015610323575f80fd5b506102d8610332366004612cd8565b61096e565b348015610342575f80fd5b506102d8610a4b565b348015610356575f80fd5b5061036a610365366004612d60565b610a65565b6040516102129190612df9565b6102d8610385366004612e0b565b610b84565b348015610395575f80fd5b5061023a6103a4366004612ab1565b610c4f565b3480156103b4575f80fd5b50610208610c82565b3480156103c8575f80fd5b506102d86103d7366004612e4b565b610d34565b3480156103e7575f80fd5b5060975460ff1661023a565b3480156103fe575f80fd5b506102d861040d366004612e78565b610deb565b34801561041d575f80fd5b506102085f8051602061377a83398151915281565b34801561043d575f80fd5b506102d8610fa3565b348015610451575f80fd5b50610465610460366004612ef9565b610fbd565b6040516102129190612f2a565b34801561047d575f80fd5b5061049161048c366004612f76565b611097565b6040516001600160a01b039091168152602001610212565b3480156104b4575f80fd5b5061023a6104c3366004612cae565b6110b6565b3480156104d3575f80fd5b506102d86104e2366004612fa5565b6110e1565b3480156104f2575f80fd5b5061036a610501366004612cd8565b611210565b348015610511575f80fd5b506102085f81565b348015610524575f80fd5b506102d8610533366004613020565b611279565b348015610543575f80fd5b5061023a610552366004613048565b611284565b348015610562575f80fd5b50610208610571366004612ab1565b6112dc565b348015610581575f80fd5b506102d8610590366004612cae565b6112f3565b3480156105a0575f80fd5b5061025e611318565b3480156105b4575f80fd5b5061023a6105c336600461309d565b6001600160a01b039182165f90815260666020908152604080832093909416825291909152205460ff1690565b3480156105fb575f80fd5b506102d861060a3660046130c5565b6113a9565b34801561061a575f80fd5b506102d86106293660046130f5565b6114be565b5f6001600160a01b03831661069d5760405162461bcd60e51b815260206004820152602a60248201527f455243313135353a2061646472657373207a65726f206973206e6f742061207660448201526930b634b21037bbb732b960b11b60648201526084015b60405180910390fd5b505f8181526065602090815260408083206001600160a01b03861684529091529020545b92915050565b5f6001600160e01b03198216630aa3b1b360e01b14806106c157506106c182611503565b6101f680546106f990613154565b80601f016020809104026020016040519081016040528092919081815260200182805461072590613154565b80156107705780601f1061074757610100808354040283529160200191610770565b820191905f5260205f20905b81548152906001019060200180831161075357829003601f168201915b505050505081565b606061078382610c4f565b6107de5760405162461bcd60e51b815260206004820152602660248201527f455243313135353a20717565727920666f72206e6f6e2d6578697374656e74206044820152651bd89a9958dd60d21b6064820152608401610694565b5f8281526101f86020526040902080546107f790613154565b80601f016020809104026020016040519081016040528092919081815260200182805461082390613154565b801561086e5780601f106108455761010080835404028352916020019161086e565b820191905f5260205f20905b81548152906001019060200180831161085157829003601f168201915b50505050509050919050565b6001600160a01b038516331480610896575061089685336105c3565b6108b25760405162461bcd60e51b815260040161069490613186565b6108bf8585858585611527565b5050505050565b5f82815261012d60205260409020600101546108e181611701565b6108eb838361170b565b505050565b6001600160a01b03811633146109605760405162461bcd60e51b815260206004820152602f60248201527f416363657373436f6e74726f6c3a2063616e206f6e6c792072656e6f756e636560448201526e103937b632b9903337b91039b2b63360891b6064820152608401610694565b61096a828261172d565b5050565b6001600160a01b037f00000000000000000000000000000000000000000000000000000000000000001630036109b65760405162461bcd60e51b8152600401610694906131d4565b7f00000000000000000000000000000000000000000000000000000000000000006001600160a01b03166109fe5f80516020613733833981519152546001600160a01b031690565b6001600160a01b031614610a245760405162461bcd60e51b815260040161069490613220565b610a2d8161174f565b604080515f80825260208201909252610a4891839190611759565b50565b5f610a5581611701565b610a5d6118c3565b610a4861190e565b60608151835114610aca5760405162461bcd60e51b815260206004820152602960248201527f455243313135353a206163636f756e747320616e6420696473206c656e677468604482015268040dad2e6dac2e8c6d60bb1b6064820152608401610694565b5f83516001600160401b03811115610ae457610ae4612ac8565b604051908082528060200260200182016040528015610b0d578160200160208202803683370190505b5090505f5b8451811015610b7c57610b57858281518110610b3057610b3061326c565b6020026020010151858381518110610b4a57610b4a61326c565b602002602001015161062e565b828281518110610b6957610b6961326c565b6020908102919091010152600101610b12565b509392505050565b6001600160a01b037f0000000000000000000000000000000000000000000000000000000000000000163003610bcc5760405162461bcd60e51b8152600401610694906131d4565b7f00000000000000000000000000000000000000000000000000000000000000006001600160a01b0316610c145f80516020613733833981519152546001600160a01b031690565b6001600160a01b031614610c3a5760405162461bcd60e51b815260040161069490613220565b610c438261174f565b61096a82826001611759565b5f5f8051602061377a833981519152610c6781611701565b5f8381526101f9602052604090205460ff1691505b50919050565b5f306001600160a01b037f00000000000000000000000000000000000000000000000000000000000000001614610d215760405162461bcd60e51b815260206004820152603860248201527f555550535570677261646561626c653a206d757374206e6f742062652063616c60448201527f6c6564207468726f7567682064656c656761746563616c6c00000000000000006064820152608401610694565b505f805160206137338339815191525b90565b5f8051602061377a833981519152610d4b81611701565b5f8381526101fb602052604090205460ff1615610d6c576108eb8383611960565b610d765f336110b6565b15610d85576108eb8383611960565b60405162461bcd60e51b815260206004820152603560248201527f49455243506c6174666f726d3a2055524920666f722073706563696669656420604482015274746f6b656e4964206973207065726d616e656e742160581b6064820152608401610694565b5f54610100900460ff1615808015610e0957505f54600160ff909116105b80610e225750303b158015610e2257505f5460ff166001145b610e855760405162461bcd60e51b815260206004820152602e60248201527f496e697469616c697a61626c653a20636f6e747261637420697320616c72656160448201526d191e481a5b9a5d1a585b1a5e995960921b6064820152608401610694565b5f805460ff191660011790558015610ea6575f805461ff0019166101001790555b610eaf846119bd565b610eb76119ec565b6101f5610ec485826132c4565b506101f6610ed283826132c4565b50610edd5f3361170b565b610ef45f8051602061377a8339815191523361170b565b825115610f58575f5b8351811015610f5657610f2b5f801b858381518110610f1e57610f1e61326c565b602002602001015161170b565b610f4e5f8051602061377a833981519152858381518110610f1e57610f1e61326c565b600101610efd565b505b8015610f9d575f805461ff0019169055604051600181527f7f26b83ff96e1f2b6a682f133852f6798a09c465da95921460cefb38474024989060200160405180910390a15b50505050565b5f610fad81611701565b610fb5611a1a565b610a48611a60565b60605f610fc981611701565b5f83604051602001610fdb9190613396565b6040516020818303038152906040528051906020012090505f610ffd826112dc565b6001600160401b0381111561101457611014612ac8565b60405190808252806020026020018201604052801561103d578160200160208202803683370190505b5090505f5b61104b836112dc565b81101561108e5761105c8382611097565b82828151811061106e5761106e61326c565b6001600160a01b0390921660209283029190910190910152600101611042565b50949350505050565b5f82815261015f602052604081206110af9083611a9d565b9392505050565b5f91825261012d602090815260408084206001600160a01b0393909316845291905290205460ff1690565b6110e9611aa8565b5f8051602061377a83398151915261110081611701565b61110986610c4f565b156111585761112887878760405180602001604052805f815250611b01565b6001600160a01b0387165f9081526101f760209081526040822080546001810182559083529120018690556111fd565b61117287878760405180602001604052805f815250611b01565b6001600160a01b0387165f9081526101f760209081526040808320805460018181018355918552838520018a90558984526101f9909252909120805460ff191690911790556111c18685611960565b82156111e1575f8681526101fa60205260409020805460ff191660011790555b816111fd575f8681526101fb60205260409020805460ff191690555b50611208600160fb55565b505050505050565b6001600160a01b0381165f9081526101f7602090815260409182902080548351818402810184019094528084526060939283018282801561086e57602002820191905f5260205f20905b81548152602001906001019080831161125a5750505050509050919050565b61096a338383611c27565b5f816040516020016112969190613396565b60405160208183030381529060405280519060200120836040516020016112bd9190613396565b6040516020818303038152906040528051906020012014905092915050565b5f81815261015f602052604081206106c190611d06565b5f82815261012d602052604090206001015461130e81611701565b6108eb838361172d565b60606101f5805461132890613154565b80601f016020809104026020016040519081016040528092919081815260200182805461135490613154565b801561139f5780601f106113765761010080835404028352916020019161139f565b820191905f5260205f20905b81548152906001019060200180831161138257829003601f168201915b5050505050905090565b6113b1611aa8565b5f8051602061377a8339815191526113c881611701565b6113d183610c4f565b6114135760405162461bcd60e51b8152602060048201526013602482015272546f6b656e206e6f74206578697374656e742160681b6044820152606401610694565b5f8381526101fa602052604090205460ff1661146a5760405162461bcd60e51b8152602060048201526016602482015275546f6b656e206973206e6f74206275726e61626c652160501b6044820152606401610694565b611475848484611d0f565b60408051602080820183525f8083528681526101f8909152919091209061149c90826132c4565b50505f8281526101f960205260409020805460ff191690556108eb600160fb55565b6001600160a01b0385163314806114da57506114da85336105c3565b6114f65760405162461bcd60e51b815260040161069490613186565b6108bf8585858585611e9c565b5f6001600160e01b03198216635a05180f60e01b14806106c157506106c182611fd4565b81518351146115895760405162461bcd60e51b815260206004820152602860248201527f455243313135353a2069647320616e6420616d6f756e7473206c656e677468206044820152670dad2e6dac2e8c6d60c31b6064820152608401610694565b6001600160a01b0384166115af5760405162461bcd60e51b8152600401610694906133a1565b336115be818787878787611ff8565b5f5b845181101561169b575f8582815181106115dc576115dc61326c565b602002602001015190505f8583815181106115f9576115f961326c565b6020908102919091018101515f8481526065835260408082206001600160a01b038e1683529093529190912054909150818110156116495760405162461bcd60e51b8152600401610694906133e6565b5f8381526065602090815260408083206001600160a01b038e8116855292528083208585039055908b16825281208054849290611687908490613444565b9091555050600190930192506115c0915050565b50846001600160a01b0316866001600160a01b0316826001600160a01b03167f4a39dc06d4c0dbc64b70af90fd698a233a518aa5d07e595d983b8c0526c8f7fb87876040516116eb929190613457565b60405180910390a4611208818787878787612060565b610a4881336121ba565b6117158282612213565b5f82815261015f602052604090206108eb9082612299565b61173782826122ad565b5f82815261015f602052604090206108eb9082612314565b5f61096a81611701565b7f4910fdfa16fed3260ed0e7147f7cc6da11a60208b5b9406d12a635614ffd91435460ff161561178c576108eb83612328565b826001600160a01b03166352d1902d6040518163ffffffff1660e01b8152600401602060405180830381865afa9250505080156117e6575060408051601f3d908101601f191682019092526117e391810190613484565b60015b6118495760405162461bcd60e51b815260206004820152602e60248201527f45524331393637557067726164653a206e657720696d706c656d656e7461746960448201526d6f6e206973206e6f74205555505360901b6064820152608401610694565b5f8051602061373383398151915281146118b75760405162461bcd60e51b815260206004820152602960248201527f45524331393637557067726164653a20756e737570706f727465642070726f786044820152681a58589b195555525160ba1b6064820152608401610694565b506108eb8383836123c3565b60975460ff1661190c5760405162461bcd60e51b815260206004820152601460248201527314185d5cd8589b194e881b9bdd081c185d5cd95960621b6044820152606401610694565b565b6119166118c3565b6097805460ff191690557f5db9ee0a495bf2e6ff9c91a7834c1ba4fdd244a5e8aa4e537bd38aeae4b073aa335b6040516001600160a01b03909116815260200160405180910390a1565b5f8281526101f86020526040902061197882826132c4565b50817f6bb7ff708619ba0610cba295a58592e0451dee2622938c8755667688daf3529b6119a484610778565b6040516119b19190612a9f565b60405180910390a25050565b5f54610100900460ff166119e35760405162461bcd60e51b81526004016106949061349b565b610a48816123e7565b5f54610100900460ff16611a125760405162461bcd60e51b81526004016106949061349b565b61190c612416565b60975460ff161561190c5760405162461bcd60e51b815260206004820152601060248201526f14185d5cd8589b194e881c185d5cd95960821b6044820152606401610694565b611a68611a1a565b6097805460ff191660011790557f62e78cea01bee320cd4e420270b5ea74000d11b0c9f74754ebdbfc544b05a2586119433390565b5f6110af838361243c565b600260fb5403611afa5760405162461bcd60e51b815260206004820152601f60248201527f5265656e7472616e637947756172643a207265656e7472616e742063616c6c006044820152606401610694565b600260fb55565b6001600160a01b038416611b615760405162461bcd60e51b815260206004820152602160248201527f455243313135353a206d696e7420746f20746865207a65726f206164647265736044820152607360f81b6064820152608401610694565b335f611b6c85612462565b90505f611b7885612462565b9050611b88835f89858589611ff8565b5f8681526065602090815260408083206001600160a01b038b16845290915281208054879290611bb9908490613444565b909155505060408051878152602081018790526001600160a01b03808a16925f92918716917fc3d58168c5ae7397731d063d5bbf3d657854427343f4c083240f7aacaa2d0f62910160405180910390a4611c17835f898989896124ab565b50505050505050565b600160fb55565b816001600160a01b0316836001600160a01b031603611c9a5760405162461bcd60e51b815260206004820152602960248201527f455243313135353a2073657474696e6720617070726f76616c20737461747573604482015268103337b91039b2b63360b91b6064820152608401610694565b6001600160a01b038381165f81815260666020908152604080832094871680845294825291829020805460ff191686151590811790915591519182527f17307eab39ab6107e8899845ad3d59bd9653f200f220920489ca2b5937696c31910160405180910390a3505050565b5f6106c1825490565b6001600160a01b038316611d715760405162461bcd60e51b815260206004820152602360248201527f455243313135353a206275726e2066726f6d20746865207a65726f206164647260448201526265737360e81b6064820152608401610694565b335f611d7c84612462565b90505f611d8884612462565b9050611da683875f858560405180602001604052805f815250611ff8565b5f8581526065602090815260408083206001600160a01b038a16845290915290205484811015611e245760405162461bcd60e51b8152602060048201526024808201527f455243313135353a206275726e20616d6f756e7420657863656564732062616c604482015263616e636560e01b6064820152608401610694565b5f8681526065602090815260408083206001600160a01b038b81168086529184528285208a8703905582518b81529384018a90529092908816917fc3d58168c5ae7397731d063d5bbf3d657854427343f4c083240f7aacaa2d0f62910160405180910390a460408051602081019091525f9052611c17565b6001600160a01b038416611ec25760405162461bcd60e51b8152600401610694906133a1565b335f611ecd85612462565b90505f611ed985612462565b9050611ee9838989858589611ff8565b5f8681526065602090815260408083206001600160a01b038c16845290915290205485811015611f2b5760405162461bcd60e51b8152600401610694906133e6565b5f8781526065602090815260408083206001600160a01b038d8116855292528083208985039055908a16825281208054889290611f69908490613444565b909155505060408051888152602081018890526001600160a01b03808b16928c821692918816917fc3d58168c5ae7397731d063d5bbf3d657854427343f4c083240f7aacaa2d0f62910160405180910390a4611fc9848a8a8a8a8a6124ab565b505050505050505050565b5f6001600160e01b03198216637965db0b60e01b14806106c157506106c182612565565b60975460ff16156112085760405162461bcd60e51b815260206004820152602c60248201527f455243313135355061757361626c653a20746f6b656e207472616e736665722060448201526b1dda1a5b19481c185d5cd95960a21b6064820152608401610694565b6001600160a01b0384163b156112085760405163bc197c8160e01b81526001600160a01b0385169063bc197c81906120a490899089908890889088906004016134e6565b6020604051808303815f875af19250505080156120de575060408051601f3d908101601f191682019092526120db91810190613543565b60015b61218a576120ea61355e565b806308c379a00361212357506120fe613576565b806121095750612125565b8060405162461bcd60e51b81526004016106949190612a9f565b505b60405162461bcd60e51b815260206004820152603460248201527f455243313135353a207472616e7366657220746f206e6f6e2d455243313135356044820152732932b1b2b4bb32b91034b6b83632b6b2b73a32b960611b6064820152608401610694565b6001600160e01b0319811663bc197c8160e01b14611c175760405162461bcd60e51b8152600401610694906135fe565b6121c482826110b6565b61096a576121d1816125b4565b6121dc8360206125c6565b6040516020016121ed929190613646565b60408051601f198184030181529082905262461bcd60e51b825261069491600401612a9f565b61221d82826110b6565b61096a575f82815261012d602090815260408083206001600160a01b03851684529091529020805460ff191660011790556122553390565b6001600160a01b0316816001600160a01b0316837f2f8788117e7eff1d82e926ec794901d17c78024a50270940304540a733656f0d60405160405180910390a45050565b5f6110af836001600160a01b03841661275b565b6122b782826110b6565b1561096a575f82815261012d602090815260408083206001600160a01b0385168085529252808320805460ff1916905551339285917ff6391f5c32d9c69d2a47ea670b442974b53935d1edc7fd64eb21e047a839171b9190a45050565b5f6110af836001600160a01b0384166127a7565b6001600160a01b0381163b6123955760405162461bcd60e51b815260206004820152602d60248201527f455243313936373a206e657720696d706c656d656e746174696f6e206973206e60448201526c1bdd08184818dbdb9d1c9858dd609a1b6064820152608401610694565b5f8051602061373383398151915280546001600160a01b0319166001600160a01b0392909216919091179055565b6123cc8361288a565b5f825111806123d85750805b156108eb57610f9d83836128c9565b5f54610100900460ff1661240d5760405162461bcd60e51b81526004016106949061349b565b610a48816128ee565b5f54610100900460ff16611c205760405162461bcd60e51b81526004016106949061349b565b5f825f0182815481106124515761245161326c565b905f5260205f200154905092915050565b6040805160018082528183019092526060915f91906020808301908036833701905050905082815f8151811061249a5761249a61326c565b602090810291909101015292915050565b6001600160a01b0384163b156112085760405163f23a6e6160e01b81526001600160a01b0385169063f23a6e61906124ef908990899088908890889060040161369b565b6020604051808303815f875af1925050508015612529575060408051601f3d908101601f1916820190925261252691810190613543565b60015b612535576120ea61355e565b6001600160e01b0319811663f23a6e6160e01b14611c175760405162461bcd60e51b8152600401610694906135fe565b5f6001600160e01b03198216636cdb3d1360e11b148061259557506001600160e01b031982166303a24d0760e21b145b806106c157506301ffc9a760e01b6001600160e01b03198316146106c1565b60606106c16001600160a01b03831660145b60605f6125d48360026136df565b6125df906002613444565b6001600160401b038111156125f6576125f6612ac8565b6040519080825280601f01601f191660200182016040528015612620576020820181803683370190505b509050600360fc1b815f8151811061263a5761263a61326c565b60200101906001600160f81b03191690815f1a905350600f60fb1b816001815181106126685761266861326c565b60200101906001600160f81b03191690815f1a9053505f61268a8460026136df565b612695906001613444565b90505b600181111561270c576f181899199a1a9b1b9c1cb0b131b232b360811b85600f16601081106126c9576126c961326c565b1a60f81b8282815181106126df576126df61326c565b60200101906001600160f81b03191690815f1a90535060049490941c93612705816136f6565b9050612698565b5083156110af5760405162461bcd60e51b815260206004820181905260248201527f537472696e67733a20686578206c656e67746820696e73756666696369656e746044820152606401610694565b5f8181526001830160205260408120546127a057508154600181810184555f8481526020808220909301849055845484825282860190935260409020919091556106c1565b505f6106c1565b5f8181526001830160205260408120548015612881575f6127c960018361370b565b85549091505f906127dc9060019061370b565b905081811461283b575f865f0182815481106127fa576127fa61326c565b905f5260205f200154905080875f01848154811061281a5761281a61326c565b5f918252602080832090910192909255918252600188019052604090208390555b855486908061284c5761284c61371e565b600190038181905f5260205f20015f90559055856001015f8681526020019081526020015f205f9055600193505050506106c1565b5f9150506106c1565b61289381612328565b6040516001600160a01b038216907fbc7cd75a20ee27fd9adebab32041f755214dbc6bffa90cc0225b39da2e5c2d3b905f90a250565b60606110af8383604051806060016040528060278152602001613753602791396128fa565b606761096a82826132c4565b60605f80856001600160a01b0316856040516129169190613396565b5f60405180830381855af49150503d805f811461294e576040519150601f19603f3d011682016040523d82523d5f602084013e612953565b606091505b50915091506129648683838761296e565b9695505050505050565b606083156129dc5782515f036129d5576001600160a01b0385163b6129d55760405162461bcd60e51b815260206004820152601d60248201527f416464726573733a2063616c6c20746f206e6f6e2d636f6e74726163740000006044820152606401610694565b50816129e6565b6129e683836129ee565b949350505050565b8151156121095781518083602001fd5b80356001600160a01b0381168114612a14575f80fd5b919050565b5f8060408385031215612a2a575f80fd5b612a33836129fe565b946020939093013593505050565b6001600160e01b031981168114610a48575f80fd5b5f60208284031215612a66575f80fd5b81356110af81612a41565b5f81518084528060208401602086015e5f602082860101526020601f19601f83011685010191505092915050565b602081525f6110af6020830184612a71565b5f60208284031215612ac1575f80fd5b5035919050565b634e487b7160e01b5f52604160045260245ffd5b601f8201601f191681016001600160401b0381118282101715612b0157612b01612ac8565b6040525050565b5f6001600160401b03821115612b2057612b20612ac8565b5060051b60200190565b5f82601f830112612b39575f80fd5b81356020612b4682612b08565b604051612b538282612adc565b80915083815260208101915060208460051b870101935086841115612b76575f80fd5b602086015b84811015612b925780358352918301918301612b7b565b509695505050505050565b5f82601f830112612bac575f80fd5b81356001600160401b03811115612bc557612bc5612ac8565b604051612bdc601f8301601f191660200182612adc565b818152846020838601011115612bf0575f80fd5b816020850160208301375f918101602001919091529392505050565b5f805f805f60a08688031215612c20575f80fd5b612c29866129fe565b9450612c37602087016129fe565b935060408601356001600160401b0380821115612c52575f80fd5b612c5e89838a01612b2a565b94506060880135915080821115612c73575f80fd5b612c7f89838a01612b2a565b93506080880135915080821115612c94575f80fd5b50612ca188828901612b9d565b9150509295509295909350565b5f8060408385031215612cbf575f80fd5b82359150612ccf602084016129fe565b90509250929050565b5f60208284031215612ce8575f80fd5b6110af826129fe565b5f82601f830112612d00575f80fd5b81356020612d0d82612b08565b604051612d1a8282612adc565b80915083815260208101915060208460051b870101935086841115612d3d575f80fd5b602086015b84811015612b9257612d53816129fe565b8352918301918301612d42565b5f8060408385031215612d71575f80fd5b82356001600160401b0380821115612d87575f80fd5b612d9386838701612cf1565b93506020850135915080821115612da8575f80fd5b50612db585828601612b2a565b9150509250929050565b5f815180845260208085019450602084015f5b83811015612dee57815187529582019590820190600101612dd2565b509495945050505050565b602081525f6110af6020830184612dbf565b5f8060408385031215612e1c575f80fd5b612e25836129fe565b915060208301356001600160401b03811115612e3f575f80fd5b612db585828601612b9d565b5f8060408385031215612e5c575f80fd5b8235915060208301356001600160401b03811115612e3f575f80fd5b5f805f60608486031215612e8a575f80fd5b83356001600160401b0380821115612ea0575f80fd5b612eac87838801612b9d565b94506020860135915080821115612ec1575f80fd5b612ecd87838801612cf1565b93506040860135915080821115612ee2575f80fd5b50612eef86828701612b9d565b9150509250925092565b5f60208284031215612f09575f80fd5b81356001600160401b03811115612f1e575f80fd5b6129e684828501612b9d565b602080825282518282018190525f9190848201906040850190845b81811015612f6a5783516001600160a01b031683529284019291840191600101612f45565b50909695505050505050565b5f8060408385031215612f87575f80fd5b50508035926020909101359150565b80358015158114612a14575f80fd5b5f805f805f8060c08789031215612fba575f80fd5b612fc3876129fe565b9550602087013594506040870135935060608701356001600160401b03811115612feb575f80fd5b612ff789828a01612b9d565b93505061300660808801612f96565b915061301460a08801612f96565b90509295509295509295565b5f8060408385031215613031575f80fd5b61303a836129fe565b9150612ccf60208401612f96565b5f8060408385031215613059575f80fd5b82356001600160401b038082111561306f575f80fd5b61307b86838701612b9d565b93506020850135915080821115613090575f80fd5b50612db585828601612b9d565b5f80604083850312156130ae575f80fd5b6130b7836129fe565b9150612ccf602084016129fe565b5f805f606084860312156130d7575f80fd5b6130e0846129fe565b95602085013595506040909401359392505050565b5f805f805f60a08688031215613109575f80fd5b613112866129fe565b9450613120602087016129fe565b9350604086013592506060860135915060808601356001600160401b03811115613148575f80fd5b612ca188828901612b9d565b600181811c9082168061316857607f821691505b602082108103610c7c57634e487b7160e01b5f52602260045260245ffd5b6020808252602e908201527f455243313135353a2063616c6c6572206973206e6f7420746f6b656e206f776e60408201526d195c881bdc88185c1c1c9bdd995960921b606082015260800190565b6020808252602c908201527f46756e6374696f6e206d7573742062652063616c6c6564207468726f7567682060408201526b19195b1959d85d1958d85b1b60a21b606082015260800190565b6020808252602c908201527f46756e6374696f6e206d7573742062652063616c6c6564207468726f7567682060408201526b6163746976652070726f787960a01b606082015260800190565b634e487b7160e01b5f52603260045260245ffd5b601f8211156108eb57805f5260205f20601f840160051c810160208510156132a55750805b601f840160051c820191505b818110156108bf575f81556001016132b1565b81516001600160401b038111156132dd576132dd612ac8565b6132f1816132eb8454613154565b84613280565b602080601f831160018114613324575f841561330d5750858301515b5f19600386901b1c1916600185901b178555611208565b5f85815260208120601f198616915b8281101561335257888601518255948401946001909101908401613333565b508582101561336f57878501515f19600388901b60f8161c191681555b5050505050600190811b01905550565b5f81518060208401855e5f93019283525090919050565b5f6110af828461337f565b60208082526025908201527f455243313135353a207472616e7366657220746f20746865207a65726f206164604082015264647265737360d81b606082015260800190565b6020808252602a908201527f455243313135353a20696e73756666696369656e742062616c616e636520666f60408201526939103a3930b739b332b960b11b606082015260800190565b634e487b7160e01b5f52601160045260245ffd5b808201808211156106c1576106c1613430565b604081525f6134696040830185612dbf565b828103602084015261347b8185612dbf565b95945050505050565b5f60208284031215613494575f80fd5b5051919050565b6020808252602b908201527f496e697469616c697a61626c653a20636f6e7472616374206973206e6f74206960408201526a6e697469616c697a696e6760a81b606082015260800190565b6001600160a01b0386811682528516602082015260a0604082018190525f9061351190830186612dbf565b82810360608401526135238186612dbf565b905082810360808401526135378185612a71565b98975050505050505050565b5f60208284031215613553575f80fd5b81516110af81612a41565b5f60033d1115610d315760045f803e505f5160e01c90565b5f60443d10156135835790565b6040516003193d81016004833e81513d6001600160401b0381602484011181841117156135b257505050505090565b82850191508151818111156135ca5750505050505090565b843d87010160208285010111156135e45750505050505090565b6135f360208286010187612adc565b509095945050505050565b60208082526028908201527f455243313135353a204552433131353552656365697665722072656a656374656040820152676420746f6b656e7360c01b606082015260800190565b7f416363657373436f6e74726f6c3a206163636f756e742000000000000000000081525f613677601783018561337f565b7001034b99036b4b9b9b4b733903937b6329607d1b815261347b601182018561337f565b6001600160a01b03868116825285166020820152604081018490526060810183905260a0608082018190525f906136d490830184612a71565b979650505050505050565b80820281158282048414176106c1576106c1613430565b5f8161370457613704613430565b505f190190565b818103818111156106c1576106c1613430565b634e487b7160e01b5f52603160045260245ffdfe360894a13ba1a3210667c828492db98dca3e2076cc3735a920a3ca505d382bbc416464726573733a206c6f772d6c6576656c2064656c65676174652063616c6c206661696c6564a49807205ce4d355092ef5a8a18f56e8913cf4a201fbe287825b095693c21775a2646970667358221220ead2c231d715c7fcabe9aa43aedc0af153c8b532f4508e19ac4ea0dd16717f5364736f6c63430008190033",
  "immutableReferences": {
    "1352": [
      {
        "length": 32,
        "start": 2424
      },
      {
        "length": 32,
        "start": 2488
      },
      {
        "length": 32,
        "start": 2958
      },
      {
        "length": 32,
        "start": 3022
      },
      {
        "length": 32,
        "start": 3214
      }
    ]
  },
  "source": "// SPDX-License-Identifier: MIT\r\npragma solidity ^0.8.24;\r\n\r\nimport \"@openzeppelin/contracts-upgradeable/proxy/utils/Initializable.sol\"; //implements UUIP pattern for upgrades\r\nimport \"@openzeppelin/contracts-upgradeable/token/ERC1155/extensions/ERC1155PausableUpgradeable.sol\"; //implements pausable pattern for upgrades\r\nimport \"@openzeppelin/contracts-upgradeable/security/ReentrancyGuardUpgradeable.sol\"; //reentrancy guard - Upgradeable\r\nimport \"@openzeppelin/contracts-upgradeable/access/AccessControlEnumerableUpgradeable.sol\"; //implements RBAC for its current token - Upgradeable\r\nimport \"@openzeppelin/contracts-upgradeable/proxy/utils/UUPSUpgradeable.sol\"; //implements UUIP pattern for upgrades\r\nimport \"@openzeppelin/contracts-upgradeable/utils/introspection/ERC165Upgradeable.sol\"; //implements UUIP pattern for upgrades\r\n\r\nimport \"./INFT_DB.sol\"; //ERCPlatform Custom Interface, contracts should support this interface\r\n\r\n/**\r\n * @dev Standard INFT_DB decentralized database for custodial NFTs for customers.\r\n */\r\ncontract standardNFT_DB is\r\n    Initializable,\r\n    ERC165Upgradeable,\r\n    ERC1155PausableUpgradeable,\r\n    ReentrancyGuardUpgradeable,\r\n    AccessControlEnumerableUpgradeable,\r\n    UUPSUpgradeable,\r\n    INFT_DB\r\n{\r\n    //Access Control Roles declaration\r\n    bytes32 public constant ADMIN_ROLE = keccak256(\"ADMIN_ROLE\"); //has admin permissions on state-changing functions\r\n\r\n    string private _contractLevelMetadataURI; //See https://docs.opensea.io/docs/contract-level-metadata\r\n\r\n    //Metadata variables declaration\r\n    string public name;\r\n\r\n    //Mapping declaration\r\n    mapping(address => uint256[]) private tokenMappings; //Keep track of who minted what on the blockchain - TO BE FIXED\r\n\r\n    mapping(uint256 => string) private _tokenURIs; //tokenURI custom implementation\r\n    mapping(uint256 => bool) private tokenMinted; //Check if tokenID has already been minted\r\n    mapping(uint256 => bool) private isBurnable; //Check if tokenID is burnable\r\n    mapping(uint256 => bool) private isMutable; //Check if tokenID URI is mutable, if his URI can be changed at a later time\r\n\r\n    function initialize(\r\n        string memory contract_uri,\r\n        address[] memory admins,\r\n        string memory contract_name\r\n    ) public initializer {\r\n        //Dependencies initialization:\r\n        __ERC1155_init(contract_uri);\r\n        __ReentrancyGuard_init();\r\n\r\n        //Contract variables setup\r\n        _contractLevelMetadataURI = contract_uri;\r\n        name = contract_name;\r\n\r\n        _grantRole(DEFAULT_ADMIN_ROLE, msg.sender);\r\n        _grantRole(ADMIN_ROLE, msg.sender);\r\n        // This looks like an address but has an invalid checksum. Correct checksummed address: \"0xB312Dcf3Bd0BFEDf9c932C0f35fa1B3c3859e4a0\". If this is not used as an address, please prepend '00'. For more information please see https://docs.soliditylang.org/en/develop/types.html#address-literals\r\n\r\n        if (admins.length > 0) { //first admin assignation\r\n            for (uint256 i = 0; i < admins.length; i++) {\r\n                _grantRole(DEFAULT_ADMIN_ROLE, admins[i]);\r\n                _grantRole(ADMIN_ROLE, admins[i]);\r\n            }\r\n        }\r\n    }\r\n\r\n    /**\r\n     * @dev uri function override, allows to assign a custom URI for each token ID\r\n     *\r\n     * @param tokenId: uint, token id of which we want to get the URI set by _SetTokenURI\r\n     * @return URI: string, URI address of tokenId token\r\n     */\r\n    function uri(uint256 tokenId) public view override returns (string memory) {\r\n        require(exists(tokenId), \"ERC1155: query for non-existent object\");\r\n        return (_tokenURIs[tokenId]);\r\n    }\r\n\r\n\r\n    /**\r\n     * @dev Contract level metadata. See https://docs.opensea.io/docs/contract-level-metadata\r\n     *\r\n     * @return URI: string, URI address of contract metadata\r\n     */\r\n    function contractURI() public view returns (string memory) {\r\n        return _contractLevelMetadataURI;\r\n    }\r\n\r\n    function mintToken(\r\n        address to,\r\n        uint256 tokenId,\r\n        uint256 amount,\r\n        string memory contract_uri,\r\n        bool burnable,\r\n        bool nonMutable\r\n    ) public nonReentrant onlyRole(ADMIN_ROLE) {\r\n        if (exists(tokenId)) {\r\n            _mint(to, tokenId, amount, \"\");\r\n            tokenMappings[to].push(tokenId); //TO BE FIXED\r\n        }\r\n        //if it exist already, just mintToken the NFT\r\n        else {\r\n            _mint(to, tokenId, amount, \"\");\r\n            tokenMappings[to].push(tokenId); //TO BE FIXED\r\n            tokenMinted[tokenId] = true;\r\n            _setTokenUri(tokenId, contract_uri); //if token URI is empty, token is considered ERC20 like\r\n\r\n            //allows users to block current token burn. this is permanent.\r\n            if (burnable) {\r\n                isBurnable[tokenId] = true;\r\n            }\r\n\r\n            //allows customers to avoid tokenURI changes\r\n            if (!nonMutable) {\r\n                isMutable[tokenId] = false;\r\n            }\r\n        }\r\n    }\r\n\r\n    function burnToken(\r\n        address contract_address,\r\n        uint256 tokenId,\r\n        uint256 amount\r\n    ) public nonReentrant onlyRole(ADMIN_ROLE) {\r\n        require(exists(tokenId), \"Token not existent!\");\r\n        require(isBurnable[tokenId], \"Token is not burnable!\");\r\n\r\n        _burn(contract_address, tokenId, amount);\r\n        _tokenURIs[tokenId] = \"\"; //restore mapping to default value\r\n        tokenMinted[tokenId] = false;\r\n\r\n        //no need to emit event, ERC721 takes care of this with a Transfer to the 0 address by default\r\n    }\r\n\r\n    function getCurrentPrivilegedAccounts(string memory role)\r\n        public\r\n        view\r\n        onlyRole(DEFAULT_ADMIN_ROLE)\r\n        returns (address[] memory)\r\n    {\r\n        bytes32 role_bytes = keccak256(abi.encodePacked(role));\r\n\r\n        address[] memory members = new address[](\r\n            getRoleMemberCount(role_bytes)\r\n        );\r\n        for (uint256 i = 0; i < getRoleMemberCount(role_bytes); i++) {\r\n            members[i] = getRoleMember(role_bytes, i);\r\n        }\r\n\r\n        return members;\r\n    }\r\n\r\n    function exists(uint256 tokenId)\r\n        public\r\n        view\r\n        onlyRole(ADMIN_ROLE)\r\n        returns (bool)\r\n    {\r\n        return tokenMinted[tokenId];\r\n    }\r\n\r\n    function setTokenUri(uint256 tokenId, string memory token_uri)\r\n        public\r\n        onlyRole(ADMIN_ROLE)\r\n    {\r\n        if (isMutable[tokenId]) {\r\n            _setTokenUri(tokenId, token_uri);\r\n        } else {\r\n            if (hasRole(DEFAULT_ADMIN_ROLE, msg.sender)) {\r\n                _setTokenUri(tokenId, token_uri);\r\n            } else\r\n                revert(\"IERCPlatform: URI for specified tokenId is permanent!\");\r\n        }\r\n    }\r\n\r\n    /**\r\n        @dev Returns all tokens owned in any quantity by a specific address\r\n        @param who: The address to check\r\n\r\n        @return tokenId[]: Array[uint256] - tokenIds associated with who. Can be duplicated, so it is compulsory to clean the array off-chain.\r\n     */\r\n    function getTokenMappings(address who)\r\n        public\r\n        view\r\n        returns (uint256[] memory)\r\n    {\r\n        return tokenMappings[who];\r\n    }\r\n\r\n    /**\r\n     * @dev pausable public implementation, allows admins to block contract operation from an unpaused state.\r\n     *\r\n     */\r\n    function pause() public onlyRole(DEFAULT_ADMIN_ROLE) whenNotPaused {\r\n        _pause();\r\n    }\r\n\r\n    /**\r\n     * @dev pausable public implementation, allows admins to unblock contract operation from a paused state.\r\n     *\r\n     */\r\n    function unpause() public onlyRole(DEFAULT_ADMIN_ROLE) whenPaused {\r\n        _unpause();\r\n    }\r\n\r\n    function supportsInterface(bytes4 interfaceId)\r\n        public\r\n        view\r\n        override(\r\n            ERC1155Upgradeable,\r\n            AccessControlEnumerableUpgradeable,\r\n            ERC165Upgradeable\r\n        )\r\n        returns (bool)\r\n    {\r\n        return\r\n            interfaceId == type(INFT_DB).interfaceId || \r\n            super.supportsInterface(interfaceId);\r\n    }\r\n\r\n    \r\n    /**\r\n     * @dev Utility string comparation function. Allows to check if a and b are equal.\r\n     *\r\n     * @param a: string, the first string to compare\r\n     * @param b: string, the second string to compare\r\n     * @return equals: bool, says if a and b are equal\r\n     */\r\n    function compareStrings(string memory a, string memory b)\r\n        public\r\n        pure\r\n        returns (bool)\r\n    {\r\n        return keccak256(abi.encodePacked(a)) == keccak256(abi.encodePacked(b));\r\n    }\r\n\r\n    //PRIVATE AND INTERNAL UTILITY FUNCTIONS DECLARATION\r\n\r\n    function _setTokenUri(uint256 tokenId, string memory token_uri) private {\r\n        _tokenURIs[tokenId] = token_uri;\r\n        emit URI(uri(tokenId), tokenId);\r\n    }\r\n\r\n    /**\r\n     * @dev See {ERC1967-Proxy}\r\n     */\r\n    function _authorizeUpgrade(address newImplementation)\r\n        internal\r\n        override\r\n        onlyRole(DEFAULT_ADMIN_ROLE)\r\n    {}\r\n\r\n    \r\n}\r\n\r\n// /**\r\n//  * @dev public setURI implementation. Allows to change the ERC1155 contract URI on a later time.\r\n//  *\r\n//  * @param newuri: string, the new contract URI\r\n//  *\r\n//  */\r\n// function setURI(string memory newuri)\r\n//     public\r\n//     onlyRole(CONTRACT_METADATA_ROLE)\r\n// {\r\n//     _setURI(newuri);\r\n// }\r\n",
  "sourcePath": "D:\\Repositories\\inft-db\\contracts\\standardNFT_DB.sol",
  "compiler": {
    "name": "solc",
    "version": "0.8.25+commit.b61c2a91.Emscripten.clang"
  },
  "schemaVersion": "3.4.15",
  "updatedAt": "2024-03-20T20:13:11.676Z",
  "networkType": "ethereum",
  "devdoc": {
    "details": "Standard INFT_DB decentralized database for custodial NFTs for customers.",
    "events": {
      "AdminChanged(address,address)": {
        "details": "Emitted when the admin account has changed."
      },
      "ApprovalForAll(address,address,bool)": {
        "details": "Emitted when `account` grants or revokes permission to `operator` to transfer their tokens, according to `approved`."
      },
      "BeaconUpgraded(address)": {
        "details": "Emitted when the beacon is changed."
      },
      "Initialized(uint8)": {
        "details": "Triggered when the contract has been initialized or reinitialized."
      },
      "Paused(address)": {
        "details": "Emitted when the pause is triggered by `account`."
      },
      "RoleAdminChanged(bytes32,bytes32,bytes32)": {
        "details": "Emitted when `newAdminRole` is set as ``role``'s admin role, replacing `previousAdminRole` `DEFAULT_ADMIN_ROLE` is the starting admin for all roles, despite {RoleAdminChanged} not being emitted signaling this. _Available since v3.1._"
      },
      "RoleGranted(bytes32,address,address)": {
        "details": "Emitted when `account` is granted `role`. `sender` is the account that originated the contract call, an admin role bearer except when using {AccessControl-_setupRole}."
      },
      "RoleRevoked(bytes32,address,address)": {
        "details": "Emitted when `account` is revoked `role`. `sender` is the account that originated the contract call:   - if using `revokeRole`, it is the admin role bearer   - if using `renounceRole`, it is the role bearer (i.e. `account`)"
      },
      "TransferBatch(address,address,address,uint256[],uint256[])": {
        "details": "Equivalent to multiple {TransferSingle} events, where `operator`, `from` and `to` are the same for all transfers."
      },
      "TransferSingle(address,address,address,uint256,uint256)": {
        "details": "Emitted when `value` tokens of token type `id` are transferred from `from` to `to` by `operator`."
      },
      "URI(string,uint256)": {
        "details": "Emitted when the URI for token type `id` changes to `value`, if it is a non-programmatic URI. If an {URI} event was emitted for `id`, the standard https://eips.ethereum.org/EIPS/eip-1155#metadata-extensions[guarantees] that `value` will equal the value returned by {IERC1155MetadataURI-uri}."
      },
      "Unpaused(address)": {
        "details": "Emitted when the pause is lifted by `account`."
      },
      "Upgraded(address)": {
        "details": "Emitted when the implementation is upgraded."
      }
    },
    "kind": "dev",
    "methods": {
      "balanceOf(address,uint256)": {
        "details": "See {IERC1155-balanceOf}. Requirements: - `account` cannot be the zero address."
      },
      "balanceOfBatch(address[],uint256[])": {
        "details": "See {IERC1155-balanceOfBatch}. Requirements: - `accounts` and `ids` must have the same length."
      },
      "burnToken(address,uint256,uint256)": {
        "details": "token burn custom implementation. Allows to control which tokenId is burnable (by the mintToken function) and to effectively burn its instances from the blockchain.",
        "params": {
          "amount": ": uint, amount of tokenId we want to burn",
          "contract_address": ": address, of tokenId owner",
          "tokenId": ": uint, token id we want to burn"
        }
      },
      "compareStrings(string,string)": {
        "details": "Utility string comparation function. Allows to check if a and b are equal.",
        "params": {
          "a": ": string, the first string to compare",
          "b": ": string, the second string to compare"
        },
        "returns": {
          "_0": "equals: bool, says if a and b are equal"
        }
      },
      "contractURI()": {
        "details": "Contract level metadata. See https://docs.opensea.io/docs/contract-level-metadata",
        "returns": {
          "_0": "URI: string, URI address of contract metadata"
        }
      },
      "exists(uint256)": {
        "details": "Custom tokenID check implementation. Allow to check if a specific tokenId exist.",
        "params": {
          "tokenId": ": uint, token id of which we want to check the existence"
        },
        "returns": {
          "_0": "tokenExists: bool, says if token exist"
        }
      },
      "getCurrentPrivilegedAccounts(string)": {
        "details": "This function returns an array of addresses associated with custom \"role\" account Requirements: AccessControlEnumerable imported in custom contract",
        "params": {
          "role": ": string, role that will be converted in bytes of which we want to enumerate addresses"
        },
        "returns": {
          "_0": "addresses: address[], an array of addresses that are members of specific role"
        }
      },
      "getRoleAdmin(bytes32)": {
        "details": "Returns the admin role that controls `role`. See {grantRole} and {revokeRole}. To change a role's admin, use {_setRoleAdmin}."
      },
      "getRoleMember(bytes32,uint256)": {
        "details": "Returns one of the accounts that have `role`. `index` must be a value between 0 and {getRoleMemberCount}, non-inclusive. Role bearers are not sorted in any particular way, and their ordering may change at any point. WARNING: When using {getRoleMember} and {getRoleMemberCount}, make sure you perform all queries on the same block. See the following https://forum.openzeppelin.com/t/iterating-over-elements-on-enumerableset-in-openzeppelin-contracts/2296[forum post] for more information."
      },
      "getRoleMemberCount(bytes32)": {
        "details": "Returns the number of accounts that have `role`. Can be used together with {getRoleMember} to enumerate all bearers of a role."
      },
      "getTokenMappings(address)": {
        "details": "Returns all tokens owned in any quantity by a specific address",
        "params": {
          "who": ": The address to check"
        },
        "returns": {
          "_0": "tokenId[]: Array[uint256] - tokenIds associated with who. Can be duplicated, so it is compulsory to clean the array off-chain."
        }
      },
      "grantRole(bytes32,address)": {
        "details": "Grants `role` to `account`. If `account` had not been already granted `role`, emits a {RoleGranted} event. Requirements: - the caller must have ``role``'s admin role. May emit a {RoleGranted} event."
      },
      "hasRole(bytes32,address)": {
        "details": "Returns `true` if `account` has been granted `role`."
      },
      "isApprovedForAll(address,address)": {
        "details": "See {IERC1155-isApprovedForAll}."
      },
      "mintToken(address,uint256,uint256,string,bool,bool)": {
        "details": "custom Mint implementation. Allows to check for custom contract_uri and burnable tokens.",
        "params": {
          "amount": ": uint, amount of tokenId we want to mintToken",
          "burnable": ": bool, allows the user to burn token with the burnToken() function.",
          "contract_uri": ": string, URI we want to assign to tokenID, is set only if it's the first time minting the specific tokenId",
          "to": ": address, the target of our mintToken",
          "tokenId": ": uint, token id we want to mintToken (can be both existent or not)"
        }
      },
      "pause()": {
        "details": "pausable public implementation, allows admins to block contract operation from an unpaused state."
      },
      "paused()": {
        "details": "Returns true if the contract is paused, and false otherwise."
      },
      "proxiableUUID()": {
        "details": "Implementation of the ERC1822 {proxiableUUID} function. This returns the storage slot used by the implementation. It is used to validate the implementation's compatibility when performing an upgrade. IMPORTANT: A proxy pointing at a proxiable contract should not be considered proxiable itself, because this risks bricking a proxy that upgrades to it, by delegating to itself until out of gas. Thus it is critical that this function revert if invoked through a proxy. This is guaranteed by the `notDelegated` modifier."
      },
      "renounceRole(bytes32,address)": {
        "details": "Revokes `role` from the calling account. Roles are often managed via {grantRole} and {revokeRole}: this function's purpose is to provide a mechanism for accounts to lose their privileges if they are compromised (such as when a trusted device is misplaced). If the calling account had been revoked `role`, emits a {RoleRevoked} event. Requirements: - the caller must be `account`. May emit a {RoleRevoked} event."
      },
      "revokeRole(bytes32,address)": {
        "details": "Revokes `role` from `account`. If `account` had been granted `role`, emits a {RoleRevoked} event. Requirements: - the caller must have ``role``'s admin role. May emit a {RoleRevoked} event."
      },
      "safeBatchTransferFrom(address,address,uint256[],uint256[],bytes)": {
        "details": "See {IERC1155-safeBatchTransferFrom}."
      },
      "safeTransferFrom(address,address,uint256,uint256,bytes)": {
        "details": "See {IERC1155-safeTransferFrom}."
      },
      "setApprovalForAll(address,bool)": {
        "details": "See {IERC1155-setApprovalForAll}."
      },
      "setTokenUri(uint256,string)": {
        "details": "Custom _SetTokenURI ERC721 implementation. Allows URIs to be different for each tokenId",
        "params": {
          "tokenId": ": integer, the ID of which we want to change URI",
          "token_uri": ": string, valid internet URI reachable by the blockchain on which there's a JSON Stored following OpenSeas's metadata standards: https://docs.opensea.io/docs/metadata-standards"
        }
      },
      "unpause()": {
        "details": "pausable public implementation, allows admins to unblock contract operation from a paused state."
      },
      "upgradeTo(address)": {
        "custom:oz-upgrades-unsafe-allow-reachable": "delegatecall",
        "details": "Upgrade the implementation of the proxy to `newImplementation`. Calls {_authorizeUpgrade}. Emits an {Upgraded} event."
      },
      "upgradeToAndCall(address,bytes)": {
        "custom:oz-upgrades-unsafe-allow-reachable": "delegatecall",
        "details": "Upgrade the implementation of the proxy to `newImplementation`, and subsequently execute the function call encoded in `data`. Calls {_authorizeUpgrade}. Emits an {Upgraded} event."
      },
      "uri(uint256)": {
        "details": "uri function override, allows to assign a custom URI for each token ID",
        "params": {
          "tokenId": ": uint, token id of which we want to get the URI set by _SetTokenURI"
        },
        "returns": {
          "_0": "URI: string, URI address of tokenId token"
        }
      }
    },
    "stateVariables": {
      "name": {
        "details": "return custom collection name, for legacy purposes (eg. etherscan visualization)",
        "return": "name: string, contract collection name defined during construction",
        "returns": {
          "_0": "name: string, contract collection name defined during construction"
        }
      }
    },
    "version": 1
  },
  "userdoc": {
    "kind": "user",
    "methods": {},
    "version": 1
  }
}