{
  "contractName": "standardNFT_DB",
  "abi": [
    {
      "anonymous": false,
      "inputs": [
        {
          "indexed": false,
          "internalType": "address",
          "name": "previousAdmin",
          "type": "address"
        },
        {
          "indexed": false,
          "internalType": "address",
          "name": "newAdmin",
          "type": "address"
        }
      ],
      "name": "AdminChanged",
      "type": "event"
    },
    {
      "anonymous": false,
      "inputs": [
        {
          "indexed": true,
          "internalType": "address",
          "name": "account",
          "type": "address"
        },
        {
          "indexed": true,
          "internalType": "address",
          "name": "operator",
          "type": "address"
        },
        {
          "indexed": false,
          "internalType": "bool",
          "name": "approved",
          "type": "bool"
        }
      ],
      "name": "ApprovalForAll",
      "type": "event"
    },
    {
      "anonymous": false,
      "inputs": [
        {
          "indexed": true,
          "internalType": "address",
          "name": "beacon",
          "type": "address"
        }
      ],
      "name": "BeaconUpgraded",
      "type": "event"
    },
    {
      "anonymous": false,
      "inputs": [
        {
          "indexed": false,
          "internalType": "uint8",
          "name": "version",
          "type": "uint8"
        }
      ],
      "name": "Initialized",
      "type": "event"
    },
    {
      "anonymous": false,
      "inputs": [
        {
          "indexed": false,
          "internalType": "address",
          "name": "account",
          "type": "address"
        }
      ],
      "name": "Paused",
      "type": "event"
    },
    {
      "anonymous": false,
      "inputs": [
        {
          "indexed": true,
          "internalType": "bytes32",
          "name": "role",
          "type": "bytes32"
        },
        {
          "indexed": true,
          "internalType": "bytes32",
          "name": "previousAdminRole",
          "type": "bytes32"
        },
        {
          "indexed": true,
          "internalType": "bytes32",
          "name": "newAdminRole",
          "type": "bytes32"
        }
      ],
      "name": "RoleAdminChanged",
      "type": "event"
    },
    {
      "anonymous": false,
      "inputs": [
        {
          "indexed": true,
          "internalType": "bytes32",
          "name": "role",
          "type": "bytes32"
        },
        {
          "indexed": true,
          "internalType": "address",
          "name": "account",
          "type": "address"
        },
        {
          "indexed": true,
          "internalType": "address",
          "name": "sender",
          "type": "address"
        }
      ],
      "name": "RoleGranted",
      "type": "event"
    },
    {
      "anonymous": false,
      "inputs": [
        {
          "indexed": true,
          "internalType": "bytes32",
          "name": "role",
          "type": "bytes32"
        },
        {
          "indexed": true,
          "internalType": "address",
          "name": "account",
          "type": "address"
        },
        {
          "indexed": true,
          "internalType": "address",
          "name": "sender",
          "type": "address"
        }
      ],
      "name": "RoleRevoked",
      "type": "event"
    },
    {
      "anonymous": false,
      "inputs": [
        {
          "indexed": true,
          "internalType": "address",
          "name": "operator",
          "type": "address"
        },
        {
          "indexed": true,
          "internalType": "address",
          "name": "from",
          "type": "address"
        },
        {
          "indexed": true,
          "internalType": "address",
          "name": "to",
          "type": "address"
        },
        {
          "indexed": false,
          "internalType": "uint256[]",
          "name": "ids",
          "type": "uint256[]"
        },
        {
          "indexed": false,
          "internalType": "uint256[]",
          "name": "values",
          "type": "uint256[]"
        }
      ],
      "name": "TransferBatch",
      "type": "event"
    },
    {
      "anonymous": false,
      "inputs": [
        {
          "indexed": true,
          "internalType": "address",
          "name": "operator",
          "type": "address"
        },
        {
          "indexed": true,
          "internalType": "address",
          "name": "from",
          "type": "address"
        },
        {
          "indexed": true,
          "internalType": "address",
          "name": "to",
          "type": "address"
        },
        {
          "indexed": false,
          "internalType": "uint256",
          "name": "id",
          "type": "uint256"
        },
        {
          "indexed": false,
          "internalType": "uint256",
          "name": "value",
          "type": "uint256"
        }
      ],
      "name": "TransferSingle",
      "type": "event"
    },
    {
      "anonymous": false,
      "inputs": [
        {
          "indexed": false,
          "internalType": "string",
          "name": "value",
          "type": "string"
        },
        {
          "indexed": true,
          "internalType": "uint256",
          "name": "id",
          "type": "uint256"
        }
      ],
      "name": "URI",
      "type": "event"
    },
    {
      "anonymous": false,
      "inputs": [
        {
          "indexed": false,
          "internalType": "address",
          "name": "account",
          "type": "address"
        }
      ],
      "name": "Unpaused",
      "type": "event"
    },
    {
      "anonymous": false,
      "inputs": [
        {
          "indexed": true,
          "internalType": "address",
          "name": "implementation",
          "type": "address"
        }
      ],
      "name": "Upgraded",
      "type": "event"
    },
    {
      "inputs": [],
      "name": "ADMIN_ROLE",
      "outputs": [
        {
          "internalType": "bytes32",
          "name": "",
          "type": "bytes32"
        }
      ],
      "stateMutability": "view",
      "type": "function"
    },
    {
      "inputs": [],
      "name": "DEFAULT_ADMIN_ROLE",
      "outputs": [
        {
          "internalType": "bytes32",
          "name": "",
          "type": "bytes32"
        }
      ],
      "stateMutability": "view",
      "type": "function"
    },
    {
      "inputs": [
        {
          "internalType": "address",
          "name": "account",
          "type": "address"
        },
        {
          "internalType": "uint256",
          "name": "id",
          "type": "uint256"
        }
      ],
      "name": "balanceOf",
      "outputs": [
        {
          "internalType": "uint256",
          "name": "",
          "type": "uint256"
        }
      ],
      "stateMutability": "view",
      "type": "function"
    },
    {
      "inputs": [
        {
          "internalType": "address[]",
          "name": "accounts",
          "type": "address[]"
        },
        {
          "internalType": "uint256[]",
          "name": "ids",
          "type": "uint256[]"
        }
      ],
      "name": "balanceOfBatch",
      "outputs": [
        {
          "internalType": "uint256[]",
          "name": "",
          "type": "uint256[]"
        }
      ],
      "stateMutability": "view",
      "type": "function"
    },
    {
      "inputs": [
        {
          "internalType": "bytes32",
          "name": "role",
          "type": "bytes32"
        }
      ],
      "name": "getRoleAdmin",
      "outputs": [
        {
          "internalType": "bytes32",
          "name": "",
          "type": "bytes32"
        }
      ],
      "stateMutability": "view",
      "type": "function"
    },
    {
      "inputs": [
        {
          "internalType": "bytes32",
          "name": "role",
          "type": "bytes32"
        },
        {
          "internalType": "uint256",
          "name": "index",
          "type": "uint256"
        }
      ],
      "name": "getRoleMember",
      "outputs": [
        {
          "internalType": "address",
          "name": "",
          "type": "address"
        }
      ],
      "stateMutability": "view",
      "type": "function"
    },
    {
      "inputs": [
        {
          "internalType": "bytes32",
          "name": "role",
          "type": "bytes32"
        }
      ],
      "name": "getRoleMemberCount",
      "outputs": [
        {
          "internalType": "uint256",
          "name": "",
          "type": "uint256"
        }
      ],
      "stateMutability": "view",
      "type": "function"
    },
    {
      "inputs": [
        {
          "internalType": "bytes32",
          "name": "role",
          "type": "bytes32"
        },
        {
          "internalType": "address",
          "name": "account",
          "type": "address"
        }
      ],
      "name": "grantRole",
      "outputs": [],
      "stateMutability": "nonpayable",
      "type": "function"
    },
    {
      "inputs": [
        {
          "internalType": "bytes32",
          "name": "role",
          "type": "bytes32"
        },
        {
          "internalType": "address",
          "name": "account",
          "type": "address"
        }
      ],
      "name": "hasRole",
      "outputs": [
        {
          "internalType": "bool",
          "name": "",
          "type": "bool"
        }
      ],
      "stateMutability": "view",
      "type": "function"
    },
    {
      "inputs": [
        {
          "internalType": "address",
          "name": "account",
          "type": "address"
        },
        {
          "internalType": "address",
          "name": "operator",
          "type": "address"
        }
      ],
      "name": "isApprovedForAll",
      "outputs": [
        {
          "internalType": "bool",
          "name": "",
          "type": "bool"
        }
      ],
      "stateMutability": "view",
      "type": "function"
    },
    {
      "inputs": [],
      "name": "name",
      "outputs": [
        {
          "internalType": "string",
          "name": "",
          "type": "string"
        }
      ],
      "stateMutability": "view",
      "type": "function"
    },
    {
      "inputs": [],
      "name": "paused",
      "outputs": [
        {
          "internalType": "bool",
          "name": "",
          "type": "bool"
        }
      ],
      "stateMutability": "view",
      "type": "function"
    },
    {
      "inputs": [],
      "name": "proxiableUUID",
      "outputs": [
        {
          "internalType": "bytes32",
          "name": "",
          "type": "bytes32"
        }
      ],
      "stateMutability": "view",
      "type": "function"
    },
    {
      "inputs": [
        {
          "internalType": "bytes32",
          "name": "role",
          "type": "bytes32"
        },
        {
          "internalType": "address",
          "name": "account",
          "type": "address"
        }
      ],
      "name": "renounceRole",
      "outputs": [],
      "stateMutability": "nonpayable",
      "type": "function"
    },
    {
      "inputs": [
        {
          "internalType": "bytes32",
          "name": "role",
          "type": "bytes32"
        },
        {
          "internalType": "address",
          "name": "account",
          "type": "address"
        }
      ],
      "name": "revokeRole",
      "outputs": [],
      "stateMutability": "nonpayable",
      "type": "function"
    },
    {
      "inputs": [
        {
          "internalType": "address",
          "name": "from",
          "type": "address"
        },
        {
          "internalType": "address",
          "name": "to",
          "type": "address"
        },
        {
          "internalType": "uint256[]",
          "name": "ids",
          "type": "uint256[]"
        },
        {
          "internalType": "uint256[]",
          "name": "amounts",
          "type": "uint256[]"
        },
        {
          "internalType": "bytes",
          "name": "data",
          "type": "bytes"
        }
      ],
      "name": "safeBatchTransferFrom",
      "outputs": [],
      "stateMutability": "nonpayable",
      "type": "function"
    },
    {
      "inputs": [
        {
          "internalType": "address",
          "name": "from",
          "type": "address"
        },
        {
          "internalType": "address",
          "name": "to",
          "type": "address"
        },
        {
          "internalType": "uint256",
          "name": "id",
          "type": "uint256"
        },
        {
          "internalType": "uint256",
          "name": "amount",
          "type": "uint256"
        },
        {
          "internalType": "bytes",
          "name": "data",
          "type": "bytes"
        }
      ],
      "name": "safeTransferFrom",
      "outputs": [],
      "stateMutability": "nonpayable",
      "type": "function"
    },
    {
      "inputs": [
        {
          "internalType": "address",
          "name": "operator",
          "type": "address"
        },
        {
          "internalType": "bool",
          "name": "approved",
          "type": "bool"
        }
      ],
      "name": "setApprovalForAll",
      "outputs": [],
      "stateMutability": "nonpayable",
      "type": "function"
    },
    {
      "inputs": [
        {
          "internalType": "address",
          "name": "newImplementation",
          "type": "address"
        }
      ],
      "name": "upgradeTo",
      "outputs": [],
      "stateMutability": "nonpayable",
      "type": "function"
    },
    {
      "inputs": [
        {
          "internalType": "address",
          "name": "newImplementation",
          "type": "address"
        },
        {
          "internalType": "bytes",
          "name": "data",
          "type": "bytes"
        }
      ],
      "name": "upgradeToAndCall",
      "outputs": [],
      "stateMutability": "payable",
      "type": "function"
    },
    {
      "inputs": [
        {
          "internalType": "string",
          "name": "contract_uri",
          "type": "string"
        },
        {
          "internalType": "address[]",
          "name": "admins",
          "type": "address[]"
        },
        {
          "internalType": "string",
          "name": "contract_name",
          "type": "string"
        }
      ],
      "name": "initialize",
      "outputs": [],
      "stateMutability": "nonpayable",
      "type": "function"
    },
    {
      "inputs": [
        {
          "internalType": "uint256",
          "name": "tokenId",
          "type": "uint256"
        }
      ],
      "name": "uri",
      "outputs": [
        {
          "internalType": "string",
          "name": "",
          "type": "string"
        }
      ],
      "stateMutability": "view",
      "type": "function"
    },
    {
      "inputs": [],
      "name": "tokenURI",
      "outputs": [
        {
          "internalType": "string",
          "name": "",
          "type": "string"
        }
      ],
      "stateMutability": "view",
      "type": "function"
    },
    {
      "inputs": [
        {
          "internalType": "string",
          "name": "a",
          "type": "string"
        },
        {
          "internalType": "string",
          "name": "b",
          "type": "string"
        }
      ],
      "name": "compareStrings",
      "outputs": [
        {
          "internalType": "bool",
          "name": "",
          "type": "bool"
        }
      ],
      "stateMutability": "pure",
      "type": "function"
    },
    {
      "inputs": [],
      "name": "contractURI",
      "outputs": [
        {
          "internalType": "string",
          "name": "",
          "type": "string"
        }
      ],
      "stateMutability": "view",
      "type": "function"
    },
    {
      "inputs": [
        {
          "internalType": "address",
          "name": "to",
          "type": "address"
        },
        {
          "internalType": "uint256",
          "name": "tokenId",
          "type": "uint256"
        },
        {
          "internalType": "uint256",
          "name": "amount",
          "type": "uint256"
        },
        {
          "internalType": "string",
          "name": "contract_uri",
          "type": "string"
        },
        {
          "internalType": "bool",
          "name": "burnable",
          "type": "bool"
        },
        {
          "internalType": "bool",
          "name": "nonMutable",
          "type": "bool"
        }
      ],
      "name": "mintToken",
      "outputs": [],
      "stateMutability": "nonpayable",
      "type": "function"
    },
    {
      "inputs": [
        {
          "internalType": "address",
          "name": "contract_address",
          "type": "address"
        },
        {
          "internalType": "uint256",
          "name": "tokenId",
          "type": "uint256"
        },
        {
          "internalType": "uint256",
          "name": "amount",
          "type": "uint256"
        }
      ],
      "name": "burnToken",
      "outputs": [],
      "stateMutability": "nonpayable",
      "type": "function"
    },
    {
      "inputs": [
        {
          "internalType": "string",
          "name": "role",
          "type": "string"
        }
      ],
      "name": "getCurrentPrivilegedAccounts",
      "outputs": [
        {
          "internalType": "address[]",
          "name": "",
          "type": "address[]"
        }
      ],
      "stateMutability": "view",
      "type": "function"
    },
    {
      "inputs": [
        {
          "internalType": "uint256",
          "name": "tokenId",
          "type": "uint256"
        }
      ],
      "name": "exists",
      "outputs": [
        {
          "internalType": "bool",
          "name": "",
          "type": "bool"
        }
      ],
      "stateMutability": "view",
      "type": "function"
    },
    {
      "inputs": [
        {
          "internalType": "uint256",
          "name": "tokenId",
          "type": "uint256"
        },
        {
          "internalType": "string",
          "name": "token_uri",
          "type": "string"
        }
      ],
      "name": "setTokenUri",
      "outputs": [],
      "stateMutability": "nonpayable",
      "type": "function"
    },
    {
      "inputs": [],
      "name": "pause",
      "outputs": [],
      "stateMutability": "nonpayable",
      "type": "function"
    },
    {
      "inputs": [],
      "name": "unpause",
      "outputs": [],
      "stateMutability": "nonpayable",
      "type": "function"
    },
    {
      "inputs": [
        {
          "internalType": "bytes4",
          "name": "interfaceId",
          "type": "bytes4"
        }
      ],
      "name": "supportsInterface",
      "outputs": [
        {
          "internalType": "bool",
          "name": "",
          "type": "bool"
        }
      ],
      "stateMutability": "view",
      "type": "function"
    }
  ],
  "bytecode": "0x60a060405230608052348015610013575f80fd5b506080516137146100485f395f81816109590152818161099901528181610c0801528181610c480152610d0801526137145ff3fe6080604052600436106101e5575f3560e01c80635c975abb11610108578063a217fddf1161009d578063d547741f1161006d578063d547741f1461056b578063e8a3d48514610337578063e985e9c51461058a578063ed8c5938146105d1578063f242432a146105f0575f80fd5b8063a217fddf146104fb578063a22cb4651461050e578063bed34bba1461052d578063ca15c8731461054c575f80fd5b80638948dc45116100d85780638948dc451461045a5780639010d07c1461048657806391d14854146104bd578063989bc8af146104dc575f80fd5b80635c975abb146103f05780635f92c3a81461040757806375b238fc146104265780638456cb5914610446575f80fd5b80633659cfe61161017e5780634f1ef2861161014e5780634f1ef2861461038b5780634f558e791461039e57806352d1902d146103bd57806357f7789e146103d1575f80fd5b80633659cfe6146103185780633c130d90146103375780633f4ba83a1461034b5780634e1273f41461035f575f80fd5b8063248a9ca3116101b9578063248a9ca31461028a5780632eb2c2d6146102b95780632f2ff15d146102da57806336568abe146102f9575f80fd5b8062fdd58e146101e957806301ffc9a71461021b57806306fdde031461024a5780630e89341c1461026b575b5f80fd5b3480156101f4575f80fd5b50610208610203366004612919565b61060f565b6040519081526020015b60405180910390f35b348015610226575f80fd5b5061023a610235366004612956565b6106a8565b6040519015158152602001610212565b348015610255575f80fd5b5061025e6106cc565b60405161021291906129be565b348015610276575f80fd5b5061025e6102853660046129d0565b610759565b348015610295575f80fd5b506102086102a43660046129d0565b5f90815261012d602052604090206001015490565b3480156102c4575f80fd5b506102d86102d3366004612b26565b61085b565b005b3480156102e5575f80fd5b506102d86102f4366004612bc8565b6108a7565b348015610304575f80fd5b506102d8610313366004612bc8565b6108d1565b348015610323575f80fd5b506102d8610332366004612bf2565b61094f565b348015610342575f80fd5b5061025e610a2c565b348015610356575f80fd5b506102d8610abd565b34801561036a575f80fd5b5061037e610379366004612c75565b610ad7565b6040516102129190612d0d565b6102d8610399366004612d1f565b610bfe565b3480156103a9575f80fd5b5061023a6103b83660046129d0565b610cc9565b3480156103c8575f80fd5b50610208610cfc565b3480156103dc575f80fd5b506102d86103eb366004612d5f565b610dae565b3480156103fb575f80fd5b5060975460ff1661023a565b348015610412575f80fd5b506102d8610421366004612d8c565b610e65565b348015610431575f80fd5b506102085f805160206136bf83398151915281565b348015610451575f80fd5b506102d8610fe3565b348015610465575f80fd5b50610479610474366004612e0d565b610ffd565b6040516102129190612e3e565b348015610491575f80fd5b506104a56104a0366004612e8a565b6110e1565b6040516001600160a01b039091168152602001610212565b3480156104c8575f80fd5b5061023a6104d7366004612bc8565b611100565b3480156104e7575f80fd5b506102d86104f6366004612eb9565b61112b565b348015610506575f80fd5b506102085f81565b348015610519575f80fd5b506102d8610528366004612f34565b611203565b348015610538575f80fd5b5061023a610547366004612f5c565b61120e565b348015610557575f80fd5b506102086105663660046129d0565b611266565b348015610576575f80fd5b506102d8610585366004612bc8565b61127d565b348015610595575f80fd5b5061023a6105a4366004612fb1565b6001600160a01b039182165f90815260666020908152604080832093909416825291909152205460ff1690565b3480156105dc575f80fd5b506102d86105eb366004612fd9565b6112a2565b3480156105fb575f80fd5b506102d861060a366004613009565b6113b7565b5f6001600160a01b03831661067e5760405162461bcd60e51b815260206004820152602a60248201527f455243313135353a2061646472657373207a65726f206973206e6f742061207660448201526930b634b21037bbb732b960b11b60648201526084015b60405180910390fd5b505f8181526065602090815260408083206001600160a01b03861684529091529020545b92915050565b5f6001600160e01b031982166336b0bc2360e01b14806106a257506106a2826113fc565b6101fa80546106da90613068565b80601f016020809104026020016040519081016040528092919081815260200182805461070690613068565b80156107515780601f1061072857610100808354040283529160200191610751565b820191905f5260205f20905b81548152906001019060200180831161073457829003601f168201915b505050505081565b606061076482610cc9565b6107bf5760405162461bcd60e51b815260206004820152602660248201527f455243313135353a20717565727920666f72206e6f6e2d6578697374656e74206044820152651bd89a9958dd60d21b6064820152608401610675565b5f8281526101f66020526040902080546107d890613068565b80601f016020809104026020016040519081016040528092919081815260200182805461080490613068565b801561084f5780601f106108265761010080835404028352916020019161084f565b820191905f5260205f20905b81548152906001019060200180831161083257829003601f168201915b50505050509050919050565b6001600160a01b038516331480610877575061087785336105a4565b6108935760405162461bcd60e51b81526004016106759061309a565b6108a08585858585611420565b5050505050565b5f82815261012d60205260409020600101546108c281611601565b6108cc838361160b565b505050565b6001600160a01b03811633146109415760405162461bcd60e51b815260206004820152602f60248201527f416363657373436f6e74726f6c3a2063616e206f6e6c792072656e6f756e636560448201526e103937b632b9903337b91039b2b63360891b6064820152608401610675565b61094b828261162d565b5050565b6001600160a01b037f00000000000000000000000000000000000000000000000000000000000000001630036109975760405162461bcd60e51b8152600401610675906130e8565b7f00000000000000000000000000000000000000000000000000000000000000006001600160a01b03166109df5f80516020613678833981519152546001600160a01b031690565b6001600160a01b031614610a055760405162461bcd60e51b815260040161067590613134565b610a0e8161164f565b604080515f80825260208201909252610a2991839190611659565b50565b60606101f58054610a3c90613068565b80601f0160208091040260200160405190810160405280929190818152602001828054610a6890613068565b8015610ab35780601f10610a8a57610100808354040283529160200191610ab3565b820191905f5260205f20905b815481529060010190602001808311610a9657829003601f168201915b5050505050905090565b5f610ac781611601565b610acf6117c3565b610a2961180e565b60608151835114610b3c5760405162461bcd60e51b815260206004820152602960248201527f455243313135353a206163636f756e747320616e6420696473206c656e677468604482015268040dad2e6dac2e8c6d60bb1b6064820152608401610675565b5f83516001600160401b03811115610b5657610b566129e7565b604051908082528060200260200182016040528015610b7f578160200160208202803683370190505b5090505f5b8451811015610bf657610bc9858281518110610ba257610ba2613180565b6020026020010151858381518110610bbc57610bbc613180565b602002602001015161060f565b828281518110610bdb57610bdb613180565b6020908102919091010152610bef816131a8565b9050610b84565b509392505050565b6001600160a01b037f0000000000000000000000000000000000000000000000000000000000000000163003610c465760405162461bcd60e51b8152600401610675906130e8565b7f00000000000000000000000000000000000000000000000000000000000000006001600160a01b0316610c8e5f80516020613678833981519152546001600160a01b031690565b6001600160a01b031614610cb45760405162461bcd60e51b815260040161067590613134565b610cbd8261164f565b61094b82826001611659565b5f5f805160206136bf833981519152610ce181611601565b5f8381526101f7602052604090205460ff1691505b50919050565b5f306001600160a01b037f00000000000000000000000000000000000000000000000000000000000000001614610d9b5760405162461bcd60e51b815260206004820152603860248201527f555550535570677261646561626c653a206d757374206e6f742062652063616c60448201527f6c6564207468726f7567682064656c656761746563616c6c00000000000000006064820152608401610675565b505f805160206136788339815191525b90565b5f805160206136bf833981519152610dc581611601565b5f8381526101f9602052604090205460ff1615610de6576108cc8383611860565b610df05f33611100565b15610dff576108cc8383611860565b60405162461bcd60e51b815260206004820152603560248201527f49455243506c6174666f726d3a2055524920666f722073706563696669656420604482015274746f6b656e4964206973207065726d616e656e742160581b6064820152608401610675565b5f54610100900460ff1615808015610e8357505f54600160ff909116105b80610e9c5750303b158015610e9c57505f5460ff166001145b610eff5760405162461bcd60e51b815260206004820152602e60248201527f496e697469616c697a61626c653a20636f6e747261637420697320616c72656160448201526d191e481a5b9a5d1a585b1a5e995960921b6064820152608401610675565b5f805460ff191660011790558015610f20575f805461ff0019166101001790555b610f29846118bd565b610f316118ec565b6101f5610f3e8582613205565b506101fa610f4c8382613205565b50825115610f98575f5b8351811015610f9657610f845f801b858381518110610f7757610f77613180565b602002602001015161160b565b80610f8e816131a8565b915050610f56565b505b8015610fdd575f805461ff0019169055604051600181527f7f26b83ff96e1f2b6a682f133852f6798a09c465da95921460cefb38474024989060200160405180910390a15b50505050565b5f610fed81611601565b610ff561191a565b610a29611960565b60605f61100981611601565b5f8360405160200161101b91906132c0565b6040516020818303038152906040528051906020012090505f61103d82611266565b6001600160401b03811115611054576110546129e7565b60405190808252806020026020018201604052801561107d578160200160208202803683370190505b5090505f5b61108b83611266565b8110156110d85761109c83826110e1565b8282815181106110ae576110ae613180565b6001600160a01b0390921660209283029190910190910152806110d0816131a8565b915050611082565b50949350505050565b5f82815261015f602052604081206110f9908361199d565b9392505050565b5f91825261012d602090815260408084206001600160a01b0393909316845291905290205460ff1690565b6111336119a8565b5f805160206136bf83398151915261114a81611601565b61115386610cc9565b156111775761117287878760405180602001604052805f815250611a01565b6111f0565b61119187878760405180602001604052805f815250611a01565b5f8681526101f760205260409020805460ff191660011790556111b48685611860565b82156111d4575f8681526101f860205260409020805460ff191660011790555b816111f0575f8681526101f960205260409020805460ff191690555b506111fb600160fb55565b505050505050565b61094b338383611b27565b5f8160405160200161122091906132c0565b604051602081830303815290604052805190602001208360405160200161124791906132c0565b6040516020818303038152906040528051906020012014905092915050565b5f81815261015f602052604081206106a290611c06565b5f82815261012d602052604090206001015461129881611601565b6108cc838361162d565b6112aa6119a8565b5f805160206136bf8339815191526112c181611601565b6112ca83610cc9565b61130c5760405162461bcd60e51b8152602060048201526013602482015272546f6b656e206e6f74206578697374656e742160681b6044820152606401610675565b5f8381526101f8602052604090205460ff166113635760405162461bcd60e51b8152602060048201526016602482015275546f6b656e206973206e6f74206275726e61626c652160501b6044820152606401610675565b61136e848484611c0f565b60408051602080820183525f8083528681526101f690915291909120906113959082613205565b50505f8281526101f760205260409020805460ff191690556108cc600160fb55565b6001600160a01b0385163314806113d357506113d385336105a4565b6113ef5760405162461bcd60e51b81526004016106759061309a565b6108a08585858585611d9c565b5f6001600160e01b03198216635a05180f60e01b14806106a257506106a282611ed4565b81518351146114825760405162461bcd60e51b815260206004820152602860248201527f455243313135353a2069647320616e6420616d6f756e7473206c656e677468206044820152670dad2e6dac2e8c6d60c31b6064820152608401610675565b6001600160a01b0384166114a85760405162461bcd60e51b8152600401610675906132db565b336114b7818787878787611ef8565b5f5b845181101561159b575f8582815181106114d5576114d5613180565b602002602001015190505f8583815181106114f2576114f2613180565b6020908102919091018101515f8481526065835260408082206001600160a01b038e1683529093529190912054909150818110156115425760405162461bcd60e51b815260040161067590613320565b5f8381526065602090815260408083206001600160a01b038e8116855292528083208585039055908b1682528120805484929061158090849061336a565b9250508190555050505080611594906131a8565b90506114b9565b50846001600160a01b0316866001600160a01b0316826001600160a01b03167f4a39dc06d4c0dbc64b70af90fd698a233a518aa5d07e595d983b8c0526c8f7fb87876040516115eb92919061337d565b60405180910390a46111fb818787878787611f60565b610a2981336120ba565b6116158282612113565b5f82815261015f602052604090206108cc9082612199565b61163782826121ad565b5f82815261015f602052604090206108cc9082612214565b5f61094b81611601565b7f4910fdfa16fed3260ed0e7147f7cc6da11a60208b5b9406d12a635614ffd91435460ff161561168c576108cc83612228565b826001600160a01b03166352d1902d6040518163ffffffff1660e01b8152600401602060405180830381865afa9250505080156116e6575060408051601f3d908101601f191682019092526116e3918101906133aa565b60015b6117495760405162461bcd60e51b815260206004820152602e60248201527f45524331393637557067726164653a206e657720696d706c656d656e7461746960448201526d6f6e206973206e6f74205555505360901b6064820152608401610675565b5f8051602061367883398151915281146117b75760405162461bcd60e51b815260206004820152602960248201527f45524331393637557067726164653a20756e737570706f727465642070726f786044820152681a58589b195555525160ba1b6064820152608401610675565b506108cc8383836122c3565b60975460ff1661180c5760405162461bcd60e51b815260206004820152601460248201527314185d5cd8589b194e881b9bdd081c185d5cd95960621b6044820152606401610675565b565b6118166117c3565b6097805460ff191690557f5db9ee0a495bf2e6ff9c91a7834c1ba4fdd244a5e8aa4e537bd38aeae4b073aa335b6040516001600160a01b03909116815260200160405180910390a1565b5f8281526101f6602052604090206118788282613205565b50817f6bb7ff708619ba0610cba295a58592e0451dee2622938c8755667688daf3529b6118a484610759565b6040516118b191906129be565b60405180910390a25050565b5f54610100900460ff166118e35760405162461bcd60e51b8152600401610675906133c1565b610a29816122e7565b5f54610100900460ff166119125760405162461bcd60e51b8152600401610675906133c1565b61180c612316565b60975460ff161561180c5760405162461bcd60e51b815260206004820152601060248201526f14185d5cd8589b194e881c185d5cd95960821b6044820152606401610675565b61196861191a565b6097805460ff191660011790557f62e78cea01bee320cd4e420270b5ea74000d11b0c9f74754ebdbfc544b05a2586118433390565b5f6110f9838361233c565b600260fb54036119fa5760405162461bcd60e51b815260206004820152601f60248201527f5265656e7472616e637947756172643a207265656e7472616e742063616c6c006044820152606401610675565b600260fb55565b6001600160a01b038416611a615760405162461bcd60e51b815260206004820152602160248201527f455243313135353a206d696e7420746f20746865207a65726f206164647265736044820152607360f81b6064820152608401610675565b335f611a6c85612362565b90505f611a7885612362565b9050611a88835f89858589611ef8565b5f8681526065602090815260408083206001600160a01b038b16845290915281208054879290611ab990849061336a565b909155505060408051878152602081018790526001600160a01b03808a16925f92918716917fc3d58168c5ae7397731d063d5bbf3d657854427343f4c083240f7aacaa2d0f62910160405180910390a4611b17835f898989896123ab565b50505050505050565b600160fb55565b816001600160a01b0316836001600160a01b031603611b9a5760405162461bcd60e51b815260206004820152602960248201527f455243313135353a2073657474696e6720617070726f76616c20737461747573604482015268103337b91039b2b63360b91b6064820152608401610675565b6001600160a01b038381165f81815260666020908152604080832094871680845294825291829020805460ff191686151590811790915591519182527f17307eab39ab6107e8899845ad3d59bd9653f200f220920489ca2b5937696c31910160405180910390a3505050565b5f6106a2825490565b6001600160a01b038316611c715760405162461bcd60e51b815260206004820152602360248201527f455243313135353a206275726e2066726f6d20746865207a65726f206164647260448201526265737360e81b6064820152608401610675565b335f611c7c84612362565b90505f611c8884612362565b9050611ca683875f858560405180602001604052805f815250611ef8565b5f8581526065602090815260408083206001600160a01b038a16845290915290205484811015611d245760405162461bcd60e51b8152602060048201526024808201527f455243313135353a206275726e20616d6f756e7420657863656564732062616c604482015263616e636560e01b6064820152608401610675565b5f8681526065602090815260408083206001600160a01b038b81168086529184528285208a8703905582518b81529384018a90529092908816917fc3d58168c5ae7397731d063d5bbf3d657854427343f4c083240f7aacaa2d0f62910160405180910390a460408051602081019091525f9052611b17565b6001600160a01b038416611dc25760405162461bcd60e51b8152600401610675906132db565b335f611dcd85612362565b90505f611dd985612362565b9050611de9838989858589611ef8565b5f8681526065602090815260408083206001600160a01b038c16845290915290205485811015611e2b5760405162461bcd60e51b815260040161067590613320565b5f8781526065602090815260408083206001600160a01b038d8116855292528083208985039055908a16825281208054889290611e6990849061336a565b909155505060408051888152602081018890526001600160a01b03808b16928c821692918816917fc3d58168c5ae7397731d063d5bbf3d657854427343f4c083240f7aacaa2d0f62910160405180910390a4611ec9848a8a8a8a8a6123ab565b505050505050505050565b5f6001600160e01b03198216637965db0b60e01b14806106a257506106a282612465565b60975460ff16156111fb5760405162461bcd60e51b815260206004820152602c60248201527f455243313135355061757361626c653a20746f6b656e207472616e736665722060448201526b1dda1a5b19481c185d5cd95960a21b6064820152608401610675565b6001600160a01b0384163b156111fb5760405163bc197c8160e01b81526001600160a01b0385169063bc197c8190611fa4908990899088908890889060040161340c565b6020604051808303815f875af1925050508015611fde575060408051601f3d908101601f19168201909252611fdb91810190613469565b60015b61208a57611fea613484565b806308c379a0036120235750611ffe61349c565b806120095750612025565b8060405162461bcd60e51b815260040161067591906129be565b505b60405162461bcd60e51b815260206004820152603460248201527f455243313135353a207472616e7366657220746f206e6f6e2d455243313135356044820152732932b1b2b4bb32b91034b6b83632b6b2b73a32b960611b6064820152608401610675565b6001600160e01b0319811663bc197c8160e01b14611b175760405162461bcd60e51b815260040161067590613524565b6120c48282611100565b61094b576120d1816124b4565b6120dc8360206124c6565b6040516020016120ed92919061356c565b60408051601f198184030181529082905262461bcd60e51b8252610675916004016129be565b61211d8282611100565b61094b575f82815261012d602090815260408083206001600160a01b03851684529091529020805460ff191660011790556121553390565b6001600160a01b0316816001600160a01b0316837f2f8788117e7eff1d82e926ec794901d17c78024a50270940304540a733656f0d60405160405180910390a45050565b5f6110f9836001600160a01b03841661265b565b6121b78282611100565b1561094b575f82815261012d602090815260408083206001600160a01b0385168085529252808320805460ff1916905551339285917ff6391f5c32d9c69d2a47ea670b442974b53935d1edc7fd64eb21e047a839171b9190a45050565b5f6110f9836001600160a01b0384166126a7565b6001600160a01b0381163b6122955760405162461bcd60e51b815260206004820152602d60248201527f455243313936373a206e657720696d706c656d656e746174696f6e206973206e60448201526c1bdd08184818dbdb9d1c9858dd609a1b6064820152608401610675565b5f8051602061367883398151915280546001600160a01b0319166001600160a01b0392909216919091179055565b6122cc8361278a565b5f825111806122d85750805b156108cc57610fdd83836127c9565b5f54610100900460ff1661230d5760405162461bcd60e51b8152600401610675906133c1565b610a29816127ee565b5f54610100900460ff16611b205760405162461bcd60e51b8152600401610675906133c1565b5f825f01828154811061235157612351613180565b905f5260205f200154905092915050565b6040805160018082528183019092526060915f91906020808301908036833701905050905082815f8151811061239a5761239a613180565b602090810291909101015292915050565b6001600160a01b0384163b156111fb5760405163f23a6e6160e01b81526001600160a01b0385169063f23a6e61906123ef90899089908890889088906004016135e0565b6020604051808303815f875af1925050508015612429575060408051601f3d908101601f1916820190925261242691810190613469565b60015b61243557611fea613484565b6001600160e01b0319811663f23a6e6160e01b14611b175760405162461bcd60e51b815260040161067590613524565b5f6001600160e01b03198216636cdb3d1360e11b148061249557506001600160e01b031982166303a24d0760e21b145b806106a257506301ffc9a760e01b6001600160e01b03198316146106a2565b60606106a26001600160a01b03831660145b60605f6124d4836002613624565b6124df90600261336a565b6001600160401b038111156124f6576124f66129e7565b6040519080825280601f01601f191660200182016040528015612520576020820181803683370190505b509050600360fc1b815f8151811061253a5761253a613180565b60200101906001600160f81b03191690815f1a905350600f60fb1b8160018151811061256857612568613180565b60200101906001600160f81b03191690815f1a9053505f61258a846002613624565b61259590600161336a565b90505b600181111561260c576f181899199a1a9b1b9c1cb0b131b232b360811b85600f16601081106125c9576125c9613180565b1a60f81b8282815181106125df576125df613180565b60200101906001600160f81b03191690815f1a90535060049490941c936126058161363b565b9050612598565b5083156110f95760405162461bcd60e51b815260206004820181905260248201527f537472696e67733a20686578206c656e67746820696e73756666696369656e746044820152606401610675565b5f8181526001830160205260408120546126a057508154600181810184555f8481526020808220909301849055845484825282860190935260409020919091556106a2565b505f6106a2565b5f8181526001830160205260408120548015612781575f6126c9600183613650565b85549091505f906126dc90600190613650565b905081811461273b575f865f0182815481106126fa576126fa613180565b905f5260205f200154905080875f01848154811061271a5761271a613180565b5f918252602080832090910192909255918252600188019052604090208390555b855486908061274c5761274c613663565b600190038181905f5260205f20015f90559055856001015f8681526020019081526020015f205f9055600193505050506106a2565b5f9150506106a2565b61279381612228565b6040516001600160a01b038216907fbc7cd75a20ee27fd9adebab32041f755214dbc6bffa90cc0225b39da2e5c2d3b905f90a250565b60606110f98383604051806060016040528060278152602001613698602791396127fa565b606761094b8282613205565b60605f80856001600160a01b03168560405161281691906132c0565b5f60405180830381855af49150503d805f811461284e576040519150601f19603f3d011682016040523d82523d5f602084013e612853565b606091505b50915091506128648683838761286e565b9695505050505050565b606083156128dc5782515f036128d5576001600160a01b0385163b6128d55760405162461bcd60e51b815260206004820152601d60248201527f416464726573733a2063616c6c20746f206e6f6e2d636f6e74726163740000006044820152606401610675565b50816128e6565b6128e683836128ee565b949350505050565b8151156120095781518083602001fd5b80356001600160a01b0381168114612914575f80fd5b919050565b5f806040838503121561292a575f80fd5b612933836128fe565b946020939093013593505050565b6001600160e01b031981168114610a29575f80fd5b5f60208284031215612966575f80fd5b81356110f981612941565b5f5b8381101561298b578181015183820152602001612973565b50505f910152565b5f81518084526129aa816020860160208601612971565b601f01601f19169290920160200192915050565b602081525f6110f96020830184612993565b5f602082840312156129e0575f80fd5b5035919050565b634e487b7160e01b5f52604160045260245ffd5b601f8201601f191681016001600160401b0381118282101715612a2057612a206129e7565b6040525050565b5f6001600160401b03821115612a3f57612a3f6129e7565b5060051b60200190565b5f82601f830112612a58575f80fd5b81356020612a6582612a27565b604051612a7282826129fb565b83815260059390931b8501820192828101915086841115612a91575f80fd5b8286015b84811015612aac5780358352918301918301612a95565b509695505050505050565b5f82601f830112612ac6575f80fd5b81356001600160401b03811115612adf57612adf6129e7565b604051612af6601f8301601f1916602001826129fb565b818152846020838601011115612b0a575f80fd5b816020850160208301375f918101602001919091529392505050565b5f805f805f60a08688031215612b3a575f80fd5b612b43866128fe565b9450612b51602087016128fe565b935060408601356001600160401b0380821115612b6c575f80fd5b612b7889838a01612a49565b94506060880135915080821115612b8d575f80fd5b612b9989838a01612a49565b93506080880135915080821115612bae575f80fd5b50612bbb88828901612ab7565b9150509295509295909350565b5f8060408385031215612bd9575f80fd5b82359150612be9602084016128fe565b90509250929050565b5f60208284031215612c02575f80fd5b6110f9826128fe565b5f82601f830112612c1a575f80fd5b81356020612c2782612a27565b604051612c3482826129fb565b83815260059390931b8501820192828101915086841115612c53575f80fd5b8286015b84811015612aac57612c68816128fe565b8352918301918301612c57565b5f8060408385031215612c86575f80fd5b82356001600160401b0380821115612c9c575f80fd5b612ca886838701612c0b565b93506020850135915080821115612cbd575f80fd5b50612cca85828601612a49565b9150509250929050565b5f8151808452602080850194508084015f5b83811015612d0257815187529582019590820190600101612ce6565b509495945050505050565b602081525f6110f96020830184612cd4565b5f8060408385031215612d30575f80fd5b612d39836128fe565b915060208301356001600160401b03811115612d53575f80fd5b612cca85828601612ab7565b5f8060408385031215612d70575f80fd5b8235915060208301356001600160401b03811115612d53575f80fd5b5f805f60608486031215612d9e575f80fd5b83356001600160401b0380821115612db4575f80fd5b612dc087838801612ab7565b94506020860135915080821115612dd5575f80fd5b612de187838801612c0b565b93506040860135915080821115612df6575f80fd5b50612e0386828701612ab7565b9150509250925092565b5f60208284031215612e1d575f80fd5b81356001600160401b03811115612e32575f80fd5b6128e684828501612ab7565b602080825282518282018190525f9190848201906040850190845b81811015612e7e5783516001600160a01b031683529284019291840191600101612e59565b50909695505050505050565b5f8060408385031215612e9b575f80fd5b50508035926020909101359150565b80358015158114612914575f80fd5b5f805f805f8060c08789031215612ece575f80fd5b612ed7876128fe565b9550602087013594506040870135935060608701356001600160401b03811115612eff575f80fd5b612f0b89828a01612ab7565b935050612f1a60808801612eaa565b9150612f2860a08801612eaa565b90509295509295509295565b5f8060408385031215612f45575f80fd5b612f4e836128fe565b9150612be960208401612eaa565b5f8060408385031215612f6d575f80fd5b82356001600160401b0380821115612f83575f80fd5b612f8f86838701612ab7565b93506020850135915080821115612fa4575f80fd5b50612cca85828601612ab7565b5f8060408385031215612fc2575f80fd5b612fcb836128fe565b9150612be9602084016128fe565b5f805f60608486031215612feb575f80fd5b612ff4846128fe565b95602085013595506040909401359392505050565b5f805f805f60a0868803121561301d575f80fd5b613026866128fe565b9450613034602087016128fe565b9350604086013592506060860135915060808601356001600160401b0381111561305c575f80fd5b612bbb88828901612ab7565b600181811c9082168061307c57607f821691505b602082108103610cf657634e487b7160e01b5f52602260045260245ffd5b6020808252602e908201527f455243313135353a2063616c6c6572206973206e6f7420746f6b656e206f776e60408201526d195c881bdc88185c1c1c9bdd995960921b606082015260800190565b6020808252602c908201527f46756e6374696f6e206d7573742062652063616c6c6564207468726f7567682060408201526b19195b1959d85d1958d85b1b60a21b606082015260800190565b6020808252602c908201527f46756e6374696f6e206d7573742062652063616c6c6564207468726f7567682060408201526b6163746976652070726f787960a01b606082015260800190565b634e487b7160e01b5f52603260045260245ffd5b634e487b7160e01b5f52601160045260245ffd5b5f600182016131b9576131b9613194565b5060010190565b601f8211156108cc575f81815260208120601f850160051c810160208610156131e65750805b601f850160051c820191505b818110156111fb578281556001016131f2565b81516001600160401b0381111561321e5761321e6129e7565b6132328161322c8454613068565b846131c0565b602080601f831160018114613265575f841561324e5750858301515b5f19600386901b1c1916600185901b1785556111fb565b5f85815260208120601f198616915b8281101561329357888601518255948401946001909101908401613274565b50858210156132b057878501515f19600388901b60f8161c191681555b5050505050600190811b01905550565b5f82516132d1818460208701612971565b9190910192915050565b60208082526025908201527f455243313135353a207472616e7366657220746f20746865207a65726f206164604082015264647265737360d81b606082015260800190565b6020808252602a908201527f455243313135353a20696e73756666696369656e742062616c616e636520666f60408201526939103a3930b739b332b960b11b606082015260800190565b808201808211156106a2576106a2613194565b604081525f61338f6040830185612cd4565b82810360208401526133a18185612cd4565b95945050505050565b5f602082840312156133ba575f80fd5b5051919050565b6020808252602b908201527f496e697469616c697a61626c653a20636f6e7472616374206973206e6f74206960408201526a6e697469616c697a696e6760a81b606082015260800190565b6001600160a01b0386811682528516602082015260a0604082018190525f9061343790830186612cd4565b82810360608401526134498186612cd4565b9050828103608084015261345d8185612993565b98975050505050505050565b5f60208284031215613479575f80fd5b81516110f981612941565b5f60033d1115610dab5760045f803e505f5160e01c90565b5f60443d10156134a95790565b6040516003193d81016004833e81513d6001600160401b0381602484011181841117156134d857505050505090565b82850191508151818111156134f05750505050505090565b843d870101602082850101111561350a5750505050505090565b613519602082860101876129fb565b509095945050505050565b60208082526028908201527f455243313135353a204552433131353552656365697665722072656a656374656040820152676420746f6b656e7360c01b606082015260800190565b7f416363657373436f6e74726f6c3a206163636f756e742000000000000000000081525f83516135a3816017850160208801612971565b7001034b99036b4b9b9b4b733903937b6329607d1b60179184019182015283516135d4816028840160208801612971565b01602801949350505050565b6001600160a01b03868116825285166020820152604081018490526060810183905260a0608082018190525f9061361990830184612993565b979650505050505050565b80820281158282048414176106a2576106a2613194565b5f8161364957613649613194565b505f190190565b818103818111156106a2576106a2613194565b634e487b7160e01b5f52603160045260245ffdfe360894a13ba1a3210667c828492db98dca3e2076cc3735a920a3ca505d382bbc416464726573733a206c6f772d6c6576656c2064656c65676174652063616c6c206661696c6564a49807205ce4d355092ef5a8a18f56e8913cf4a201fbe287825b095693c21775a2646970667358221220d5a2f6a74a87342eeeda2492e6c7bed0e615efb90ac9b19b354b6022886a087564736f6c63430008150033",
  "immutableReferences": {
    "1352": [
      {
        "length": 32,
        "start": 2393
      },
      {
        "length": 32,
        "start": 2457
      },
      {
        "length": 32,
        "start": 3080
      },
      {
        "length": 32,
        "start": 3144
      },
      {
        "length": 32,
        "start": 3336
      }
    ]
  },
  "source": "// SPDX-License-Identifier: MIT\r\npragma solidity >=0.8.21;\r\n\r\nimport \"@openzeppelin/contracts-upgradeable/proxy/utils/Initializable.sol\"; //implements UUIP pattern for upgrades\r\nimport \"@openzeppelin/contracts-upgradeable/token/ERC1155/extensions/ERC1155PausableUpgradeable.sol\"; //implements pausable pattern for upgrades\r\nimport \"@openzeppelin/contracts-upgradeable/security/ReentrancyGuardUpgradeable.sol\"; //reentrancy guard - Upgradeable\r\nimport \"@openzeppelin/contracts-upgradeable/access/AccessControlEnumerableUpgradeable.sol\"; //implements RBAC for its current token - Upgradeable\r\nimport \"@openzeppelin/contracts-upgradeable/proxy/utils/UUPSUpgradeable.sol\"; //implements UUIP pattern for upgrades\r\nimport \"@openzeppelin/contracts-upgradeable/utils/introspection/ERC165Upgradeable.sol\"; //implements UUIP pattern for upgrades\r\n\r\nimport \"./INFT_DB.sol\"; //ERCPlatform Custom Interface, contracts should support interface this\r\n\r\n/**\r\n * @dev Standard INFT_DB decentralized database for custodial NFTs for customers.\r\n */\r\ncontract standardNFT_DB is\r\n    Initializable,\r\n    ERC165Upgradeable,\r\n    ERC1155PausableUpgradeable,\r\n    ReentrancyGuardUpgradeable,\r\n    AccessControlEnumerableUpgradeable,\r\n    UUPSUpgradeable,\r\n    INFT_DB\r\n{\r\n    //Access Control Roles declaration\r\n    bytes32 public constant ADMIN_ROLE = keccak256(\"ADMIN_ROLE\"); //has admin permissions on state-changing functions\r\n\r\n    string private _contractLevelMetadataURI; //See https://docs.opensea.io/docs/contract-level-metadata\r\n\r\n    mapping(uint256 => string) private _tokenURIs; //tokenURI custom implementation\r\n\r\n    mapping(uint256 => bool) private tokenMinted; //Check if tokenID has already been minted\r\n    mapping(uint256 => bool) private isBurnable; //Check if tokenID is burnable\r\n    mapping(uint256 => bool) private isMutable; //Check if tokenID URI is mutable, if his URI can be changed at a later time\r\n\r\n    //Metadata variables declaration\r\n    string public name;\r\n\r\n    function initialize(\r\n        string memory contract_uri,\r\n        address[] memory admins,\r\n        string memory contract_name\r\n    ) public initializer {\r\n        //Dependencies initialization:\r\n        __ERC1155_init(contract_uri);\r\n        __ReentrancyGuard_init();\r\n\r\n        //Contract variables setup\r\n        _contractLevelMetadataURI = contract_uri;\r\n        name = contract_name;\r\n\r\n        if (admins.length > 0) { //first admin assignation\r\n            for (uint256 i = 0; i < admins.length; i++) {\r\n                _grantRole(DEFAULT_ADMIN_ROLE, admins[i]);\r\n            }\r\n        }\r\n    }\r\n\r\n    /**\r\n     * @dev uri function override, allows to assign a custom URI for each token ID\r\n     *\r\n     * @param tokenId: uint, token id of which we want to get the URI set by _SetTokenURI\r\n     * @return URI: string, URI address of tokenId token\r\n     */\r\n    function uri(uint256 tokenId) public view override returns (string memory) {\r\n        require(exists(tokenId), \"ERC1155: query for non-existent object\");\r\n        return (_tokenURIs[tokenId]);\r\n    }\r\n\r\n    /**\r\n     * @dev return custom collection URI, for legacy purposes\r\n     *\r\n     * @return _contractLevelMetadataURI: string, the contract URI assigned from the constructor\r\n     */\r\n    function tokenURI() public view returns (string memory) {\r\n        return _contractLevelMetadataURI;\r\n    }\r\n\r\n    /**\r\n     * @dev Utility string comparation function. Allows to check if a and b are equal.\r\n     *\r\n     * @param a: string, the first string to compare\r\n     * @param b: string, the second string to compare\r\n     * @return equals: bool, says if a and b are equal\r\n     */\r\n    function compareStrings(string memory a, string memory b)\r\n        public\r\n        pure\r\n        returns (bool)\r\n    {\r\n        return keccak256(abi.encodePacked(a)) == keccak256(abi.encodePacked(b));\r\n    }\r\n\r\n    function contractURI() public view returns (string memory) {\r\n        return _contractLevelMetadataURI;\r\n    }\r\n\r\n    function mintToken(\r\n        address to,\r\n        uint256 tokenId,\r\n        uint256 amount,\r\n        string memory contract_uri,\r\n        bool burnable,\r\n        bool nonMutable\r\n    ) public nonReentrant onlyRole(ADMIN_ROLE) {\r\n        if (exists(tokenId)) {\r\n            _mint(to, tokenId, amount, \"\");\r\n        }\r\n        //if it exist already, just mintToken the NFT\r\n        else {\r\n            _mint(to, tokenId, amount, \"\");\r\n            tokenMinted[tokenId] = true;\r\n            _setTokenUri(tokenId, contract_uri); //if token URI is empty, token is considered ERC20 like\r\n\r\n            //allows users to block current token burn. this is permanent.\r\n            if (burnable) {\r\n                isBurnable[tokenId] = true;\r\n            }\r\n\r\n            //allows customers to avoid tokenURI changes\r\n            if (!nonMutable) {\r\n                isMutable[tokenId] = false;\r\n            }\r\n        }\r\n    }\r\n\r\n    function burnToken(\r\n        address contract_address,\r\n        uint256 tokenId,\r\n        uint256 amount\r\n    ) public nonReentrant onlyRole(ADMIN_ROLE) {\r\n        require(exists(tokenId), \"Token not existent!\");\r\n        require(isBurnable[tokenId], \"Token is not burnable!\");\r\n\r\n        _burn(contract_address, tokenId, amount);\r\n        _tokenURIs[tokenId] = \"\"; //restore mapping to default value\r\n        tokenMinted[tokenId] = false;\r\n\r\n        //no need to emit event, ERC721 takes care of this with a Transfer to the 0 address by default\r\n    }\r\n\r\n    function getCurrentPrivilegedAccounts(string memory role)\r\n        public\r\n        view\r\n        onlyRole(DEFAULT_ADMIN_ROLE)\r\n        returns (address[] memory)\r\n    {\r\n        bytes32 role_bytes = keccak256(abi.encodePacked(role));\r\n\r\n        address[] memory members = new address[](\r\n            getRoleMemberCount(role_bytes)\r\n        );\r\n        for (uint256 i = 0; i < getRoleMemberCount(role_bytes); i++) {\r\n            members[i] = getRoleMember(role_bytes, i);\r\n        }\r\n\r\n        return members;\r\n    }\r\n\r\n    function exists(uint256 tokenId)\r\n        public\r\n        view\r\n        onlyRole(ADMIN_ROLE)\r\n        returns (bool)\r\n    {\r\n        return tokenMinted[tokenId];\r\n    }\r\n\r\n    function setTokenUri(uint256 tokenId, string memory token_uri)\r\n        public\r\n        onlyRole(ADMIN_ROLE) //TO BE VERIFIED\r\n    {\r\n        if (isMutable[tokenId]) {\r\n            _setTokenUri(tokenId, token_uri);\r\n        } else {\r\n            if (hasRole(DEFAULT_ADMIN_ROLE, msg.sender)) {\r\n                _setTokenUri(tokenId, token_uri);\r\n            } else\r\n                revert(\"IERCPlatform: URI for specified tokenId is permanent!\");\r\n        }\r\n    }\r\n\r\n    /**\r\n     * @dev pausable public implementation, allows admins to block contract operation from an unpaused state.\r\n     *\r\n     */\r\n    function pause() public onlyRole(DEFAULT_ADMIN_ROLE) whenNotPaused {\r\n        _pause();\r\n    }\r\n\r\n    /**\r\n     * @dev pausable public implementation, allows admins to unblock contract operation from a paused state.\r\n     *\r\n     */\r\n    function unpause() public onlyRole(DEFAULT_ADMIN_ROLE) whenPaused {\r\n        _unpause();\r\n    }\r\n\r\n    function supportsInterface(bytes4 interfaceId)\r\n        public\r\n        view\r\n        override(\r\n            ERC1155Upgradeable,\r\n            AccessControlEnumerableUpgradeable,\r\n            ERC165Upgradeable\r\n        )\r\n        returns (bool)\r\n    {\r\n        return\r\n            interfaceId == type(INFT_DB).interfaceId || \r\n            super.supportsInterface(interfaceId);\r\n    }\r\n\r\n    //PRIVATE AND INTERNAL UTILITY FUNCTIONS DECLARATION\r\n\r\n    function _setTokenUri(uint256 tokenId, string memory token_uri) private {\r\n        _tokenURIs[tokenId] = token_uri;\r\n        emit URI(uri(tokenId), tokenId);\r\n    }\r\n\r\n    /**\r\n     * @dev See {ERC1967-Proxy}\r\n     */\r\n    function _authorizeUpgrade(address newImplementation)\r\n        internal\r\n        override\r\n        onlyRole(DEFAULT_ADMIN_ROLE)\r\n    {}\r\n}\r\n\r\n// /**\r\n//  * @dev public setURI implementation. Allows to change the ERC1155 contract URI on a later time.\r\n//  *\r\n//  * @param newuri: string, the new contract URI\r\n//  *\r\n//  */\r\n// function setURI(string memory newuri)\r\n//     public\r\n//     onlyRole(CONTRACT_METADATA_ROLE)\r\n// {\r\n//     _setURI(newuri);\r\n// }\r\n",
  "sourcePath": "C:\\Users\\gabri\\OneDrive\\INFT_DB\\contracts\\standardNFT_DB.sol",
  "compiler": {
    "name": "solc",
    "version": "0.8.21+commit.d9974bed.Emscripten.clang"
  },
  "schemaVersion": "3.4.15",
  "updatedAt": "2023-09-06T17:27:11.059Z",
  "devdoc": {
    "details": "Standard INFT_DB decentralized database for custodial NFTs for customers.",
    "events": {
      "AdminChanged(address,address)": {
        "details": "Emitted when the admin account has changed."
      },
      "ApprovalForAll(address,address,bool)": {
        "details": "Emitted when `account` grants or revokes permission to `operator` to transfer their tokens, according to `approved`."
      },
      "BeaconUpgraded(address)": {
        "details": "Emitted when the beacon is changed."
      },
      "Initialized(uint8)": {
        "details": "Triggered when the contract has been initialized or reinitialized."
      },
      "Paused(address)": {
        "details": "Emitted when the pause is triggered by `account`."
      },
      "RoleAdminChanged(bytes32,bytes32,bytes32)": {
        "details": "Emitted when `newAdminRole` is set as ``role``'s admin role, replacing `previousAdminRole` `DEFAULT_ADMIN_ROLE` is the starting admin for all roles, despite {RoleAdminChanged} not being emitted signaling this. _Available since v3.1._"
      },
      "RoleGranted(bytes32,address,address)": {
        "details": "Emitted when `account` is granted `role`. `sender` is the account that originated the contract call, an admin role bearer except when using {AccessControl-_setupRole}."
      },
      "RoleRevoked(bytes32,address,address)": {
        "details": "Emitted when `account` is revoked `role`. `sender` is the account that originated the contract call:   - if using `revokeRole`, it is the admin role bearer   - if using `renounceRole`, it is the role bearer (i.e. `account`)"
      },
      "TransferBatch(address,address,address,uint256[],uint256[])": {
        "details": "Equivalent to multiple {TransferSingle} events, where `operator`, `from` and `to` are the same for all transfers."
      },
      "TransferSingle(address,address,address,uint256,uint256)": {
        "details": "Emitted when `value` tokens of token type `id` are transferred from `from` to `to` by `operator`."
      },
      "URI(string,uint256)": {
        "details": "Emitted when the URI for token type `id` changes to `value`, if it is a non-programmatic URI. If an {URI} event was emitted for `id`, the standard https://eips.ethereum.org/EIPS/eip-1155#metadata-extensions[guarantees] that `value` will equal the value returned by {IERC1155MetadataURI-uri}."
      },
      "Unpaused(address)": {
        "details": "Emitted when the pause is lifted by `account`."
      },
      "Upgraded(address)": {
        "details": "Emitted when the implementation is upgraded."
      }
    },
    "kind": "dev",
    "methods": {
      "balanceOf(address,uint256)": {
        "details": "See {IERC1155-balanceOf}. Requirements: - `account` cannot be the zero address."
      },
      "balanceOfBatch(address[],uint256[])": {
        "details": "See {IERC1155-balanceOfBatch}. Requirements: - `accounts` and `ids` must have the same length."
      },
      "burnToken(address,uint256,uint256)": {
        "details": "token burn custom implementation. Allows to control which tokenId is burnable (by the mintToken function) and to effectively burn its instances from the blockchain.",
        "params": {
          "amount": ": uint, amount of tokenId we want to burn",
          "contract_address": ": address, of tokenId owner",
          "tokenId": ": uint, token id we want to burn"
        }
      },
      "compareStrings(string,string)": {
        "details": "Utility string comparation function. Allows to check if a and b are equal.",
        "params": {
          "a": ": string, the first string to compare",
          "b": ": string, the second string to compare"
        },
        "returns": {
          "_0": "equals: bool, says if a and b are equal"
        }
      },
      "contractURI()": {
        "details": "return custom contract URI (collection metadata) as described by OpenSea: https://docs.opensea.io/docs/contract-level-metadata",
        "returns": {
          "_0": "contractURI: string, contractURI as defined in OpenSea standards."
        }
      },
      "exists(uint256)": {
        "details": "Custom tokenID check implementation. Allow to check if a specific tokenId exist.",
        "params": {
          "tokenId": ": uint, token id of which we want to check the existence"
        },
        "returns": {
          "_0": "tokenExists: bool, says if token exist"
        }
      },
      "getCurrentPrivilegedAccounts(string)": {
        "details": "This function returns an array of addresses associated with custom \"role\" account Requirements: AccessControlEnumerable imported in custom contract",
        "params": {
          "role": ": string, role that will be converted in bytes of which we want to enumerate addresses"
        },
        "returns": {
          "_0": "addresses: address[], an array of addresses that are members of specific role"
        }
      },
      "getRoleAdmin(bytes32)": {
        "details": "Returns the admin role that controls `role`. See {grantRole} and {revokeRole}. To change a role's admin, use {_setRoleAdmin}."
      },
      "getRoleMember(bytes32,uint256)": {
        "details": "Returns one of the accounts that have `role`. `index` must be a value between 0 and {getRoleMemberCount}, non-inclusive. Role bearers are not sorted in any particular way, and their ordering may change at any point. WARNING: When using {getRoleMember} and {getRoleMemberCount}, make sure you perform all queries on the same block. See the following https://forum.openzeppelin.com/t/iterating-over-elements-on-enumerableset-in-openzeppelin-contracts/2296[forum post] for more information."
      },
      "getRoleMemberCount(bytes32)": {
        "details": "Returns the number of accounts that have `role`. Can be used together with {getRoleMember} to enumerate all bearers of a role."
      },
      "grantRole(bytes32,address)": {
        "details": "Grants `role` to `account`. If `account` had not been already granted `role`, emits a {RoleGranted} event. Requirements: - the caller must have ``role``'s admin role. May emit a {RoleGranted} event."
      },
      "hasRole(bytes32,address)": {
        "details": "Returns `true` if `account` has been granted `role`."
      },
      "isApprovedForAll(address,address)": {
        "details": "See {IERC1155-isApprovedForAll}."
      },
      "mintToken(address,uint256,uint256,string,bool,bool)": {
        "details": "custom Mint implementation. Allows to check for custom contract_uri and burnable tokens.",
        "params": {
          "amount": ": uint, amount of tokenId we want to mintToken",
          "burnable": ": bool, allows the user to burn token with the burnToken() function.",
          "contract_uri": ": string, URI we want to assign to tokenID, is set only if it's the first time minting the specific tokenId",
          "to": ": address, the target of our mintToken",
          "tokenId": ": uint, token id we want to mintToken (can be both existent or not)"
        }
      },
      "pause()": {
        "details": "pausable public implementation, allows admins to block contract operation from an unpaused state."
      },
      "paused()": {
        "details": "Returns true if the contract is paused, and false otherwise."
      },
      "proxiableUUID()": {
        "details": "Implementation of the ERC1822 {proxiableUUID} function. This returns the storage slot used by the implementation. It is used to validate the implementation's compatibility when performing an upgrade. IMPORTANT: A proxy pointing at a proxiable contract should not be considered proxiable itself, because this risks bricking a proxy that upgrades to it, by delegating to itself until out of gas. Thus it is critical that this function revert if invoked through a proxy. This is guaranteed by the `notDelegated` modifier."
      },
      "renounceRole(bytes32,address)": {
        "details": "Revokes `role` from the calling account. Roles are often managed via {grantRole} and {revokeRole}: this function's purpose is to provide a mechanism for accounts to lose their privileges if they are compromised (such as when a trusted device is misplaced). If the calling account had been revoked `role`, emits a {RoleRevoked} event. Requirements: - the caller must be `account`. May emit a {RoleRevoked} event."
      },
      "revokeRole(bytes32,address)": {
        "details": "Revokes `role` from `account`. If `account` had been granted `role`, emits a {RoleRevoked} event. Requirements: - the caller must have ``role``'s admin role. May emit a {RoleRevoked} event."
      },
      "safeBatchTransferFrom(address,address,uint256[],uint256[],bytes)": {
        "details": "See {IERC1155-safeBatchTransferFrom}."
      },
      "safeTransferFrom(address,address,uint256,uint256,bytes)": {
        "details": "See {IERC1155-safeTransferFrom}."
      },
      "setApprovalForAll(address,bool)": {
        "details": "See {IERC1155-setApprovalForAll}."
      },
      "setTokenUri(uint256,string)": {
        "details": "Custom _SetTokenURI ERC721 implementation. Allows URIs to be different for each tokenId",
        "params": {
          "tokenId": ": integer, the ID of which we want to change URI",
          "token_uri": ": string, valid internet URI reachable by the blockchain on which there's a JSON Stored following OpenSeas's metadata standards: https://docs.opensea.io/docs/metadata-standards"
        }
      },
      "tokenURI()": {
        "details": "return custom collection URI, for legacy purposes",
        "returns": {
          "_0": "_contractLevelMetadataURI: string, the contract URI assigned from the constructor"
        }
      },
      "unpause()": {
        "details": "pausable public implementation, allows admins to unblock contract operation from a paused state."
      },
      "upgradeTo(address)": {
        "custom:oz-upgrades-unsafe-allow-reachable": "delegatecall",
        "details": "Upgrade the implementation of the proxy to `newImplementation`. Calls {_authorizeUpgrade}. Emits an {Upgraded} event."
      },
      "upgradeToAndCall(address,bytes)": {
        "custom:oz-upgrades-unsafe-allow-reachable": "delegatecall",
        "details": "Upgrade the implementation of the proxy to `newImplementation`, and subsequently execute the function call encoded in `data`. Calls {_authorizeUpgrade}. Emits an {Upgraded} event."
      },
      "uri(uint256)": {
        "details": "uri function override, allows to assign a custom URI for each token ID",
        "params": {
          "tokenId": ": uint, token id of which we want to get the URI set by _SetTokenURI"
        },
        "returns": {
          "_0": "URI: string, URI address of tokenId token"
        }
      }
    },
    "stateVariables": {
      "name": {
        "details": "return custom collection name, for legacy purposes (eg. etherscan visualization)",
        "return": "name: string, contract collection name defined during construction",
        "returns": {
          "_0": "name: string, contract collection name defined during construction"
        }
      }
    },
    "version": 1
  },
  "userdoc": {
    "kind": "user",
    "methods": {},
    "version": 1
  }
}