{
  "contractName": "standardNFT_DB",
  "abi": [
    {
      "anonymous": false,
      "inputs": [
        {
          "indexed": false,
          "internalType": "address",
          "name": "previousAdmin",
          "type": "address"
        },
        {
          "indexed": false,
          "internalType": "address",
          "name": "newAdmin",
          "type": "address"
        }
      ],
      "name": "AdminChanged",
      "type": "event"
    },
    {
      "anonymous": false,
      "inputs": [
        {
          "indexed": true,
          "internalType": "address",
          "name": "account",
          "type": "address"
        },
        {
          "indexed": true,
          "internalType": "address",
          "name": "operator",
          "type": "address"
        },
        {
          "indexed": false,
          "internalType": "bool",
          "name": "approved",
          "type": "bool"
        }
      ],
      "name": "ApprovalForAll",
      "type": "event"
    },
    {
      "anonymous": false,
      "inputs": [
        {
          "indexed": true,
          "internalType": "address",
          "name": "beacon",
          "type": "address"
        }
      ],
      "name": "BeaconUpgraded",
      "type": "event"
    },
    {
      "anonymous": false,
      "inputs": [
        {
          "indexed": false,
          "internalType": "uint8",
          "name": "version",
          "type": "uint8"
        }
      ],
      "name": "Initialized",
      "type": "event"
    },
    {
      "anonymous": false,
      "inputs": [
        {
          "indexed": false,
          "internalType": "address",
          "name": "account",
          "type": "address"
        }
      ],
      "name": "Paused",
      "type": "event"
    },
    {
      "anonymous": false,
      "inputs": [
        {
          "indexed": true,
          "internalType": "bytes32",
          "name": "role",
          "type": "bytes32"
        },
        {
          "indexed": true,
          "internalType": "bytes32",
          "name": "previousAdminRole",
          "type": "bytes32"
        },
        {
          "indexed": true,
          "internalType": "bytes32",
          "name": "newAdminRole",
          "type": "bytes32"
        }
      ],
      "name": "RoleAdminChanged",
      "type": "event"
    },
    {
      "anonymous": false,
      "inputs": [
        {
          "indexed": true,
          "internalType": "bytes32",
          "name": "role",
          "type": "bytes32"
        },
        {
          "indexed": true,
          "internalType": "address",
          "name": "account",
          "type": "address"
        },
        {
          "indexed": true,
          "internalType": "address",
          "name": "sender",
          "type": "address"
        }
      ],
      "name": "RoleGranted",
      "type": "event"
    },
    {
      "anonymous": false,
      "inputs": [
        {
          "indexed": true,
          "internalType": "bytes32",
          "name": "role",
          "type": "bytes32"
        },
        {
          "indexed": true,
          "internalType": "address",
          "name": "account",
          "type": "address"
        },
        {
          "indexed": true,
          "internalType": "address",
          "name": "sender",
          "type": "address"
        }
      ],
      "name": "RoleRevoked",
      "type": "event"
    },
    {
      "anonymous": false,
      "inputs": [
        {
          "indexed": true,
          "internalType": "address",
          "name": "operator",
          "type": "address"
        },
        {
          "indexed": true,
          "internalType": "address",
          "name": "from",
          "type": "address"
        },
        {
          "indexed": true,
          "internalType": "address",
          "name": "to",
          "type": "address"
        },
        {
          "indexed": false,
          "internalType": "uint256[]",
          "name": "ids",
          "type": "uint256[]"
        },
        {
          "indexed": false,
          "internalType": "uint256[]",
          "name": "values",
          "type": "uint256[]"
        }
      ],
      "name": "TransferBatch",
      "type": "event"
    },
    {
      "anonymous": false,
      "inputs": [
        {
          "indexed": true,
          "internalType": "address",
          "name": "operator",
          "type": "address"
        },
        {
          "indexed": true,
          "internalType": "address",
          "name": "from",
          "type": "address"
        },
        {
          "indexed": true,
          "internalType": "address",
          "name": "to",
          "type": "address"
        },
        {
          "indexed": false,
          "internalType": "uint256",
          "name": "id",
          "type": "uint256"
        },
        {
          "indexed": false,
          "internalType": "uint256",
          "name": "value",
          "type": "uint256"
        }
      ],
      "name": "TransferSingle",
      "type": "event"
    },
    {
      "anonymous": false,
      "inputs": [
        {
          "indexed": false,
          "internalType": "string",
          "name": "value",
          "type": "string"
        },
        {
          "indexed": true,
          "internalType": "uint256",
          "name": "id",
          "type": "uint256"
        }
      ],
      "name": "URI",
      "type": "event"
    },
    {
      "anonymous": false,
      "inputs": [
        {
          "indexed": false,
          "internalType": "address",
          "name": "account",
          "type": "address"
        }
      ],
      "name": "Unpaused",
      "type": "event"
    },
    {
      "anonymous": false,
      "inputs": [
        {
          "indexed": true,
          "internalType": "address",
          "name": "implementation",
          "type": "address"
        }
      ],
      "name": "Upgraded",
      "type": "event"
    },
    {
      "inputs": [],
      "name": "ADMIN_ROLE",
      "outputs": [
        {
          "internalType": "bytes32",
          "name": "",
          "type": "bytes32"
        }
      ],
      "stateMutability": "view",
      "type": "function",
      "constant": true
    },
    {
      "inputs": [],
      "name": "DEFAULT_ADMIN_ROLE",
      "outputs": [
        {
          "internalType": "bytes32",
          "name": "",
          "type": "bytes32"
        }
      ],
      "stateMutability": "view",
      "type": "function",
      "constant": true
    },
    {
      "inputs": [
        {
          "internalType": "address",
          "name": "account",
          "type": "address"
        },
        {
          "internalType": "uint256",
          "name": "id",
          "type": "uint256"
        }
      ],
      "name": "balanceOf",
      "outputs": [
        {
          "internalType": "uint256",
          "name": "",
          "type": "uint256"
        }
      ],
      "stateMutability": "view",
      "type": "function",
      "constant": true
    },
    {
      "inputs": [
        {
          "internalType": "address[]",
          "name": "accounts",
          "type": "address[]"
        },
        {
          "internalType": "uint256[]",
          "name": "ids",
          "type": "uint256[]"
        }
      ],
      "name": "balanceOfBatch",
      "outputs": [
        {
          "internalType": "uint256[]",
          "name": "",
          "type": "uint256[]"
        }
      ],
      "stateMutability": "view",
      "type": "function",
      "constant": true
    },
    {
      "inputs": [
        {
          "internalType": "bytes32",
          "name": "role",
          "type": "bytes32"
        }
      ],
      "name": "getRoleAdmin",
      "outputs": [
        {
          "internalType": "bytes32",
          "name": "",
          "type": "bytes32"
        }
      ],
      "stateMutability": "view",
      "type": "function",
      "constant": true
    },
    {
      "inputs": [
        {
          "internalType": "bytes32",
          "name": "role",
          "type": "bytes32"
        },
        {
          "internalType": "uint256",
          "name": "index",
          "type": "uint256"
        }
      ],
      "name": "getRoleMember",
      "outputs": [
        {
          "internalType": "address",
          "name": "",
          "type": "address"
        }
      ],
      "stateMutability": "view",
      "type": "function",
      "constant": true
    },
    {
      "inputs": [
        {
          "internalType": "bytes32",
          "name": "role",
          "type": "bytes32"
        }
      ],
      "name": "getRoleMemberCount",
      "outputs": [
        {
          "internalType": "uint256",
          "name": "",
          "type": "uint256"
        }
      ],
      "stateMutability": "view",
      "type": "function",
      "constant": true
    },
    {
      "inputs": [
        {
          "internalType": "bytes32",
          "name": "role",
          "type": "bytes32"
        },
        {
          "internalType": "address",
          "name": "account",
          "type": "address"
        }
      ],
      "name": "grantRole",
      "outputs": [],
      "stateMutability": "nonpayable",
      "type": "function"
    },
    {
      "inputs": [
        {
          "internalType": "bytes32",
          "name": "role",
          "type": "bytes32"
        },
        {
          "internalType": "address",
          "name": "account",
          "type": "address"
        }
      ],
      "name": "hasRole",
      "outputs": [
        {
          "internalType": "bool",
          "name": "",
          "type": "bool"
        }
      ],
      "stateMutability": "view",
      "type": "function",
      "constant": true
    },
    {
      "inputs": [
        {
          "internalType": "address",
          "name": "account",
          "type": "address"
        },
        {
          "internalType": "address",
          "name": "operator",
          "type": "address"
        }
      ],
      "name": "isApprovedForAll",
      "outputs": [
        {
          "internalType": "bool",
          "name": "",
          "type": "bool"
        }
      ],
      "stateMutability": "view",
      "type": "function",
      "constant": true
    },
    {
      "inputs": [],
      "name": "name",
      "outputs": [
        {
          "internalType": "string",
          "name": "",
          "type": "string"
        }
      ],
      "stateMutability": "view",
      "type": "function",
      "constant": true
    },
    {
      "inputs": [],
      "name": "paused",
      "outputs": [
        {
          "internalType": "bool",
          "name": "",
          "type": "bool"
        }
      ],
      "stateMutability": "view",
      "type": "function",
      "constant": true
    },
    {
      "inputs": [],
      "name": "proxiableUUID",
      "outputs": [
        {
          "internalType": "bytes32",
          "name": "",
          "type": "bytes32"
        }
      ],
      "stateMutability": "view",
      "type": "function",
      "constant": true
    },
    {
      "inputs": [
        {
          "internalType": "bytes32",
          "name": "role",
          "type": "bytes32"
        },
        {
          "internalType": "address",
          "name": "account",
          "type": "address"
        }
      ],
      "name": "renounceRole",
      "outputs": [],
      "stateMutability": "nonpayable",
      "type": "function"
    },
    {
      "inputs": [
        {
          "internalType": "bytes32",
          "name": "role",
          "type": "bytes32"
        },
        {
          "internalType": "address",
          "name": "account",
          "type": "address"
        }
      ],
      "name": "revokeRole",
      "outputs": [],
      "stateMutability": "nonpayable",
      "type": "function"
    },
    {
      "inputs": [
        {
          "internalType": "address",
          "name": "from",
          "type": "address"
        },
        {
          "internalType": "address",
          "name": "to",
          "type": "address"
        },
        {
          "internalType": "uint256[]",
          "name": "ids",
          "type": "uint256[]"
        },
        {
          "internalType": "uint256[]",
          "name": "amounts",
          "type": "uint256[]"
        },
        {
          "internalType": "bytes",
          "name": "data",
          "type": "bytes"
        }
      ],
      "name": "safeBatchTransferFrom",
      "outputs": [],
      "stateMutability": "nonpayable",
      "type": "function"
    },
    {
      "inputs": [
        {
          "internalType": "address",
          "name": "from",
          "type": "address"
        },
        {
          "internalType": "address",
          "name": "to",
          "type": "address"
        },
        {
          "internalType": "uint256",
          "name": "id",
          "type": "uint256"
        },
        {
          "internalType": "uint256",
          "name": "amount",
          "type": "uint256"
        },
        {
          "internalType": "bytes",
          "name": "data",
          "type": "bytes"
        }
      ],
      "name": "safeTransferFrom",
      "outputs": [],
      "stateMutability": "nonpayable",
      "type": "function"
    },
    {
      "inputs": [
        {
          "internalType": "address",
          "name": "operator",
          "type": "address"
        },
        {
          "internalType": "bool",
          "name": "approved",
          "type": "bool"
        }
      ],
      "name": "setApprovalForAll",
      "outputs": [],
      "stateMutability": "nonpayable",
      "type": "function"
    },
    {
      "inputs": [
        {
          "internalType": "address",
          "name": "newImplementation",
          "type": "address"
        }
      ],
      "name": "upgradeTo",
      "outputs": [],
      "stateMutability": "nonpayable",
      "type": "function"
    },
    {
      "inputs": [
        {
          "internalType": "address",
          "name": "newImplementation",
          "type": "address"
        },
        {
          "internalType": "bytes",
          "name": "data",
          "type": "bytes"
        }
      ],
      "name": "upgradeToAndCall",
      "outputs": [],
      "stateMutability": "payable",
      "type": "function",
      "payable": true
    },
    {
      "inputs": [
        {
          "internalType": "string",
          "name": "contract_uri",
          "type": "string"
        },
        {
          "internalType": "address[]",
          "name": "admins",
          "type": "address[]"
        },
        {
          "internalType": "string",
          "name": "contract_name",
          "type": "string"
        }
      ],
      "name": "initialize",
      "outputs": [],
      "stateMutability": "nonpayable",
      "type": "function"
    },
    {
      "inputs": [
        {
          "internalType": "uint256",
          "name": "tokenId",
          "type": "uint256"
        }
      ],
      "name": "uri",
      "outputs": [
        {
          "internalType": "string",
          "name": "",
          "type": "string"
        }
      ],
      "stateMutability": "view",
      "type": "function",
      "constant": true
    },
    {
      "inputs": [],
      "name": "tokenURI",
      "outputs": [
        {
          "internalType": "string",
          "name": "",
          "type": "string"
        }
      ],
      "stateMutability": "view",
      "type": "function",
      "constant": true
    },
    {
      "inputs": [
        {
          "internalType": "string",
          "name": "a",
          "type": "string"
        },
        {
          "internalType": "string",
          "name": "b",
          "type": "string"
        }
      ],
      "name": "compareStrings",
      "outputs": [
        {
          "internalType": "bool",
          "name": "",
          "type": "bool"
        }
      ],
      "stateMutability": "pure",
      "type": "function",
      "constant": true
    },
    {
      "inputs": [],
      "name": "contractURI",
      "outputs": [
        {
          "internalType": "string",
          "name": "",
          "type": "string"
        }
      ],
      "stateMutability": "view",
      "type": "function",
      "constant": true
    },
    {
      "inputs": [
        {
          "internalType": "address",
          "name": "to",
          "type": "address"
        },
        {
          "internalType": "uint256",
          "name": "tokenId",
          "type": "uint256"
        },
        {
          "internalType": "uint256",
          "name": "amount",
          "type": "uint256"
        },
        {
          "internalType": "string",
          "name": "contract_uri",
          "type": "string"
        },
        {
          "internalType": "bool",
          "name": "burnable",
          "type": "bool"
        },
        {
          "internalType": "bool",
          "name": "nonMutable",
          "type": "bool"
        }
      ],
      "name": "mintToken",
      "outputs": [],
      "stateMutability": "nonpayable",
      "type": "function"
    },
    {
      "inputs": [
        {
          "internalType": "address",
          "name": "contract_address",
          "type": "address"
        },
        {
          "internalType": "uint256",
          "name": "tokenId",
          "type": "uint256"
        },
        {
          "internalType": "uint256",
          "name": "amount",
          "type": "uint256"
        }
      ],
      "name": "burnToken",
      "outputs": [],
      "stateMutability": "nonpayable",
      "type": "function"
    },
    {
      "inputs": [
        {
          "internalType": "string",
          "name": "role",
          "type": "string"
        }
      ],
      "name": "getCurrentPrivilegedAccounts",
      "outputs": [
        {
          "internalType": "address[]",
          "name": "",
          "type": "address[]"
        }
      ],
      "stateMutability": "view",
      "type": "function",
      "constant": true
    },
    {
      "inputs": [
        {
          "internalType": "uint256",
          "name": "tokenId",
          "type": "uint256"
        }
      ],
      "name": "exists",
      "outputs": [
        {
          "internalType": "bool",
          "name": "",
          "type": "bool"
        }
      ],
      "stateMutability": "view",
      "type": "function",
      "constant": true
    },
    {
      "inputs": [
        {
          "internalType": "uint256",
          "name": "tokenId",
          "type": "uint256"
        },
        {
          "internalType": "string",
          "name": "token_uri",
          "type": "string"
        }
      ],
      "name": "setTokenUri",
      "outputs": [],
      "stateMutability": "nonpayable",
      "type": "function"
    },
    {
      "inputs": [
        {
          "internalType": "address",
          "name": "who",
          "type": "address"
        }
      ],
      "name": "getTokenMappings",
      "outputs": [
        {
          "internalType": "uint256[]",
          "name": "",
          "type": "uint256[]"
        }
      ],
      "stateMutability": "view",
      "type": "function",
      "constant": true
    },
    {
      "inputs": [],
      "name": "test",
      "outputs": [
        {
          "internalType": "string",
          "name": "",
          "type": "string"
        }
      ],
      "stateMutability": "nonpayable",
      "type": "function"
    },
    {
      "inputs": [],
      "name": "pause",
      "outputs": [],
      "stateMutability": "nonpayable",
      "type": "function"
    },
    {
      "inputs": [],
      "name": "unpause",
      "outputs": [],
      "stateMutability": "nonpayable",
      "type": "function"
    },
    {
      "inputs": [
        {
          "internalType": "bytes4",
          "name": "interfaceId",
          "type": "bytes4"
        }
      ],
      "name": "supportsInterface",
      "outputs": [
        {
          "internalType": "bool",
          "name": "",
          "type": "bool"
        }
      ],
      "stateMutability": "view",
      "type": "function",
      "constant": true
    }
  ],
  "bytecode": "0x60a060405230608052348015610013575f80fd5b506080516138506100485f395f81816109c201528181610a0201528181610c6901528181610ca90152610d6901526138505ff3fe6080604052600436106101fb575f3560e01c80635f92c3a811610113578063a22cb4651161009d578063e8a3d4851161006d578063e8a3d4851461034d578063e985e9c5146105bf578063ed8c593814610606578063f242432a14610625578063f8a8fd6d14610644575f80fd5b8063a22cb46514610543578063bed34bba14610562578063ca15c87314610581578063d547741f146105a0575f80fd5b80639010d07c116100e35780639010d07c1461049c57806391d14854146104d3578063989bc8af146104f25780639b88973314610511578063a217fddf14610530575f80fd5b80635f92c3a81461041d57806375b238fc1461043c5780638456cb591461045c5780638948dc4514610470575f80fd5b80633659cfe6116101945780634f1ef286116101645780634f1ef286146103a15780634f558e79146103b457806352d1902d146103d357806357f7789e146103e75780635c975abb14610406575f80fd5b80633659cfe61461032e5780633c130d901461034d5780633f4ba83a146103615780634e1273f414610375575f80fd5b8063248a9ca3116101cf578063248a9ca3146102a05780632eb2c2d6146102cf5780632f2ff15d146102f057806336568abe1461030f575f80fd5b8062fdd58e146101ff57806301ffc9a71461023157806306fdde03146102605780630e89341c14610281575b5f80fd5b34801561020a575f80fd5b5061021e610219366004612a63565b610678565b6040519081526020015b60405180910390f35b34801561023c575f80fd5b5061025061024b366004612aa0565b610711565b6040519015158152602001610228565b34801561026b575f80fd5b50610274610735565b6040516102289190612b08565b34801561028c575f80fd5b5061027461029b366004612b1a565b6107c2565b3480156102ab575f80fd5b5061021e6102ba366004612b1a565b5f90815261012d602052604090206001015490565b3480156102da575f80fd5b506102ee6102e9366004612c75565b6108c4565b005b3480156102fb575f80fd5b506102ee61030a366004612d17565b610910565b34801561031a575f80fd5b506102ee610329366004612d17565b61093a565b348015610339575f80fd5b506102ee610348366004612d41565b6109b8565b348015610358575f80fd5b50610274610a95565b34801561036c575f80fd5b506102ee610b26565b348015610380575f80fd5b5061039461038f366004612dc9565b610b40565b6040516102289190612e62565b6102ee6103af366004612e74565b610c5f565b3480156103bf575f80fd5b506102506103ce366004612b1a565b610d2a565b3480156103de575f80fd5b5061021e610d5d565b3480156103f2575f80fd5b506102ee610401366004612eb4565b610e0f565b348015610411575f80fd5b5060975460ff16610250565b348015610428575f80fd5b506102ee610437366004612ee1565b610ec6565b348015610447575f80fd5b5061021e5f805160206137fb83398151915281565b348015610467575f80fd5b506102ee61107e565b34801561047b575f80fd5b5061048f61048a366004612f62565b611098565b6040516102289190612f93565b3480156104a7575f80fd5b506104bb6104b6366004612fdf565b611172565b6040516001600160a01b039091168152602001610228565b3480156104de575f80fd5b506102506104ed366004612d17565b611191565b3480156104fd575f80fd5b506102ee61050c36600461300e565b6111bc565b34801561051c575f80fd5b5061039461052b366004612d41565b6112eb565b34801561053b575f80fd5b5061021e5f81565b34801561054e575f80fd5b506102ee61055d366004613089565b611354565b34801561056d575f80fd5b5061025061057c3660046130b1565b61135f565b34801561058c575f80fd5b5061021e61059b366004612b1a565b6113b7565b3480156105ab575f80fd5b506102ee6105ba366004612d17565b6113ce565b3480156105ca575f80fd5b506102506105d9366004613106565b6001600160a01b039182165f90815260666020908152604080832093909416825291909152205460ff1690565b348015610611575f80fd5b506102ee61062036600461312e565b6113f3565b348015610630575f80fd5b506102ee61063f36600461315e565b611508565b34801561064f575f80fd5b5060408051808201909152600c81526b68656c6c6f2074686572652160a01b6020820152610274565b5f6001600160a01b0383166106e75760405162461bcd60e51b815260206004820152602a60248201527f455243313135353a2061646472657373207a65726f206973206e6f742061207660448201526930b634b21037bbb732b960b11b60648201526084015b60405180910390fd5b505f8181526065602090815260408083206001600160a01b03861684529091529020545b92915050565b5f6001600160e01b031982166336b0bc2360e01b148061070b575061070b8261154d565b6101f68054610743906131bd565b80601f016020809104026020016040519081016040528092919081815260200182805461076f906131bd565b80156107ba5780601f10610791576101008083540402835291602001916107ba565b820191905f5260205f20905b81548152906001019060200180831161079d57829003601f168201915b505050505081565b60606107cd82610d2a565b6108285760405162461bcd60e51b815260206004820152602660248201527f455243313135353a20717565727920666f72206e6f6e2d6578697374656e74206044820152651bd89a9958dd60d21b60648201526084016106de565b5f8281526101f8602052604090208054610841906131bd565b80601f016020809104026020016040519081016040528092919081815260200182805461086d906131bd565b80156108b85780601f1061088f576101008083540402835291602001916108b8565b820191905f5260205f20905b81548152906001019060200180831161089b57829003601f168201915b50505050509050919050565b6001600160a01b0385163314806108e057506108e085336105d9565b6108fc5760405162461bcd60e51b81526004016106de906131ef565b6109098585858585611571565b5050505050565b5f82815261012d602052604090206001015461092b8161174b565b6109358383611755565b505050565b6001600160a01b03811633146109aa5760405162461bcd60e51b815260206004820152602f60248201527f416363657373436f6e74726f6c3a2063616e206f6e6c792072656e6f756e636560448201526e103937b632b9903337b91039b2b63360891b60648201526084016106de565b6109b48282611777565b5050565b6001600160a01b037f0000000000000000000000000000000000000000000000000000000000000000163003610a005760405162461bcd60e51b81526004016106de9061323d565b7f00000000000000000000000000000000000000000000000000000000000000006001600160a01b0316610a485f805160206137b4833981519152546001600160a01b031690565b6001600160a01b031614610a6e5760405162461bcd60e51b81526004016106de90613289565b610a7781611799565b604080515f80825260208201909252610a92918391906117a3565b50565b60606101f58054610aa5906131bd565b80601f0160208091040260200160405190810160405280929190818152602001828054610ad1906131bd565b8015610b1c5780601f10610af357610100808354040283529160200191610b1c565b820191905f5260205f20905b815481529060010190602001808311610aff57829003601f168201915b5050505050905090565b5f610b308161174b565b610b3861190d565b610a92611958565b60608151835114610ba55760405162461bcd60e51b815260206004820152602960248201527f455243313135353a206163636f756e747320616e6420696473206c656e677468604482015268040dad2e6dac2e8c6d60bb1b60648201526084016106de565b5f83516001600160401b03811115610bbf57610bbf612b31565b604051908082528060200260200182016040528015610be8578160200160208202803683370190505b5090505f5b8451811015610c5757610c32858281518110610c0b57610c0b6132d5565b6020026020010151858381518110610c2557610c256132d5565b6020026020010151610678565b828281518110610c4457610c446132d5565b6020908102919091010152600101610bed565b509392505050565b6001600160a01b037f0000000000000000000000000000000000000000000000000000000000000000163003610ca75760405162461bcd60e51b81526004016106de9061323d565b7f00000000000000000000000000000000000000000000000000000000000000006001600160a01b0316610cef5f805160206137b4833981519152546001600160a01b031690565b6001600160a01b031614610d155760405162461bcd60e51b81526004016106de90613289565b610d1e82611799565b6109b4828260016117a3565b5f5f805160206137fb833981519152610d428161174b565b5f8381526101f9602052604090205460ff1691505b50919050565b5f306001600160a01b037f00000000000000000000000000000000000000000000000000000000000000001614610dfc5760405162461bcd60e51b815260206004820152603860248201527f555550535570677261646561626c653a206d757374206e6f742062652063616c60448201527f6c6564207468726f7567682064656c656761746563616c6c000000000000000060648201526084016106de565b505f805160206137b48339815191525b90565b5f805160206137fb833981519152610e268161174b565b5f8381526101fb602052604090205460ff1615610e475761093583836119aa565b610e515f33611191565b15610e605761093583836119aa565b60405162461bcd60e51b815260206004820152603560248201527f49455243506c6174666f726d3a2055524920666f722073706563696669656420604482015274746f6b656e4964206973207065726d616e656e742160581b60648201526084016106de565b5f54610100900460ff1615808015610ee457505f54600160ff909116105b80610efd5750303b158015610efd57505f5460ff166001145b610f605760405162461bcd60e51b815260206004820152602e60248201527f496e697469616c697a61626c653a20636f6e747261637420697320616c72656160448201526d191e481a5b9a5d1a585b1a5e995960921b60648201526084016106de565b5f805460ff191660011790558015610f81575f805461ff0019166101001790555b610f8a84611a07565b610f92611a36565b6101f5610f9f858261332d565b506101f6610fad838261332d565b50610fb85f33611755565b610fcf5f805160206137fb83398151915233611755565b825115611033575f5b8351811015611031576110065f801b858381518110610ff957610ff96132d5565b6020026020010151611755565b6110295f805160206137fb833981519152858381518110610ff957610ff96132d5565b600101610fd8565b505b8015611078575f805461ff0019169055604051600181527f7f26b83ff96e1f2b6a682f133852f6798a09c465da95921460cefb38474024989060200160405180910390a15b50505050565b5f6110888161174b565b611090611a64565b610a92611aaa565b60605f6110a48161174b565b5f836040516020016110b691906133e8565b6040516020818303038152906040528051906020012090505f6110d8826113b7565b6001600160401b038111156110ef576110ef612b31565b604051908082528060200260200182016040528015611118578160200160208202803683370190505b5090505f5b611126836113b7565b811015611169576111378382611172565b828281518110611149576111496132d5565b6001600160a01b039092166020928302919091019091015260010161111d565b50949350505050565b5f82815261015f6020526040812061118a9083611ae7565b9392505050565b5f91825261012d602090815260408084206001600160a01b0393909316845291905290205460ff1690565b6111c4611af2565b5f805160206137fb8339815191526111db8161174b565b6111e486610d2a565b156112335761120387878760405180602001604052805f815250611b4b565b6001600160a01b0387165f9081526101f760209081526040822080546001810182559083529120018690556112d8565b61124d87878760405180602001604052805f815250611b4b565b6001600160a01b0387165f9081526101f760209081526040808320805460018181018355918552838520018a90558984526101f9909252909120805460ff1916909117905561129c86856119aa565b82156112bc575f8681526101fa60205260409020805460ff191660011790555b816112d8575f8681526101fb60205260409020805460ff191690555b506112e3600160fb55565b505050505050565b6001600160a01b0381165f9081526101f760209081526040918290208054835181840281018401909452808452606093928301828280156108b857602002820191905f5260205f20905b8154815260200190600101908083116113355750505050509050919050565b6109b4338383611c71565b5f8160405160200161137191906133e8565b604051602081830303815290604052805190602001208360405160200161139891906133e8565b6040516020818303038152906040528051906020012014905092915050565b5f81815261015f6020526040812061070b90611d50565b5f82815261012d60205260409020600101546113e98161174b565b6109358383611777565b6113fb611af2565b5f805160206137fb8339815191526114128161174b565b61141b83610d2a565b61145d5760405162461bcd60e51b8152602060048201526013602482015272546f6b656e206e6f74206578697374656e742160681b60448201526064016106de565b5f8381526101fa602052604090205460ff166114b45760405162461bcd60e51b8152602060048201526016602482015275546f6b656e206973206e6f74206275726e61626c652160501b60448201526064016106de565b6114bf848484611d59565b60408051602080820183525f8083528681526101f890915291909120906114e6908261332d565b50505f8281526101f960205260409020805460ff19169055610935600160fb55565b6001600160a01b038516331480611524575061152485336105d9565b6115405760405162461bcd60e51b81526004016106de906131ef565b6109098585858585611ee6565b5f6001600160e01b03198216635a05180f60e01b148061070b575061070b8261201e565b81518351146115d35760405162461bcd60e51b815260206004820152602860248201527f455243313135353a2069647320616e6420616d6f756e7473206c656e677468206044820152670dad2e6dac2e8c6d60c31b60648201526084016106de565b6001600160a01b0384166115f95760405162461bcd60e51b81526004016106de90613403565b33611608818787878787612042565b5f5b84518110156116e5575f858281518110611626576116266132d5565b602002602001015190505f858381518110611643576116436132d5565b6020908102919091018101515f8481526065835260408082206001600160a01b038e1683529093529190912054909150818110156116935760405162461bcd60e51b81526004016106de90613448565b5f8381526065602090815260408083206001600160a01b038e8116855292528083208585039055908b168252812080548492906116d19084906134a6565b90915550506001909301925061160a915050565b50846001600160a01b0316866001600160a01b0316826001600160a01b03167f4a39dc06d4c0dbc64b70af90fd698a233a518aa5d07e595d983b8c0526c8f7fb87876040516117359291906134b9565b60405180910390a46112e38187878787876120aa565b610a928133612204565b61175f828261225d565b5f82815261015f6020526040902061093590826122e3565b61178182826122f7565b5f82815261015f60205260409020610935908261235e565b5f6109b48161174b565b7f4910fdfa16fed3260ed0e7147f7cc6da11a60208b5b9406d12a635614ffd91435460ff16156117d65761093583612372565b826001600160a01b03166352d1902d6040518163ffffffff1660e01b8152600401602060405180830381865afa925050508015611830575060408051601f3d908101601f1916820190925261182d918101906134e6565b60015b6118935760405162461bcd60e51b815260206004820152602e60248201527f45524331393637557067726164653a206e657720696d706c656d656e7461746960448201526d6f6e206973206e6f74205555505360901b60648201526084016106de565b5f805160206137b483398151915281146119015760405162461bcd60e51b815260206004820152602960248201527f45524331393637557067726164653a20756e737570706f727465642070726f786044820152681a58589b195555525160ba1b60648201526084016106de565b5061093583838361240d565b60975460ff166119565760405162461bcd60e51b815260206004820152601460248201527314185d5cd8589b194e881b9bdd081c185d5cd95960621b60448201526064016106de565b565b61196061190d565b6097805460ff191690557f5db9ee0a495bf2e6ff9c91a7834c1ba4fdd244a5e8aa4e537bd38aeae4b073aa335b6040516001600160a01b03909116815260200160405180910390a1565b5f8281526101f8602052604090206119c2828261332d565b50817f6bb7ff708619ba0610cba295a58592e0451dee2622938c8755667688daf3529b6119ee846107c2565b6040516119fb9190612b08565b60405180910390a25050565b5f54610100900460ff16611a2d5760405162461bcd60e51b81526004016106de906134fd565b610a9281612431565b5f54610100900460ff16611a5c5760405162461bcd60e51b81526004016106de906134fd565b611956612460565b60975460ff16156119565760405162461bcd60e51b815260206004820152601060248201526f14185d5cd8589b194e881c185d5cd95960821b60448201526064016106de565b611ab2611a64565b6097805460ff191660011790557f62e78cea01bee320cd4e420270b5ea74000d11b0c9f74754ebdbfc544b05a25861198d3390565b5f61118a8383612486565b600260fb5403611b445760405162461bcd60e51b815260206004820152601f60248201527f5265656e7472616e637947756172643a207265656e7472616e742063616c6c0060448201526064016106de565b600260fb55565b6001600160a01b038416611bab5760405162461bcd60e51b815260206004820152602160248201527f455243313135353a206d696e7420746f20746865207a65726f206164647265736044820152607360f81b60648201526084016106de565b335f611bb6856124ac565b90505f611bc2856124ac565b9050611bd2835f89858589612042565b5f8681526065602090815260408083206001600160a01b038b16845290915281208054879290611c039084906134a6565b909155505060408051878152602081018790526001600160a01b03808a16925f92918716917fc3d58168c5ae7397731d063d5bbf3d657854427343f4c083240f7aacaa2d0f62910160405180910390a4611c61835f898989896124f5565b50505050505050565b600160fb55565b816001600160a01b0316836001600160a01b031603611ce45760405162461bcd60e51b815260206004820152602960248201527f455243313135353a2073657474696e6720617070726f76616c20737461747573604482015268103337b91039b2b63360b91b60648201526084016106de565b6001600160a01b038381165f81815260666020908152604080832094871680845294825291829020805460ff191686151590811790915591519182527f17307eab39ab6107e8899845ad3d59bd9653f200f220920489ca2b5937696c31910160405180910390a3505050565b5f61070b825490565b6001600160a01b038316611dbb5760405162461bcd60e51b815260206004820152602360248201527f455243313135353a206275726e2066726f6d20746865207a65726f206164647260448201526265737360e81b60648201526084016106de565b335f611dc6846124ac565b90505f611dd2846124ac565b9050611df083875f858560405180602001604052805f815250612042565b5f8581526065602090815260408083206001600160a01b038a16845290915290205484811015611e6e5760405162461bcd60e51b8152602060048201526024808201527f455243313135353a206275726e20616d6f756e7420657863656564732062616c604482015263616e636560e01b60648201526084016106de565b5f8681526065602090815260408083206001600160a01b038b81168086529184528285208a8703905582518b81529384018a90529092908816917fc3d58168c5ae7397731d063d5bbf3d657854427343f4c083240f7aacaa2d0f62910160405180910390a460408051602081019091525f9052611c61565b6001600160a01b038416611f0c5760405162461bcd60e51b81526004016106de90613403565b335f611f17856124ac565b90505f611f23856124ac565b9050611f33838989858589612042565b5f8681526065602090815260408083206001600160a01b038c16845290915290205485811015611f755760405162461bcd60e51b81526004016106de90613448565b5f8781526065602090815260408083206001600160a01b038d8116855292528083208985039055908a16825281208054889290611fb39084906134a6565b909155505060408051888152602081018890526001600160a01b03808b16928c821692918816917fc3d58168c5ae7397731d063d5bbf3d657854427343f4c083240f7aacaa2d0f62910160405180910390a4612013848a8a8a8a8a6124f5565b505050505050505050565b5f6001600160e01b03198216637965db0b60e01b148061070b575061070b826125af565b60975460ff16156112e35760405162461bcd60e51b815260206004820152602c60248201527f455243313135355061757361626c653a20746f6b656e207472616e736665722060448201526b1dda1a5b19481c185d5cd95960a21b60648201526084016106de565b6001600160a01b0384163b156112e35760405163bc197c8160e01b81526001600160a01b0385169063bc197c81906120ee9089908990889088908890600401613548565b6020604051808303815f875af1925050508015612128575060408051601f3d908101601f19168201909252612125918101906135a5565b60015b6121d4576121346135c0565b806308c379a00361216d57506121486135d8565b80612153575061216f565b8060405162461bcd60e51b81526004016106de9190612b08565b505b60405162461bcd60e51b815260206004820152603460248201527f455243313135353a207472616e7366657220746f206e6f6e2d455243313135356044820152732932b1b2b4bb32b91034b6b83632b6b2b73a32b960611b60648201526084016106de565b6001600160e01b0319811663bc197c8160e01b14611c615760405162461bcd60e51b81526004016106de90613660565b61220e8282611191565b6109b45761221b816125fe565b612226836020612610565b6040516020016122379291906136a8565b60408051601f198184030181529082905262461bcd60e51b82526106de91600401612b08565b6122678282611191565b6109b4575f82815261012d602090815260408083206001600160a01b03851684529091529020805460ff1916600117905561229f3390565b6001600160a01b0316816001600160a01b0316837f2f8788117e7eff1d82e926ec794901d17c78024a50270940304540a733656f0d60405160405180910390a45050565b5f61118a836001600160a01b0384166127a5565b6123018282611191565b156109b4575f82815261012d602090815260408083206001600160a01b0385168085529252808320805460ff1916905551339285917ff6391f5c32d9c69d2a47ea670b442974b53935d1edc7fd64eb21e047a839171b9190a45050565b5f61118a836001600160a01b0384166127f1565b6001600160a01b0381163b6123df5760405162461bcd60e51b815260206004820152602d60248201527f455243313936373a206e657720696d706c656d656e746174696f6e206973206e60448201526c1bdd08184818dbdb9d1c9858dd609a1b60648201526084016106de565b5f805160206137b483398151915280546001600160a01b0319166001600160a01b0392909216919091179055565b612416836128d4565b5f825111806124225750805b15610935576110788383612913565b5f54610100900460ff166124575760405162461bcd60e51b81526004016106de906134fd565b610a9281612938565b5f54610100900460ff16611c6a5760405162461bcd60e51b81526004016106de906134fd565b5f825f01828154811061249b5761249b6132d5565b905f5260205f200154905092915050565b6040805160018082528183019092526060915f91906020808301908036833701905050905082815f815181106124e4576124e46132d5565b602090810291909101015292915050565b6001600160a01b0384163b156112e35760405163f23a6e6160e01b81526001600160a01b0385169063f23a6e6190612539908990899088908890889060040161371c565b6020604051808303815f875af1925050508015612573575060408051601f3d908101601f19168201909252612570918101906135a5565b60015b61257f576121346135c0565b6001600160e01b0319811663f23a6e6160e01b14611c615760405162461bcd60e51b81526004016106de90613660565b5f6001600160e01b03198216636cdb3d1360e11b14806125df57506001600160e01b031982166303a24d0760e21b145b8061070b57506301ffc9a760e01b6001600160e01b031983161461070b565b606061070b6001600160a01b03831660145b60605f61261e836002613760565b6126299060026134a6565b6001600160401b0381111561264057612640612b31565b6040519080825280601f01601f19166020018201604052801561266a576020820181803683370190505b509050600360fc1b815f81518110612684576126846132d5565b60200101906001600160f81b03191690815f1a905350600f60fb1b816001815181106126b2576126b26132d5565b60200101906001600160f81b03191690815f1a9053505f6126d4846002613760565b6126df9060016134a6565b90505b6001811115612756576f181899199a1a9b1b9c1cb0b131b232b360811b85600f1660108110612713576127136132d5565b1a60f81b828281518110612729576127296132d5565b60200101906001600160f81b03191690815f1a90535060049490941c9361274f81613777565b90506126e2565b50831561118a5760405162461bcd60e51b815260206004820181905260248201527f537472696e67733a20686578206c656e67746820696e73756666696369656e7460448201526064016106de565b5f8181526001830160205260408120546127ea57508154600181810184555f84815260208082209093018490558454848252828601909352604090209190915561070b565b505f61070b565b5f81815260018301602052604081205480156128cb575f61281360018361378c565b85549091505f906128269060019061378c565b9050818114612885575f865f018281548110612844576128446132d5565b905f5260205f200154905080875f018481548110612864576128646132d5565b5f918252602080832090910192909255918252600188019052604090208390555b85548690806128965761289661379f565b600190038181905f5260205f20015f90559055856001015f8681526020019081526020015f205f90556001935050505061070b565b5f91505061070b565b6128dd81612372565b6040516001600160a01b038216907fbc7cd75a20ee27fd9adebab32041f755214dbc6bffa90cc0225b39da2e5c2d3b905f90a250565b606061118a83836040518060600160405280602781526020016137d460279139612944565b60676109b4828261332d565b60605f80856001600160a01b03168560405161296091906133e8565b5f60405180830381855af49150503d805f8114612998576040519150601f19603f3d011682016040523d82523d5f602084013e61299d565b606091505b50915091506129ae868383876129b8565b9695505050505050565b60608315612a265782515f03612a1f576001600160a01b0385163b612a1f5760405162461bcd60e51b815260206004820152601d60248201527f416464726573733a2063616c6c20746f206e6f6e2d636f6e747261637400000060448201526064016106de565b5081612a30565b612a308383612a38565b949350505050565b8151156121535781518083602001fd5b80356001600160a01b0381168114612a5e575f80fd5b919050565b5f8060408385031215612a74575f80fd5b612a7d83612a48565b946020939093013593505050565b6001600160e01b031981168114610a92575f80fd5b5f60208284031215612ab0575f80fd5b813561118a81612a8b565b5f5b83811015612ad5578181015183820152602001612abd565b50505f910152565b5f8151808452612af4816020860160208601612abb565b601f01601f19169290920160200192915050565b602081525f61118a6020830184612add565b5f60208284031215612b2a575f80fd5b5035919050565b634e487b7160e01b5f52604160045260245ffd5b601f8201601f191681016001600160401b0381118282101715612b6a57612b6a612b31565b6040525050565b5f6001600160401b03821115612b8957612b89612b31565b5060051b60200190565b5f82601f830112612ba2575f80fd5b81356020612baf82612b71565b604051612bbc8282612b45565b80915083815260208101915060208460051b870101935086841115612bdf575f80fd5b602086015b84811015612bfb5780358352918301918301612be4565b509695505050505050565b5f82601f830112612c15575f80fd5b81356001600160401b03811115612c2e57612c2e612b31565b604051612c45601f8301601f191660200182612b45565b818152846020838601011115612c59575f80fd5b816020850160208301375f918101602001919091529392505050565b5f805f805f60a08688031215612c89575f80fd5b612c9286612a48565b9450612ca060208701612a48565b935060408601356001600160401b0380821115612cbb575f80fd5b612cc789838a01612b93565b94506060880135915080821115612cdc575f80fd5b612ce889838a01612b93565b93506080880135915080821115612cfd575f80fd5b50612d0a88828901612c06565b9150509295509295909350565b5f8060408385031215612d28575f80fd5b82359150612d3860208401612a48565b90509250929050565b5f60208284031215612d51575f80fd5b61118a82612a48565b5f82601f830112612d69575f80fd5b81356020612d7682612b71565b604051612d838282612b45565b80915083815260208101915060208460051b870101935086841115612da6575f80fd5b602086015b84811015612bfb57612dbc81612a48565b8352918301918301612dab565b5f8060408385031215612dda575f80fd5b82356001600160401b0380821115612df0575f80fd5b612dfc86838701612d5a565b93506020850135915080821115612e11575f80fd5b50612e1e85828601612b93565b9150509250929050565b5f815180845260208085019450602084015f5b83811015612e5757815187529582019590820190600101612e3b565b509495945050505050565b602081525f61118a6020830184612e28565b5f8060408385031215612e85575f80fd5b612e8e83612a48565b915060208301356001600160401b03811115612ea8575f80fd5b612e1e85828601612c06565b5f8060408385031215612ec5575f80fd5b8235915060208301356001600160401b03811115612ea8575f80fd5b5f805f60608486031215612ef3575f80fd5b83356001600160401b0380821115612f09575f80fd5b612f1587838801612c06565b94506020860135915080821115612f2a575f80fd5b612f3687838801612d5a565b93506040860135915080821115612f4b575f80fd5b50612f5886828701612c06565b9150509250925092565b5f60208284031215612f72575f80fd5b81356001600160401b03811115612f87575f80fd5b612a3084828501612c06565b602080825282518282018190525f9190848201906040850190845b81811015612fd35783516001600160a01b031683529284019291840191600101612fae565b50909695505050505050565b5f8060408385031215612ff0575f80fd5b50508035926020909101359150565b80358015158114612a5e575f80fd5b5f805f805f8060c08789031215613023575f80fd5b61302c87612a48565b9550602087013594506040870135935060608701356001600160401b03811115613054575f80fd5b61306089828a01612c06565b93505061306f60808801612fff565b915061307d60a08801612fff565b90509295509295509295565b5f806040838503121561309a575f80fd5b6130a383612a48565b9150612d3860208401612fff565b5f80604083850312156130c2575f80fd5b82356001600160401b03808211156130d8575f80fd5b6130e486838701612c06565b935060208501359150808211156130f9575f80fd5b50612e1e85828601612c06565b5f8060408385031215613117575f80fd5b61312083612a48565b9150612d3860208401612a48565b5f805f60608486031215613140575f80fd5b61314984612a48565b95602085013595506040909401359392505050565b5f805f805f60a08688031215613172575f80fd5b61317b86612a48565b945061318960208701612a48565b9350604086013592506060860135915060808601356001600160401b038111156131b1575f80fd5b612d0a88828901612c06565b600181811c908216806131d157607f821691505b602082108103610d5757634e487b7160e01b5f52602260045260245ffd5b6020808252602e908201527f455243313135353a2063616c6c6572206973206e6f7420746f6b656e206f776e60408201526d195c881bdc88185c1c1c9bdd995960921b606082015260800190565b6020808252602c908201527f46756e6374696f6e206d7573742062652063616c6c6564207468726f7567682060408201526b19195b1959d85d1958d85b1b60a21b606082015260800190565b6020808252602c908201527f46756e6374696f6e206d7573742062652063616c6c6564207468726f7567682060408201526b6163746976652070726f787960a01b606082015260800190565b634e487b7160e01b5f52603260045260245ffd5b601f82111561093557805f5260205f20601f840160051c8101602085101561330e5750805b601f840160051c820191505b81811015610909575f815560010161331a565b81516001600160401b0381111561334657613346612b31565b61335a8161335484546131bd565b846132e9565b602080601f83116001811461338d575f84156133765750858301515b5f19600386901b1c1916600185901b1785556112e3565b5f85815260208120601f198616915b828110156133bb5788860151825594840194600190910190840161339c565b50858210156133d857878501515f19600388901b60f8161c191681555b5050505050600190811b01905550565b5f82516133f9818460208701612abb565b9190910192915050565b60208082526025908201527f455243313135353a207472616e7366657220746f20746865207a65726f206164604082015264647265737360d81b606082015260800190565b6020808252602a908201527f455243313135353a20696e73756666696369656e742062616c616e636520666f60408201526939103a3930b739b332b960b11b606082015260800190565b634e487b7160e01b5f52601160045260245ffd5b8082018082111561070b5761070b613492565b604081525f6134cb6040830185612e28565b82810360208401526134dd8185612e28565b95945050505050565b5f602082840312156134f6575f80fd5b5051919050565b6020808252602b908201527f496e697469616c697a61626c653a20636f6e7472616374206973206e6f74206960408201526a6e697469616c697a696e6760a81b606082015260800190565b6001600160a01b0386811682528516602082015260a0604082018190525f9061357390830186612e28565b82810360608401526135858186612e28565b905082810360808401526135998185612add565b98975050505050505050565b5f602082840312156135b5575f80fd5b815161118a81612a8b565b5f60033d1115610e0c5760045f803e505f5160e01c90565b5f60443d10156135e55790565b6040516003193d81016004833e81513d6001600160401b03816024840111818411171561361457505050505090565b828501915081518181111561362c5750505050505090565b843d87010160208285010111156136465750505050505090565b61365560208286010187612b45565b509095945050505050565b60208082526028908201527f455243313135353a204552433131353552656365697665722072656a656374656040820152676420746f6b656e7360c01b606082015260800190565b7f416363657373436f6e74726f6c3a206163636f756e742000000000000000000081525f83516136df816017850160208801612abb565b7001034b99036b4b9b9b4b733903937b6329607d1b6017918401918201528351613710816028840160208801612abb565b01602801949350505050565b6001600160a01b03868116825285166020820152604081018490526060810183905260a0608082018190525f9061375590830184612add565b979650505050505050565b808202811582820484141761070b5761070b613492565b5f8161378557613785613492565b505f190190565b8181038181111561070b5761070b613492565b634e487b7160e01b5f52603160045260245ffdfe360894a13ba1a3210667c828492db98dca3e2076cc3735a920a3ca505d382bbc416464726573733a206c6f772d6c6576656c2064656c65676174652063616c6c206661696c6564a49807205ce4d355092ef5a8a18f56e8913cf4a201fbe287825b095693c21775a26469706673582212203d7e86bc2a34b3686c42089d3d4f633c72db68be8cac539dfd22c0146ba1f1f664736f6c63430008170033",
  "immutableReferences": {
    "1352": [
      {
        "length": 32,
        "start": 2498
      },
      {
        "length": 32,
        "start": 2562
      },
      {
        "length": 32,
        "start": 3177
      },
      {
        "length": 32,
        "start": 3241
      },
      {
        "length": 32,
        "start": 3433
      }
    ]
  },
  "source": "// SPDX-License-Identifier: MIT\r\npragma solidity ^0.8.21;\r\n\r\nimport \"@openzeppelin/contracts-upgradeable/proxy/utils/Initializable.sol\"; //implements UUIP pattern for upgrades\r\nimport \"@openzeppelin/contracts-upgradeable/token/ERC1155/extensions/ERC1155PausableUpgradeable.sol\"; //implements pausable pattern for upgrades\r\nimport \"@openzeppelin/contracts-upgradeable/security/ReentrancyGuardUpgradeable.sol\"; //reentrancy guard - Upgradeable\r\nimport \"@openzeppelin/contracts-upgradeable/access/AccessControlEnumerableUpgradeable.sol\"; //implements RBAC for its current token - Upgradeable\r\nimport \"@openzeppelin/contracts-upgradeable/proxy/utils/UUPSUpgradeable.sol\"; //implements UUIP pattern for upgrades\r\nimport \"@openzeppelin/contracts-upgradeable/utils/introspection/ERC165Upgradeable.sol\"; //implements UUIP pattern for upgrades\r\n\r\nimport \"./INFT_DB.sol\"; //ERCPlatform Custom Interface, contracts should support interface this\r\n\r\n/**\r\n * @dev Standard INFT_DB decentralized database for custodial NFTs for customers.\r\n */\r\ncontract standardNFT_DB is\r\n    Initializable,\r\n    ERC165Upgradeable,\r\n    ERC1155PausableUpgradeable,\r\n    ReentrancyGuardUpgradeable,\r\n    AccessControlEnumerableUpgradeable,\r\n    UUPSUpgradeable,\r\n    INFT_DB\r\n{\r\n    //Access Control Roles declaration\r\n    bytes32 public constant ADMIN_ROLE = keccak256(\"ADMIN_ROLE\"); //has admin permissions on state-changing functions\r\n\r\n    string private _contractLevelMetadataURI; //See https://docs.opensea.io/docs/contract-level-metadata\r\n\r\n    //Metadata variables declaration\r\n    string public name;\r\n\r\n    //Mapping declaration\r\n    mapping(address => uint256[]) private tokenMappings; //Keep track of who minted what on the blockchain - TO BE FIXED\r\n\r\n    mapping(uint256 => string) private _tokenURIs; //tokenURI custom implementation\r\n    mapping(uint256 => bool) private tokenMinted; //Check if tokenID has already been minted\r\n    mapping(uint256 => bool) private isBurnable; //Check if tokenID is burnable\r\n    mapping(uint256 => bool) private isMutable; //Check if tokenID URI is mutable, if his URI can be changed at a later time\r\n\r\n    function initialize(\r\n        string memory contract_uri,\r\n        address[] memory admins,\r\n        string memory contract_name\r\n    ) public initializer {\r\n        //Dependencies initialization:\r\n        __ERC1155_init(contract_uri);\r\n        __ReentrancyGuard_init();\r\n\r\n        //Contract variables setup\r\n        _contractLevelMetadataURI = contract_uri;\r\n        name = contract_name;\r\n        _grantRole(DEFAULT_ADMIN_ROLE, msg.sender);\r\n        _grantRole(ADMIN_ROLE, msg.sender);\r\n\r\n        if (admins.length > 0) { //first admin assignation\r\n            for (uint256 i = 0; i < admins.length; i++) {\r\n                _grantRole(DEFAULT_ADMIN_ROLE, admins[i]);\r\n                _grantRole(ADMIN_ROLE, admins[i]);\r\n            }\r\n        }\r\n    }\r\n\r\n    /**\r\n     * @dev uri function override, allows to assign a custom URI for each token ID\r\n     *\r\n     * @param tokenId: uint, token id of which we want to get the URI set by _SetTokenURI\r\n     * @return URI: string, URI address of tokenId token\r\n     */\r\n    function uri(uint256 tokenId) public view override returns (string memory) {\r\n        require(exists(tokenId), \"ERC1155: query for non-existent object\");\r\n        return (_tokenURIs[tokenId]);\r\n    }\r\n\r\n    /**\r\n     * @dev return custom collection URI, for legacy purposes\r\n     *\r\n     * @return _contractLevelMetadataURI: string, the contract URI assigned from the constructor\r\n     */\r\n    function tokenURI() public view returns (string memory) {\r\n        return _contractLevelMetadataURI;\r\n    }\r\n\r\n    /**\r\n     * @dev Utility string comparation function. Allows to check if a and b are equal.\r\n     *\r\n     * @param a: string, the first string to compare\r\n     * @param b: string, the second string to compare\r\n     * @return equals: bool, says if a and b are equal\r\n     */\r\n    function compareStrings(string memory a, string memory b)\r\n        public\r\n        pure\r\n        returns (bool)\r\n    {\r\n        return keccak256(abi.encodePacked(a)) == keccak256(abi.encodePacked(b));\r\n    }\r\n\r\n    function contractURI() public view returns (string memory) {\r\n        return _contractLevelMetadataURI;\r\n    }\r\n\r\n    function mintToken(\r\n        address to,\r\n        uint256 tokenId,\r\n        uint256 amount,\r\n        string memory contract_uri,\r\n        bool burnable,\r\n        bool nonMutable\r\n    ) public nonReentrant onlyRole(ADMIN_ROLE) {\r\n        if (exists(tokenId)) {\r\n            _mint(to, tokenId, amount, \"\");\r\n            tokenMappings[to].push(tokenId); //TO BE FIXED\r\n        }\r\n        //if it exist already, just mintToken the NFT\r\n        else {\r\n            _mint(to, tokenId, amount, \"\");\r\n            tokenMappings[to].push(tokenId); //TO BE FIXED\r\n            tokenMinted[tokenId] = true;\r\n            _setTokenUri(tokenId, contract_uri); //if token URI is empty, token is considered ERC20 like\r\n\r\n            //allows users to block current token burn. this is permanent.\r\n            if (burnable) {\r\n                isBurnable[tokenId] = true;\r\n            }\r\n\r\n            //allows customers to avoid tokenURI changes\r\n            if (!nonMutable) {\r\n                isMutable[tokenId] = false;\r\n            }\r\n        }\r\n    }\r\n\r\n    function burnToken(\r\n        address contract_address,\r\n        uint256 tokenId,\r\n        uint256 amount\r\n    ) public nonReentrant onlyRole(ADMIN_ROLE) {\r\n        require(exists(tokenId), \"Token not existent!\");\r\n        require(isBurnable[tokenId], \"Token is not burnable!\");\r\n\r\n        _burn(contract_address, tokenId, amount);\r\n        _tokenURIs[tokenId] = \"\"; //restore mapping to default value\r\n        tokenMinted[tokenId] = false;\r\n\r\n        //no need to emit event, ERC721 takes care of this with a Transfer to the 0 address by default\r\n    }\r\n\r\n    function getCurrentPrivilegedAccounts(string memory role)\r\n        public\r\n        view\r\n        onlyRole(DEFAULT_ADMIN_ROLE)\r\n        returns (address[] memory)\r\n    {\r\n        bytes32 role_bytes = keccak256(abi.encodePacked(role));\r\n\r\n        address[] memory members = new address[](\r\n            getRoleMemberCount(role_bytes)\r\n        );\r\n        for (uint256 i = 0; i < getRoleMemberCount(role_bytes); i++) {\r\n            members[i] = getRoleMember(role_bytes, i);\r\n        }\r\n\r\n        return members;\r\n    }\r\n\r\n    function exists(uint256 tokenId)\r\n        public\r\n        view\r\n        onlyRole(ADMIN_ROLE)\r\n        returns (bool)\r\n    {\r\n        return tokenMinted[tokenId];\r\n    }\r\n\r\n    function setTokenUri(uint256 tokenId, string memory token_uri)\r\n        public\r\n        onlyRole(ADMIN_ROLE)\r\n    {\r\n        if (isMutable[tokenId]) {\r\n            _setTokenUri(tokenId, token_uri);\r\n        } else {\r\n            if (hasRole(DEFAULT_ADMIN_ROLE, msg.sender)) {\r\n                _setTokenUri(tokenId, token_uri);\r\n            } else\r\n                revert(\"IERCPlatform: URI for specified tokenId is permanent!\");\r\n        }\r\n    }\r\n\r\n    /**\r\n        @dev Returns all tokens owned in any quantity by a specific address\r\n        @param who: The address to check\r\n\r\n        @return tokenId[]: Array[uint256] - tokenIds associated with who. Can be duplicated, so it is compulsory to clean the array off-chain.\r\n     */\r\n    function getTokenMappings(address who)\r\n        public\r\n        view\r\n        returns (uint256[] memory)\r\n    {\r\n        return tokenMappings[who];\r\n    }\r\n\r\n    function test()\r\n        public\r\n        returns (string memory)\r\n    {\r\n        \r\n        return \"hello there!\";\r\n    }\r\n\r\n\r\n    /**\r\n     * @dev pausable public implementation, allows admins to block contract operation from an unpaused state.\r\n     *\r\n     */\r\n    function pause() public onlyRole(DEFAULT_ADMIN_ROLE) whenNotPaused {\r\n        _pause();\r\n    }\r\n\r\n    /**\r\n     * @dev pausable public implementation, allows admins to unblock contract operation from a paused state.\r\n     *\r\n     */\r\n    function unpause() public onlyRole(DEFAULT_ADMIN_ROLE) whenPaused {\r\n        _unpause();\r\n    }\r\n\r\n    function supportsInterface(bytes4 interfaceId)\r\n        public\r\n        view\r\n        override(\r\n            ERC1155Upgradeable,\r\n            AccessControlEnumerableUpgradeable,\r\n            ERC165Upgradeable\r\n        )\r\n        returns (bool)\r\n    {\r\n        return\r\n            interfaceId == type(INFT_DB).interfaceId || \r\n            super.supportsInterface(interfaceId);\r\n    }\r\n\r\n    //PRIVATE AND INTERNAL UTILITY FUNCTIONS DECLARATION\r\n\r\n    function _setTokenUri(uint256 tokenId, string memory token_uri) private {\r\n        _tokenURIs[tokenId] = token_uri;\r\n        emit URI(uri(tokenId), tokenId);\r\n    }\r\n\r\n    /**\r\n     * @dev See {ERC1967-Proxy}\r\n     */\r\n    function _authorizeUpgrade(address newImplementation)\r\n        internal\r\n        override\r\n        onlyRole(DEFAULT_ADMIN_ROLE)\r\n    {}\r\n}\r\n\r\n// /**\r\n//  * @dev public setURI implementation. Allows to change the ERC1155 contract URI on a later time.\r\n//  *\r\n//  * @param newuri: string, the new contract URI\r\n//  *\r\n//  */\r\n// function setURI(string memory newuri)\r\n//     public\r\n//     onlyRole(CONTRACT_METADATA_ROLE)\r\n// {\r\n//     _setURI(newuri);\r\n// }\r\n",
  "sourcePath": "D:\\Repositories\\inft-db\\contracts\\standardNFT_DB.sol",
  "compiler": {
    "name": "solc",
    "version": "0.8.23+commit.f704f362.Emscripten.clang"
  },
  "schemaVersion": "3.4.15",
  "updatedAt": "2023-11-11T13:01:35.785Z",
  "networkType": "ethereum",
  "devdoc": {
    "details": "Standard INFT_DB decentralized database for custodial NFTs for customers.",
    "events": {
      "AdminChanged(address,address)": {
        "details": "Emitted when the admin account has changed."
      },
      "ApprovalForAll(address,address,bool)": {
        "details": "Emitted when `account` grants or revokes permission to `operator` to transfer their tokens, according to `approved`."
      },
      "BeaconUpgraded(address)": {
        "details": "Emitted when the beacon is changed."
      },
      "Initialized(uint8)": {
        "details": "Triggered when the contract has been initialized or reinitialized."
      },
      "Paused(address)": {
        "details": "Emitted when the pause is triggered by `account`."
      },
      "RoleAdminChanged(bytes32,bytes32,bytes32)": {
        "details": "Emitted when `newAdminRole` is set as ``role``'s admin role, replacing `previousAdminRole` `DEFAULT_ADMIN_ROLE` is the starting admin for all roles, despite {RoleAdminChanged} not being emitted signaling this. _Available since v3.1._"
      },
      "RoleGranted(bytes32,address,address)": {
        "details": "Emitted when `account` is granted `role`. `sender` is the account that originated the contract call, an admin role bearer except when using {AccessControl-_setupRole}."
      },
      "RoleRevoked(bytes32,address,address)": {
        "details": "Emitted when `account` is revoked `role`. `sender` is the account that originated the contract call:   - if using `revokeRole`, it is the admin role bearer   - if using `renounceRole`, it is the role bearer (i.e. `account`)"
      },
      "TransferBatch(address,address,address,uint256[],uint256[])": {
        "details": "Equivalent to multiple {TransferSingle} events, where `operator`, `from` and `to` are the same for all transfers."
      },
      "TransferSingle(address,address,address,uint256,uint256)": {
        "details": "Emitted when `value` tokens of token type `id` are transferred from `from` to `to` by `operator`."
      },
      "URI(string,uint256)": {
        "details": "Emitted when the URI for token type `id` changes to `value`, if it is a non-programmatic URI. If an {URI} event was emitted for `id`, the standard https://eips.ethereum.org/EIPS/eip-1155#metadata-extensions[guarantees] that `value` will equal the value returned by {IERC1155MetadataURI-uri}."
      },
      "Unpaused(address)": {
        "details": "Emitted when the pause is lifted by `account`."
      },
      "Upgraded(address)": {
        "details": "Emitted when the implementation is upgraded."
      }
    },
    "kind": "dev",
    "methods": {
      "balanceOf(address,uint256)": {
        "details": "See {IERC1155-balanceOf}. Requirements: - `account` cannot be the zero address."
      },
      "balanceOfBatch(address[],uint256[])": {
        "details": "See {IERC1155-balanceOfBatch}. Requirements: - `accounts` and `ids` must have the same length."
      },
      "burnToken(address,uint256,uint256)": {
        "details": "token burn custom implementation. Allows to control which tokenId is burnable (by the mintToken function) and to effectively burn its instances from the blockchain.",
        "params": {
          "amount": ": uint, amount of tokenId we want to burn",
          "contract_address": ": address, of tokenId owner",
          "tokenId": ": uint, token id we want to burn"
        }
      },
      "compareStrings(string,string)": {
        "details": "Utility string comparation function. Allows to check if a and b are equal.",
        "params": {
          "a": ": string, the first string to compare",
          "b": ": string, the second string to compare"
        },
        "returns": {
          "_0": "equals: bool, says if a and b are equal"
        }
      },
      "contractURI()": {
        "details": "return custom contract URI (collection metadata) as described by OpenSea: https://docs.opensea.io/docs/contract-level-metadata",
        "returns": {
          "_0": "contractURI: string, contractURI as defined in OpenSea standards."
        }
      },
      "exists(uint256)": {
        "details": "Custom tokenID check implementation. Allow to check if a specific tokenId exist.",
        "params": {
          "tokenId": ": uint, token id of which we want to check the existence"
        },
        "returns": {
          "_0": "tokenExists: bool, says if token exist"
        }
      },
      "getCurrentPrivilegedAccounts(string)": {
        "details": "This function returns an array of addresses associated with custom \"role\" account Requirements: AccessControlEnumerable imported in custom contract",
        "params": {
          "role": ": string, role that will be converted in bytes of which we want to enumerate addresses"
        },
        "returns": {
          "_0": "addresses: address[], an array of addresses that are members of specific role"
        }
      },
      "getRoleAdmin(bytes32)": {
        "details": "Returns the admin role that controls `role`. See {grantRole} and {revokeRole}. To change a role's admin, use {_setRoleAdmin}."
      },
      "getRoleMember(bytes32,uint256)": {
        "details": "Returns one of the accounts that have `role`. `index` must be a value between 0 and {getRoleMemberCount}, non-inclusive. Role bearers are not sorted in any particular way, and their ordering may change at any point. WARNING: When using {getRoleMember} and {getRoleMemberCount}, make sure you perform all queries on the same block. See the following https://forum.openzeppelin.com/t/iterating-over-elements-on-enumerableset-in-openzeppelin-contracts/2296[forum post] for more information."
      },
      "getRoleMemberCount(bytes32)": {
        "details": "Returns the number of accounts that have `role`. Can be used together with {getRoleMember} to enumerate all bearers of a role."
      },
      "getTokenMappings(address)": {
        "details": "Returns all tokens owned in any quantity by a specific address",
        "params": {
          "who": ": The address to check"
        },
        "returns": {
          "_0": "tokenId[]: Array[uint256] - tokenIds associated with who. Can be duplicated, so it is compulsory to clean the array off-chain."
        }
      },
      "grantRole(bytes32,address)": {
        "details": "Grants `role` to `account`. If `account` had not been already granted `role`, emits a {RoleGranted} event. Requirements: - the caller must have ``role``'s admin role. May emit a {RoleGranted} event."
      },
      "hasRole(bytes32,address)": {
        "details": "Returns `true` if `account` has been granted `role`."
      },
      "isApprovedForAll(address,address)": {
        "details": "See {IERC1155-isApprovedForAll}."
      },
      "mintToken(address,uint256,uint256,string,bool,bool)": {
        "details": "custom Mint implementation. Allows to check for custom contract_uri and burnable tokens.",
        "params": {
          "amount": ": uint, amount of tokenId we want to mintToken",
          "burnable": ": bool, allows the user to burn token with the burnToken() function.",
          "contract_uri": ": string, URI we want to assign to tokenID, is set only if it's the first time minting the specific tokenId",
          "to": ": address, the target of our mintToken",
          "tokenId": ": uint, token id we want to mintToken (can be both existent or not)"
        }
      },
      "pause()": {
        "details": "pausable public implementation, allows admins to block contract operation from an unpaused state."
      },
      "paused()": {
        "details": "Returns true if the contract is paused, and false otherwise."
      },
      "proxiableUUID()": {
        "details": "Implementation of the ERC1822 {proxiableUUID} function. This returns the storage slot used by the implementation. It is used to validate the implementation's compatibility when performing an upgrade. IMPORTANT: A proxy pointing at a proxiable contract should not be considered proxiable itself, because this risks bricking a proxy that upgrades to it, by delegating to itself until out of gas. Thus it is critical that this function revert if invoked through a proxy. This is guaranteed by the `notDelegated` modifier."
      },
      "renounceRole(bytes32,address)": {
        "details": "Revokes `role` from the calling account. Roles are often managed via {grantRole} and {revokeRole}: this function's purpose is to provide a mechanism for accounts to lose their privileges if they are compromised (such as when a trusted device is misplaced). If the calling account had been revoked `role`, emits a {RoleRevoked} event. Requirements: - the caller must be `account`. May emit a {RoleRevoked} event."
      },
      "revokeRole(bytes32,address)": {
        "details": "Revokes `role` from `account`. If `account` had been granted `role`, emits a {RoleRevoked} event. Requirements: - the caller must have ``role``'s admin role. May emit a {RoleRevoked} event."
      },
      "safeBatchTransferFrom(address,address,uint256[],uint256[],bytes)": {
        "details": "See {IERC1155-safeBatchTransferFrom}."
      },
      "safeTransferFrom(address,address,uint256,uint256,bytes)": {
        "details": "See {IERC1155-safeTransferFrom}."
      },
      "setApprovalForAll(address,bool)": {
        "details": "See {IERC1155-setApprovalForAll}."
      },
      "setTokenUri(uint256,string)": {
        "details": "Custom _SetTokenURI ERC721 implementation. Allows URIs to be different for each tokenId",
        "params": {
          "tokenId": ": integer, the ID of which we want to change URI",
          "token_uri": ": string, valid internet URI reachable by the blockchain on which there's a JSON Stored following OpenSeas's metadata standards: https://docs.opensea.io/docs/metadata-standards"
        }
      },
      "tokenURI()": {
        "details": "return custom collection URI, for legacy purposes",
        "returns": {
          "_0": "_contractLevelMetadataURI: string, the contract URI assigned from the constructor"
        }
      },
      "unpause()": {
        "details": "pausable public implementation, allows admins to unblock contract operation from a paused state."
      },
      "upgradeTo(address)": {
        "custom:oz-upgrades-unsafe-allow-reachable": "delegatecall",
        "details": "Upgrade the implementation of the proxy to `newImplementation`. Calls {_authorizeUpgrade}. Emits an {Upgraded} event."
      },
      "upgradeToAndCall(address,bytes)": {
        "custom:oz-upgrades-unsafe-allow-reachable": "delegatecall",
        "details": "Upgrade the implementation of the proxy to `newImplementation`, and subsequently execute the function call encoded in `data`. Calls {_authorizeUpgrade}. Emits an {Upgraded} event."
      },
      "uri(uint256)": {
        "details": "uri function override, allows to assign a custom URI for each token ID",
        "params": {
          "tokenId": ": uint, token id of which we want to get the URI set by _SetTokenURI"
        },
        "returns": {
          "_0": "URI: string, URI address of tokenId token"
        }
      }
    },
    "stateVariables": {
      "name": {
        "details": "return custom collection name, for legacy purposes (eg. etherscan visualization)",
        "return": "name: string, contract collection name defined during construction",
        "returns": {
          "_0": "name: string, contract collection name defined during construction"
        }
      }
    },
    "version": 1
  },
  "userdoc": {
    "kind": "user",
    "methods": {},
    "version": 1
  }
}